S00F0000536F6674776172652E7333379A
S214000000C00A002085960000CF680200CF68020074
S214000010CF480200CF680200CF680200CF68020017
S214000020CF680200CF680200CF680200CF680200E7
S214000030CF680200ECFD02008D6A0200CF68020065
S214000040CF680200CF680200CF680200CF680200C7
S214000050CF680200CF680200CF680200CF680200B7
S214000060CF680200CF680200CF680200CF680200A7
S214000070D9460200CF680200CF680200CF680200AF
S214000080CF680200CF680200CF6802008D1602001B
S214000090CF680200B9920000CF680200CF68020065
S2140000A0CF680200CF680200CF680200CF68020067
S2140000B0CF680200D1FF0100CF680200250A0200C7
S2140000C03FEC02003BEC0200150202004BEC020083
S2140000D043EC0200FD09020047EC0200650A02003C
S2140000E005E30100C9E40100D50A0200CF6802005A
S2140000F0CF680200CF680200CF680200CF68020017
S214000100CF680200CF680200CF680200CF68020006
S214000110CF680200CF680200CF680200CF680200F6
S214000120CF680200CF680200CF680200CF680200E6
S214000130CF680200CF680200CF680200CF680200D6
S214000140013800D0FCE77047002370B5404C0546E8
S2140001508AB0E36318B1008823600FF0DDFC3D48E9
S2140001602EF014F83C4E3D4B304633603C4B7360EB
S21400017029F073FB0021304619F0CAFF32A3D3E9F9
S2140001800023A062C4E9062329F072FBD4E9062303
S21400019019431043C4E90601CDE900014FF0FF33CF
S2140001A04FF0FF32A06A2EF06CF802224FF0FF31BB
S2140001B0A06A2EF06BF801200FF030FA4FF40073AF
S2140001C000222849A06A2EF0B5F8B0F5007F38D195
S2140001D000239422CDE9073309933C23CDE903326B
S2140001E005939623A06A03A906931AF0AFF835B3D1
S2140001F0287C0FF049FE0546F0B9A06A2EF07BF980
S2140002000FF0F0FD0FF0ECF920B14FF480700021F4
S2140002100CF0F4F90FF0F4F920B14FF4006000216F
S2140002200CF0ECF929F0E8FB012019F0C5FF0E4AA6
S2140002300E49A06A29F00FFB28460AB070BDFF20C1
S214000240D7E70725F8E700BF0DD5015520000000C9
S214000250E8100020690345EC08230020A1F4000004
S2140002601823002008210020FF9702003F98020074
S2140002700348044B834202D0034B03B11847704730
S214000280701000207010002000000000064B074988
S214000290C91A891048BF0131491003D0044B0BB16D
S2140002A001481847704700BF7010002070100020EB
S2140002B00000000010B5064C237843B9FFF7D8FFBE
S2140002C0044B13B10448AFF300800123237010BD24
S2140002D0D22A0020000000006447030008B5054B42
S2140002E01BB105490548AFF30080BDE80840FFF79D
S2140002F0CDBF00BF00000000481300206447030085
S214000300A3F5803A704700BF174B002B08BF134B6E
S2140003109D46FFF7F5FF00218B460F461348144A0B
S214000320121A2EF014FD0E4B002B00D098470D4BE2
S214000330002B00D098470020002104000D000D4837
S214000340002802D00C48AFF3008020F0EBFE20001F
S214000350290026F0D5FC20F0D9FD00BF00000800DB
S2140003600000000000000000C00A002070100020FE
S214000370E82B0020000000000000000030B585B02B
S21400038001900091009B002B15D00C4B1B68009A27
S214000390002101989847009B1A46013A03920022D2
S2140003A01C4615464FF000024FF00003EB0043EAF0
S2140003B05473E200019B00BF05B030BDC00A0020A8
S2140003C082B001900B46ADF80230019A184B1340EC
S2140003D0B3F1607F06D1BDF80230B3F5885F01D176
S2140003E0002322E0019A124B1340B3F1707F1AD11A
S2140003F0BDF8023003F4E043B3F5005F13D1BDF857
S214000400023003F4E043B3F5005F0CD1BDF80230D0
S2140004101B0A9BB203F00703012202FA03F3012B27
S21400042001D9002301E06FF08603184602B070473A
S2140004300000C07F00B587B0034602910192ADF878
S2140004400E30019A029B9A4201D101235DE2019B84
S21400045023F0FF03974A934221D0019B23F0FF032A
S214000460954A93421BD0019B23F0FF03934A934285
S21400047015D0019B23F4FF7323F00103B3F1062F7D
S2140004800DD0019B23F0FF038D4A934207D0019BBA
S21400049023F4FF7323F001038A4A93423BD1029B65
S2140004A023F0FF03834A934221D0029B23F0FF03ED
S2140004B0814A93421BD0029B23F0FF037F4A93425C
S2140004C015D0029B23F4FF7323F00103B3F1062F2C
S2140004D00DD0029B23F0FF03794A934207D0029B7C
S2140004E023F4FF7323F00103764A934213D1029B51
S2140004F0DBB2002B0FD0029BDBB243F00073724AD4
S214000500934208D1029A019B5340FF2B94BF0123CC
S2140005100023DBB2F9E1029B03F0FE43B3F1A06FC8
S2140005201FD1019B03F0FE43B3F1A06F19D1029ACD
S214000530019B534023F47E13002B12D1029B03F43D
S2140005400043002B0DD0029B1B0C03F03F02019BC7
S2140005501B0C03F03F039A4294BF01230023DBB237
S214000560D3E1029B03F0FE43B3F1407F40F0AA8143
S214000570019B03F0FE43B3F1407F40F0A381029A53
S214000580019B534023F47E13002B40F09B81BDF863
S2140005900E3019460298FFF713FF0346002B01D0D2
S2140005A00023B2E1019B03F47C13002B04D0019BD3
S2140005B01B0C03F03F03BFE0019A444B1340B3F11A
S2140005C0607F40F09F80019BDBB243F00073404A9F
S2140005D093426DD0019BDBB243F000733D4A9342D9
S2140005E064D0019BDBB243F000733B4A93425BD07E
S2140005F0019BDBB243F00073384A934252D0019B12
S214000600DBB243F00073364A934249D0019BDBB21B
S21400061043F00073334A934240D0019BDBB243F071
S2140006200073314A934237D0019BDBB243F000732C
S2140006302E4A93422ED0019BDBB243F000732C4A25
S214000640934225D0019BDBB243F00073294A9342C4
S2140006501CD0019BDBB243F00073274A934213D0B1
S214000660019BDBB243F00073244A93420AD0019BFD
S214000670DBB243F00073224A934201D140235BE091
S214000680002359E0302357E0202355E01C2353E095
S214000690202351E01C234FE040234DE030234BE065
S2140006A0202349E01C2347E0142345E0142343E0BD
S2140006B0102341E0000300060013000600020006B7
S2140006C00009000600040006FF0000020000C07FCC
S2140006D003000002040000020500000208000002F9
S2140006E0090000020A0000020B0000020C000002D3
S2140006F00D000002100000021100000212000002AD
S21400070013000002019A834B1340B3F1707F12D19D
S214000710BDF80E3003F4E043B3F5005F09D1BDF831
S2140007200E301B0A9BB203F00703012202FA03F302
S21400073002E0002300E000230593019A754B134066
S214000740B3F1607F76D1019BDBB243F00073724A4F
S21400075093426DD0019BDBB243F000736F4A934225
S21400076064D0019BDBB243F000736D4A93425BD0CA
S214000770019BDBB243F000736A4A934252D0019B5E
S214000780DBB243F00073684A934249D0019BDBB268
S21400079043F00073654A934240D0019BDBB243F0BE
S2140007A00073634A934237D0019BDBB243F0007379
S2140007B0604A93422ED0019BDBB243F000735E4A40
S2140007C0934225D0019BDBB243F000735B4A934211
S2140007D01CD0019BDBB243F00073594A934213D0FE
S2140007E0019BDBB243F00073564A93420AD0019B4A
S2140007F0DBB243F00073544A934201D1402333E006
S214000800002331E030232FE020232DE01C232BE0B3
S214000810202329E01C2327E0402325E0302323E083
S214000820202321E01C231FE014231DE014231BE0DB
S214000830102319E0019A374B1340B3F1707F12D1A1
S214000840BDF80E3003F4E043B3F5005F09D1BDF800
S2140008500E301B0A9BB203F00703012202FA03F3D1
S21400086002E0002300E000230493029B1B0C03F02D
S2140008703F03002B07D1059A049B9A420CBF012325
S2140008800023DBB241E0019B1B0C03F03F03002B6F
S21400089008D1029B1B0C03F03F03049A9A4201D135
S2140008A0012332E0029B03F40043002B0AD0029B94
S2140008B01B0C03F03F03059A9A422CBF012300232A
S2140008C0DBB222E0029B03F0FE43B3F1106F1BD1B4
S2140008D0029B23F01F6323F4702343F00063B3F1FD
S2140008E0006F11D1019B03F0FE43B3F1106F0BD1E3
S2140008F0019A164B134043F01063029A9A420CBFBB
S21400090001230023DBB200E00023184607B05DF8A1
S21400091004FB00BF0000C07F0300000204000002CA
S2140009200500000208000002090000020A0000029A
S2140009300B0000020C0000020D0000021000000276
S2140009401100000212000002130000020000FFF671
S21400095000B585B003900B460192ADF80A30019BB6
S214000960002B02D16FF08603A9E0019B23F0FF0362
S214000970554A934221D0019B23F0FF03534A9342EA
S2140009801BD0019B23F0FF03514A934215D0019BD5
S21400099023F4FF7323F00103B3F1062F0DD0019B60
S2140009A023F0FF034B4A934207D0019B23F4FF73C7
S2140009B023F00103484A93423DD1019BDBB2002B52
S2140009C039D0019B23F0FF033F4A934221D0019B7D
S2140009D023F0FF033D4A93421BD0019B23F0FF0305
S2140009E03B4A934215D0019B23F4FF7323F0010387
S2140009F0B3F1062F0DD0019B23F0FF03354A934237
S214000A0007D0019B23F4FF7323F00103324A93427D
S214000A100CD1019BDBB2002B08D0019BDBB243F06C
S214000A2000732E4A934201D1012300E0002303F015
S214000A300103DBB224E0019B03F0FE43B3F1407FE9
S214000A4008D1019B03F40043002B14BF01230023AD
S214000A50DBB215E0019B03F0FE43B3F1A06F08D1B3
S214000A60019B03F40043002B14BF01230023DBB2D9
S214000A7006E0019B194A93420CBF01230023DBB218
S214000A80002B02D06FF0860319E0039B5968BDF86F
S214000A900A30019A1846FFF7CDFC0346002B0AD110
S214000AA0039B9968BDF80A30019A1846FFF7C2FC06
S214000AB00346002B01D0002301E06FF084031846A4
S214000AC005B05DF804FB00BF000300060013000637
S214000AD0000200060009000600040006FF000002EF
S214000AE000B589B00390029101926FF096030793C8
S214000AF0029821F07AFB0346ADF81A30029821F0EE
S214000B007BFB0590039B03F0FE43B3F1407F02D0CE
S214000B106FF086037CE1BDF81A3019460398FFF79C
S214000B204FFC0790079B002B01D0079B70E1039BAF
S214000B3003F47C13002B06D0039B1B0CDBB203F0E4
S214000B403F03DBB297E0039A9C4B1340B3F1607F00
S214000B5076D1039BDBB243F00073994A93426DD083
S214000B60039BDBB243F00073964A934264D0039B28
S214000B70DBB243F00073944A93425BD0039BDBB234
S214000B8043F00073914A934252D0039BDBB243F08A
S214000B9000738F4A934249D0039BDBB243F0007345
S214000BA08C4A934240D0039BDBB243F000738A4AE0
S214000BB0934237D0039BDBB243F00073874A9342DD
S214000BC02ED0039BDBB243F00073854A934225D0B8
S214000BD0039BDBB243F00073824A93421CD0039B14
S214000BE0DBB243F00073804A934213D0039BDBB220
S214000BF043F000737D4A93420AD0039BDBB243F076
S214000C0000737B4A934201D1402334E0002332E054
S214000C10302330E020232EE01C232CE020232AE083
S214000C201C2328E0402326E0302324E0202322E073
S214000C301C2320E014231EE014231CE010231AE0DB
S214000C40039A5E4B1340B3F1707F13D1BDF81A3090
S214000C5003F4E043B3F5005F0AD1BDF81A301B0A6F
S214000C609BB203F00703012202FA03F3DBB202E0B1
S214000C70002300E00023019A1370019B1B78032BCE
S214000C8002D86FF08503C3E0019B1B781946039AD0
S214000C904A4B1340B3F1607F76D1039BDBB243F03F
S214000CA00073474A93426DD0039BDBB243F0007358
S214000CB0444A934264D0039BDBB243F00073424A3B
S214000CC093425BD0039BDBB243F000733F4A9342F0
S214000CD052D0039BDBB243F000733D4A934249D0A7
S214000CE0039BDBB243F000733A4A934240D0039B27
S214000CF0DBB243F00073384A934237D0039BDBB233
S214000D0043F00073354A93422ED0039BDBB243F088
S214000D100073334A934225D0039BDBB243F0007343
S214000D20304A93421CD0039BDBB243F000732E4A3A
S214000D30934213D0039BDBB243F000732B4A9342DB
S214000D400AD0039BDBB243F00073294A934201D1D9
S214000D50402350E000234EE030234CE020234AE0BE
S214000D601C2348E0202346E01C2344E0402342E0C6
S214000D70302340E020233EE01C233CE014233AE0EE
S214000D80142338E0102336E0039A0C4B1340B3F1DB
S214000D90707F2FD1BDF81A3003F4E043B3F5005F3F
S214000DA009D1BDF81A301B0A9BB203F007030122D3
S214000DB002FA03F31FE000231DE000BF0000C07F1F
S214000DC00300000204000002050000020800000202
S214000DD0090000020A0000020B0000020C000002DC
S214000DE00D000002100000021100000212000002B6
S214000DF01300000200238B4202D26FF0860307E046
S214000E00019B1B78142B02D96FF0850300E00023AA
S214000E10184609B05DF804FB30B5AFB00B900A91E8
S214000E20099208936FF096032D936FF096032B9319
S214000E300023239300232C930A9B03F0FE43B3F175
S214000E40806F03D06FF086032D93B1E023A90A9B31
S214000E504FF480720B9821F0FDFC2D902D9B002BFB
S214000E6040F0A380239B24AC1D460FCD0FC495E80D
S214000E70070084E8070016AB2422002118462DF050
S214000E8066FF16AC24AD0FCD0FC495E8070084E8C6
S214000E900700239B1B8803F4E043B3F5005F35D1BE
S214000EA0239B1B881B0A9BB203F00703012202FA4E
S214000EB003F3012B2AD90A9B4F4A934213D00A9B6D
S214000EC04E4A93420FD00A9B4D4A93420BD00A9B40
S214000ED04C4A934207D00A9B4B4A934203D00A9B44
S214000EE04A4A934212D1239B1B8803F4E043B3F58E
S214000EF0005F09D1239B1B881B0A9BB203F00703E4
S214000F00012202FA03F314E0002312E0239B1B885D
S214000F1042F20402934203D10A9B3D4A934207D011
S214000F200A9B3C4A934201D10D2302E0002300E0D5
S214000F300C232C932C9B102B03D96FF083032D933B
S214000F4036E02C9B002B10D0339A2C9B9A4203D26F
S214000F506FF089032D932BE01FAB2C99184600F0F9
S214000F605BF82D902D9B002B21D1239B5C6A239B45
S214000F709D6A2C99329821F011F90146339A2C9BE0
S214000F80D31A16A8349A069205930491089B0393E5
S214000F90099B02932C9B01931FAB00930A9B2A4646
S214000FA0214621F0E8F92D9002E000BF00E000BFE6
S214000FB0239B184622F07DFE2B902D9B002B01D103
S214000FC02B9B2D932D9B002B0FD12C9B002B05D0FC
S214000FD01FAB2C9A194632982DF0C3FE349B1A6824
S214000FE02C9B1A44349B1A6002E0349B00221A6041
S214000FF02D9B18462FB030BD0010C0040011C00451
S2140010000012C00400FF40040040400400414004B9
S214001010000180040013C00400B585B00190009163
S214001020104B1B78002B02D16FF0880315E00023CD
S214001030029302AB009A01990B4823F056FF0390E7
S214001040039B002B01D0039B07E0029B009A9A4269
S21400105002D06FF0930300E00023184605B05DF859
S21400106004FB00BF601300206413002008B500F0E6
S2140010705FF9074B5B78002B02D0064822F0C5FAD2
S2140010800C210348FFF77AF921F0CFF800BF08BD1E
S214001090601300206413002000B583B01B4B1B7840
S2140010A0002B01D000232DE021F0ADF80190019B2C
S2140010B0002B1CD1154B01229A70154822F099FA84
S2140010C0124B01225A70124822F0ABFA0190019B93
S2140010D0002B0ED10D4B02225A7000F01FF9019022
S2140010E0019B002B07D1094B01221A7004E000BFB8
S2140010F002E000BF00E000BF019B002B01D0FFF71D
S214001100B5FF019B184603B05DF804FB6013002092
S2140011106413002082B00190019B064A934204D9D2
S214001120019B002B01DB012300E00023184602B0E0
S214001130704700BFFCFFFF7F82B001900B468DF822
S2140011400330019B93F82030052B77D801A252F884
S21400115023F000BF6D1100008B110000A9110000E4
S214001160C711000011120000031200009DF80330A2
S214001170012B58D09DF80330022B54D09DF8033035
S214001180042B50D06FF087035EE09DF80330022BEF
S2140011904BD09DF80330052B47D09DF80330042B29
S2140011A043D06FF088034FE09DF80330032B3ED00A
S2140011B09DF80330052B3AD09DF80330042B36D02B
S2140011C06FF0880340E09DF80330022B0ED09DF8A8
S2140011D00330052B0AD09DF80330042B06D09DF86B
S2140011E00330032B02D06FF088032DE09DF8033008
S2140011F0022B1ED1019BDB69002B1AD06FF08803EF
S21400120022E09DF80330002B15D06FF088031BE01A
S2140012109DF80330052B10D09DF80330002B0CD022
S2140012206FF0880310E000BF08E000BF06E000BFD4
S21400123004E000BF02E000BF00E000BF019B9DF895
S214001240032083F820200023184602B0704700BF12
S21400125000B587B0019000916FF096030593019B4F
S2140012600293002303930298FFF754FF0346002BD4
S21400127018D0029B03F1004303332C2202FB03F336
S214001280254A13440393039B9B681946019822F052
S2140012905DFC0346002B01D0002301E06FF08B03BA
S2140012A005932CE00121019822F086FC0346002BD2
S2140012B002D16FF087032BE00023049312E0049B17
S2140012C02C2202FB03F3144A13440393039B9B68EC
S2140012D01946019822F03AFC0346002B06D1049BDF
S2140012E001330493049B022BE9D900E000BF049B62
S2140012F0022B01D8002301E06FF08B030593059BBA
S214001300002B01D0059B03E0009B039A1A60059B07
S214001310184607B05DF804FB6C130020034B01224F
S21400132083F8842000231846704700BF6C13002003
S21400133000B583B00023019310E0019B2C2202FB32
S21400134003F30C4A1344009304210098FFF7F4FEBD
S214001350009821F0E6FA019B01330193019B022BD2
S214001360EBD9044B002283F8842000BF03B05DF85D
S21400137004FB00BF6C13002000B589B001900091FB
S2140013806FF096030793354B93F88430002B03D108
S2140013906FF08803079356E000230493049B05939D
S2140013A00023069320E0069B2C2202FB03F32B4A25
S2140013B013440393039B93F82030002B02D1039B26
S2140013C0059314E0049B002B0BD1039B5B68DBB2F8
S2140013D0002B06D0039B93F82030022B01D1039BF1
S2140013E00493069B01330693069B022BDBD9059BD1
S2140013F0002B11D1049B002B0ED0049B05930421D7
S2140014000598FFF799FE0790079B002B01D0079BD6
S21400141020E0059821F085FA059B002B10D0059B4F
S2140014200E4A9B1A9B100E4A02FB03F303F100437D
S214001430033B019A1360009B059A1A60002309E09B
S2140014406FF08C030793009B00221A60019B00221A
S2140014501A60079B184609B05DF804FB6C13002061
S214001460A38B2EBA00B587B00390029113468DF871
S21400147007306FF096030593029B00221A60444BD8
S21400148093F88430002B02D16FF088037BE002993A
S2140014900398FFF7DDFE0590059B002B1AD19DF8FB
S2140014A00730002B06D1029B1B68184622F0AEFBC5
S2140014B005900AE09DF80730012B06D1029B1B68B9
S2140014C005211846FFF738FE0590059B002B01D036
S2140014D0059B58E0059B13F18C0F01D0059B52E04D
S2140014E004AB02991846FFF747FF0590059B002BB3
S2140014F001D0059B47E0029B1B68039A9A60029BFB
S2140015001B6801225A606FF08B030593059B13F14D
S2140015108C0F05D1029B1B68184622F099FB05909C
S214001520059B002B12D0029B1B6804211846FFF770
S21400153003FE029B1B68184621F0F3F9059B13F186
S2140015408C0F1FD16FF0870305931BE0029B1B686F
S2140015500C33184622F007FB9DF80730002B06D107
S214001560029B1B68184622F051FB05900AE09DF886
S2140015700730012B06D1029B1B6805211846FFF792
S214001580DBFD0590059B184607B05DF804FB00BF21
S2140015906C13002000B587B003900291019200936F
S2140015A0009B0593059B0822284918462DF0D9FB79
S2140015B0059B08330021184620F0D5FD059B03F156
S2140015C00C02019B5B681946104620F0CCFD059B7B
S2140015D003F11002019B1B881946104620F0AEFD51
S2140015E0059B03F11202019B5B881946104620F00A
S2140015F0A5FD059B03F11402019BDB681946104606
S21400160020F0B1FD059B14331A1D019B1B6919467A
S214001610104620F0A8FD059B143303F10802019B39
S2140016205B691946104620F09EFD059B2033029903
S214001630184620F098FD059B2433029A0399184615
S2140016402DF08FFB00BF07B05DF804FB20FB020007
S21400165000B583B001900822074901982DF04DFB94
S2140016600346002B02D06FF0980300E000231846D4
S21400167003B05DF804FB00BF20FB020008B5044A77
S214001680044905480EF006FF0346184608BD00BF8D
S21400169098FB020050FB020028FB020000B587B052
S2140016A0019022F0DCFD0346154AA2FB03239B09AA
S2140016B00593059B002B1DD0124A059BB2FBF3F346
S2140016C00493049B002B17D0019B4FF47A7203FB04
S2140016D002F2049BB2FBF3F30393039B0A4AA2FBBA
S2140016E003235B080293029B002B06D00298FEF7AA
S2140016F027FD02E000BF00E000BF07B05DF804FB76
S214001700D34D621040420F00ABAAAAAA2DE9F043BF
S21400171083B024F056FC0190324B1B7883F0010313
S214001720DBB2002B55D0304B00221A602F4B002224
S2140017301A602F4B00221A8000F034FE012022F09F
S2140017406BFF22F0FCFF03462A4A1360294B1B68F6
S214001750002B04D1019824F044FC23233DE02649C5
S2140017604FF000024FF00003C1E90023214B1B6835
S2140017700022984691464FF000004FF00101424685
S2140017804B461FF02BFA1D4B1A601A4B1B680022A3
S2140017901E46174632463B464FF000004FF001010A
S2140017A01FF01CFA02460B46154B1A60114B1B68BD
S2140017B000221C46154622462B46124840F2E731C8
S2140017C01FF00CFA02460B460F4B1A60054B01221F
S2140017D01A70019824F005FC0023184603B0BDE8F3
S2140017E0F08300BFD32A0020041400200814002031
S2140017F07C2A00200014002070100020F81300201F
S214001800FC13002018FCFFFF0C14002000B58DB060
S214001810079006910592049300238DF82B30079BC2
S214001820002B01D1222345E00DF12B031946079822
S21400183000F086F89DF82B30002B01D0022339E00B
S21400184009AB1946069800F089F90B900B9B002B04
S21400185001D00B9B2EE000F017F90246069B03FB17
S21400186002F2164BA3FB02139B094FF47A7101FB9D
S21400187003F3D31A9BB2C3F57A739AB2079B9A8383
S214001880079B9B8BB3F57A7F02D1079B00229A8336
S214001890079B0022DA830999099ABDF83C30029327
S2140018A09DF838300193049B0093059B079800F041
S2140018B0A3FC034618460DB05DF804FBD34D62103A
S2140018C000B587B0019000238DF81730019B002BE0
S2140018D001D122232EE024F05EFB049000F054FC9D
S2140018E0164B1B68019A9A4202D101238DF81730D5
S2140018F0019800F0E9FB0390039B002B04D00498AA
S21400190024F055FB039B15E09DF81730002B06D0FE
S2140019100A4B1B68002B02D000F010FC06E0074BB9
S2140019201B68002B02D1022000F0D6FD049824F09C
S2140019303EFB0023184607B05DF804FB04140020A5
S21400194000B585B001900091019B002B02D0009B52
S214001950002B01D1222322E0009B00221A7024F0E3
S21400196030FB0290104B1B6803930AE0039A019B1E
S2140019709A4203D1009B01221A7002E0039B9B68E7
S2140019800393039B002B06D0009B1B7883F0010378
S214001990DBB2002BEAD1029824F023FB0023184682
S2140019A005B05DF804FB00BF0414002000B587B046
S2140019B003460091ADF806300023049324F001FBA3
S2140019C003901F4B1B6805932EE0059B5B69049AEA
S2140019D013440493059BDB88BDF806209A4203D087
S2140019E0BDF80630FF2B1CD122F009FE0246154B2F
S2140019F01B68D31A049A9A4209D922F000FE0246BE
S214001A00104B1B68D31A049AD31A049301E00023E0
S214001A100493009B049A1A60039824F0E2FA0023C9
S214001A2009E0059B9B680593059B002BCDD1039889
S214001A3024F0D7FA1B23184607B05DF804FB00BF56
S214001A40041400200814002000B583B00C4B1B784B
S214001A508DF807309DF80730002B0BD022F0D1FC14
S214001A600246084B1B689B69D31A022B02D9002337
S214001A708DF807309DF80730184603B05DF804FB74
S214001A80D42A002004140020014B1B681846704717
S214001A900014002030B585B000F01CF8CDE9020136
S214001AA0DDE9022309498A4273F1000307D3DDE921
S214001AB002230749541843F1FF35CDE90245029B3E
S214001AC00193019B184605B030BD00BF807EAA83F7
S214001AD08081557C2DE9F04387B0002303930023D3
S214001AE0029322F08CFD0390FFF7CEFF029024F0C5
S214001AF068FA0190039A029BB2FBF3F300221C469D
S214001B001546144BD3E9002314EB020845EB0309F2
S214001B10CDE90489039B029AB3FBF2F2029901FB1A
S214001B2002F29A1A0C4B1B681344029A9A4206D881
S214001B30DDE90423561C43F10007CDE9046701984C
S214001B4024F04FFADDE904231046194607B0BDE835
S214001B50F08300BF70100020F41300202DE9F0433E
S214001B6083B001900091184909680198884225D8E9
S214001B70019900200E4607461449096800200C46C5
S214001B80054604FB07F006FB05F10144A6FB04230B
S214001B9019440B4640F2E73112EB010843F1000905
S214001BA04FF47A724FF00003404649461FF016F88D
S214001BB002460B46009B1A60002300E021231846CD
S214001BC003B0BDE8F08300BF0C1400200014002012
S214001BD0014B1B68184670470C1400202DE9F04F87
S214001BE08DB0099000230B93504B1B68002B00F020
S214001BF098804E4B1B68184622F025FC0346002BA7
S214001C004FD0099B002200930192DDE90045224651
S214001C102B464FF000004FF00001590141EAD26117
S214001C20500102460B462146561A294663EB010729
S214001C304FF000024FF00003BB0043EA9673B20079
S214001C4016461F462346F31804932B4647EB03031A
S214001C5005934FF000024FF00003DDE904452946E6
S214001C60CB00214643EA51732146CA0014461D465E
S214001C702E4B1B68184622F0D4FB0346C3F1200106
S214001C80A3F1200224FA03F805FA01F148EA010854
S214001C9025FA02F248EA020825FA03F943460B93AE
S214001CA03FE0099B00229A46934652465B464FF019
S214001CB000004FF00001590141EAD261500102468E
S214001CC00B46B2EB0A0463EB0B054FF000024FF035
S214001CD00003AB0043EA9473A20014461D4614EBBF
S214001CE00A03069345EB0B0307934FF000024FF0F1
S214001CF00003DDE906452946CB00214643EA517339
S214001D002146CA0010461946084B1B68002202935B
S214001D100392DDE902231EF061FF02460B461346DE
S214001D200B930B9B18460DB0BDE8F08F00140020F7
S214001D302DE9F04F95B003468DF827309DF82730F3
S214001D4003F00103002B3ED0FFF79EFE0A90A24B45
S214001D501A68A24B1B681A449F4B1A609E4B1A685F
S214001D600A9B93420ED89E4BD3E90023541C43F1A2
S214001D7000059B4BC3E90045974B1A680A9BD21A8D
S214001D80954B1A60974B1B6800221E461746944BCD
S214001D90D3E90023B118009147EB03030193904B5E
S214001DA0DDE90012C3E900128F4B1B889BB201339A
S214001DB09AB28D4B1A8000F0E7F98C4B1B68002B0B
S214001DC001D000F0BBF99DF8273003F00203002B8A
S214001DD000F0FE8000231293002311930023ADF839
S214001DE0423024F0EEF8139000F0CEF9CAE07F4BB4
S214001DF01B680F937D4B1B68129300230E934FF0C6
S214001E0000024FF00003CDE90C2300238DF82F309D
S214001E100AE0129B1A790F9B1B799A4201D90F9BF5
S214001E2012930F9B9B680F930F9B002B03D00F9B67
S214001E305B69002BEDD0139824F0D3F8129B1B6936
S214001E40002B23D0129B1B69002202930392DDE92C
S214001E500234CDE90C3422F0D2FB0246129B9B6979
S214001E60D31A0E930E9BDA1798469146DDE90C239B
S214001E70424573EB090309DA01238DF82F30129BD4
S214001E809A69129B1B691A44129B9A619DF82F301F
S214001E9083F00103DBB2002B08D024F092F81390F5
S214001EA0129800F011F9139824F09BF8129B1B6906
S214001EB0002B50D09DF82F3083F00103DBB2002BAF
S214001EC049D00E9BDA179A469346DDE90C23B2EB0F
S214001ED00A01049163EB0B030593DDE90434CDE9B5
S214001EE00C34129B9B8B002B23D0129BDA8B129BFD
S214001EF09B8B13449AB2129BDA83129BDB8BB3F54F
S214001F007A7F16D3129BDB8BA3F57A739AB2129B59
S214001F10DA83DDE90C23511E069143F1FF33079364
S214001F20DDE90634CDE90C34129B9B695A1E129BE0
S214001F309A6124F046F813900C9B1946129800F00C
S214001F4059F8129B9A69129B1B691A44129B9A6154
S214001F50139824F046F8129BDB88ADF84230119BAC
S214001F6001331193129BDB68002B06D0129BDB68B3
S214001F70129A126811461298984724F022F8139085
S214001F8000F002F9194B1B68002B05D0174B1B6895
S214001F905B69002B3FF42BAF154B00221A70119B88
S214001FA0012B08D1BDF8423003F00203002B02D00B
S214001FB00F4B01221A700D4B1B68002B02D000F04D
S214001FC0BDF802E0022000F087FA139824F009F822
S214001FD000BF15B0BDE8F08FF4130020F813002002
S214001FE070100020FC1300207C2A0020041400201F
S214001FF0D52A002000B587B001900091009B05937C
S214002000019BDB88002B0AD100F0A4FC0290059A05
S214002010029B9A4203D2029B059322F0ADFB019BE2
S214002020059A5A61274B1B68002B40D00023049367
S214002030244B1B6803930CE0039B5B69059AD31A39
S2140020400593019B059A5A61039B0493039B9B6827
S2140020500393039B002B13D0039B5B69059A9A425C
S214002060EAD2039B5B69002BE6D0039B5B69059A6B
S2140020709A4205D1019B1A79039B1B799A42DBD8B9
S214002080049B002B03D0049B019A9A6002E00D4A41
S214002090019B1360019B039A9A60039B002B0CD054
S2140020A0039B5A69059BD21A039B5A6105E0054AB1
S2140020B0019B1360019B00229A6000BF07B05DF889
S2140020C004FB00BF0414002084B001900023039397
S2140020D0194B1B68029304E0029B0393029B9B68C8
S2140020E00293029B002B03D0029A019B9A42F3D1E3
S2140020F0029A019B9A4201D0022319E0039B002B0F
S21400210004D0019B9A68039B9A6003E0019B9B683E
S214002110094A1360019B9B68002B08D0019B9B68B3
S2140021205969019B5A69019B9B680A445A610023BE
S214002130184604B0704700BF0414002000B583B0F2
S2140021400F4B1B685B69002B0DD00D4B1B685A6943
S2140021500C4B1B6813440193022022F05DFA019891
S21400216000F066F905E0022022F056FA022022F07E
S21400217075FA00F0A1F800BF03B05DF804FB00BFDD
S214002180041400200814002000B585B022F037FAA9
S2140021900190174B1B680393164B1B68019AD31AC2
S2140021A0029318E0039B5B69029A9A4208D8039B45
S2140021B05A69029BD21A039B5A610023029307E0D6
S2140021C0039B5B69029AD31A0293039B00225A610F
S2140021D0039B9B680393039B002B02D0029B002B60
S2140021E0E0D1044A019B136000BF05B05DF804FB14
S2140021F0041400200814002000B587B00390029154
S21400220001920093039B9DF824201A71039B089A61
S2140022101A60039B00229A60039B019A1A61039B33
S214002220009ADA60039BBDF82820DA80019B002B19
S21400223007D122F0E4F90246029B1A44039B9A61F6
S21400224006E022F0DCF90246019B1A44039B9A61E1
S214002250029B002B15D1039B00225A61039BDB686F
S214002260002B06D0039BDB68039A1268114603987E
S2140022709847019B002B02D0019B029301E00023AC
S21400228013E023F088FE0590FFF77EFF029903987F
S214002290FFF7B0FE074B1B68039A9A4201D1FFF77F
S2140022A04DFF059823F083FE0023184607B05DF81F
S2140022B004FB00BF0414002082B0134B1B6801937C
S2140022C000230093114B00221A7014E0019BDB8858
S2140022D003F00203002B03D00C4B01221A700FE010
S2140022E0019B9B680193019B002B08D0019B5B69B7
S2140022F0009A13440093009B012BE7D900E000BF2F
S21400230000BF02B0704700BF04140020D42A00208B
S21400231000B583B023F055FE0190064B1B788DF870
S2140023200330019823F05DFE9DF80330184603B095
S2140023305DF804FBD52A002082B003468DF80730EE
S2140023409DF90730002B0CDB9DF8073003F01F02C9
S21400235005499DF907305B09012000FA02F241F8B1
S214002360232000BF02B0704700E100E082B00346C1
S2140023708DF807309DF90730002B0DDB9DF80730F0
S21400238003F01F0206499DF907305B09012000FA99
S21400239002F2603341F8232000BF02B0704700BF4E
S2140023A000E100E000B585B01F4A02AB92E80300EA
S2140023B01860043319801D4A6B4692E803001860C3
S2140023C00433197001213E2004F0D4F800238DF860
S2140023D00830002022F0E4F80346DBB28DF80C301B
S2140023E002AB184624F026F800238DF800306B4622
S2140023F01946012006F008FB40F2FF3022F09BF859
S21400240040F2FF3022F08BF8002022F077F801200F
S21400241023F0DAFF0C20FFF7A9FF0C20FFF78CFF54
S21400242000BF05B05DF804FBC4FB0200CCFB020055
S21400243000B587B00190019B059323F0ACFD049096
S21400244022F0DDF8039022F0E0F8029022F08EF8F9
S214002450034603F04003002B0AD10399029822F0AA
S2140024607BF90346032B03D8029A039B9A421BD19F
S2140024700399059822F070F90346022B02D8039BB5
S21400248003330593059BB3F1FF3F2CBF01220022C7
S21400249052429B1A0593059B013B1946012022F0E8
S2140024A014F8022022F0B8F8049823F080FD094BB7
S2140024B01B78002B0AD04FF0B043DB6B4FF0B042D6
S2140024C043F00203D363034B00221A7000BF07B029
S2140024D05DF804FB0E0D002000B585B003468DF8B0
S2140024E00730002303939DF8073003F00103002B09
S2140024F003D0039B43F0010303939DF8073003F0DA
S2140025000203002B0ED0039B43F040030393094BBA
S21400251001221A704FF0B043DB6B4FF0B04223F04D
S2140025200303D363039822F006F800BF05B05DF8F6
S21400253004FB00BF0E0D002008B5074BD3F8403251
S21400254003F00303013B012B03D8022022F042F8DC
S21400255000E000BF00BF08BD0080005000B583B09B
S21400256023F019FD0190194B1B7883F00103DBB2B1
S214002570002B19D000230093FFF7C8F80090009BAB
S214002580002B04D0019823F012FD009B1AE010489F
S21400259024F064F9FFF7D0FF0E4B00221A60FFF715
S2140025A073FA03460C4A136000F032FC22F038F946
S2140025B003460A4A1360054B01221A70019823F05D
S2140025C0F6FC0023184603B05DF804FBD62A00206C
S2140025D01014002040140020141400203C14002086
S2140025E000B583B022F0D6F80190AFF3008024F057
S2140025F0FAFA034683F00103DBB2002B05D0AFF3F3
S2140026000080019822F0D2F8D5E06C4B1B78002BA6
S21400261005D0002000F01EFB684B00221A7000F068
S2140026201BFA03468DF803309DF80330184600F079
S21400263099FA00F011FA03468DF803309DF803303E
S214002640012B08D95E4B1B7883F00103DBB2002B0D
S21400265001D000F067FD5B4B1B789DF803209A4283
S21400266015D0594B00221A70584B1B7883F0010383
S214002670DBB2002B07D0534B1B789DF80320114686
S214002680184600F003FA4F4A9DF8033013704E4B7D
S2140026901B78002B08D04B4B1B78022B04D14A4BDF
S2140026A000221A702BF066FF9DF80330012B12D91A
S2140026B0434B1B7883F00103DBB2002B0BD0444B5B
S2140026C01B78002B04D100F0C3FD424B01221A7088
S2140026D03B4B01221A703B4B1B78184622F080F8C1
S2140026E03A4B1B78002B03D03B4B1A78354B1A70AD
S2140026F0AFF30080019822F059F822F04BF80190D1
S214002700364B1B78002B11D0344B00221A702D4B01
S2140027101A78314B1B789A4208D12A4B01221A703C
S2140027202D4B1B780121184600F0B0F92C48FFF716
S214002730C7F824F084FA0346002B7FF466AF224BDA
S21400274000221A701E4B1B78002B23D01F4B002232
S2140027501A70204B1B78002B0ED000F081FD1D4B0D
S21400276000221A7008E0012022F03AF8019822F0C0
S2140027701DF822F00FF80190002000F0FBFD034644
S21400278083F00103DBB2002BEDD100F007FE0C4B0B
S21400279000221A70002000F0E5F90A4B1B78002191
S2140027A0184600F073F9074B00221A70AFF300804A
S2140027B0019821F0FBFF03B05DF804FBDD2A002042
S2140027C0DC2A0020D72A0020D92A0020DB2A002075
S2140027D0D82A0020DE2A0020DA2A0020E12A00205B
S2140027E01C14002000B585B003460A468DF8073055
S2140027F013468DF806309DF80730002B02D09DF862
S2140028000730022B9DF80730013B2D4AD35CFF2B87
S21400281005D19DF8063083F00103DBB2002B9DF84E
S2140028200730013B264AD35C002B02D19DF80630C8
S214002830002B9DF80730013B214AD25C9DF80630FC
S214002840002B01D0012100E0FF219DF80730013B5D
S2140028500A44D1B21A4AD1549DF80630002B2BD028
S214002860184B1B78012B27D900F0F6F803468DF895
S2140028700F309DF80F30012B02D800F029FA09E03E
S214002880104B1B78032B05D19DF80F30022B01D17E
S21400289021F0CEFF0B4B1B789DF80F209A420BD0F1
S2140028A0084B1B789DF80F201146184600F0EEF8EE
S2140028B0044A9DF80F30137000BF05B05DF804FBA6
S2140028C018140020D72A002000B585B003468DF8DE
S2140028D0073023F060FB03901B4B1B78FF2B05D1C2
S2140028E09DF8073083F00103DBB2002B164B1B78F4
S2140028F0002B02D19DF80730002B144B1B78022BBF
S21400290005D99DF8073083F00103DBB2002B9DF854
S2140029100730002B01D0012200E0FF220A4B1B7873
S2140029201344DAB2084B1A70074B1B78002B0CBF07
S21400293001230023DAB2064B1A70039823F037FB04
S21400294000BF05B05DF804FBD82A0020D72A002077
S214002950D92A002000B583B00023019323F01BFB87
S21400296000900D4B1B78012B04D8009823F01FFB1A
S214002970019B0DE000F02AF80346019300F04AFDA3
S2140029800246019B13440193009823F010FB019B21
S214002990184603B05DF804FBD72A002000B585B0C2
S2140029A001900091019B009A5A6023F0F4FA03907C
S2140029B0019B1946044823F059FF039823F0F7FAC1
S2140029C000BF05B05DF804FB1014002082B0034B76
S2140029D01B680193019B184602B070474014002004
S2140029E082B00190074B1B68019A02FB03F303F5C4
S2140029F0742303F23F23044AA2FB03239B0C1846CE
S214002A0002B070471414002083DE1B4300B583B069
S214002A1023F0C1FA01900F4B1B788DF803300D4B55
S214002A2000221A70019823F0C2FAFFF771FC0346E1
S214002A301A469DF803301343DBB2002B14BF012364
S214002A4000238DF803309DF80330184603B05DF878
S214002A5004FB00BFE02A002082B00123019302E0BD
S214002A60019B01330193019B022B05D8019B013B7F
S214002A70054AD35C002BF3D0019B8DF803309DF8FC
S214002A800330184602B070471814002000B585B011
S214002A9003460A468DF8073013468DF806300023A5
S214002AA002939DF80630032B16D801A252F823F0A5
S214002AB0C12A0000C72A0000CD2A0000D32A000041
S214002AC00123029308E00423029305E010230293F7
S214002AD002E04023029300BF9DF80730032B1FD867
S214002AE001A252F823F000BFF92A0000032B0000D1
S214002AF00D2B0000172B0000029B43F002030293ED
S214002B000EE0029B43F00803029309E0029B43F0A9
S214002B102003029304E0029B43F08003029300BF6D
S214002B200F4B1B68039312E0039B5B681A68029BBB
S214002B301340002B08D0039B5B685B689DF806106B
S214002B409DF8072010469847039B1B680393039B3A
S214002B50002BE9D100BF00BF05B05DF804FB00BF45
S214002B601014002000B58BB003468DF80F309DF88A
S214002B700F30032B60DC022B0EDA002B01D0012B6A
S214002B805AE02F4B1B78002B53D0002000F062F841
S214002B902B4B00221A704CE005AB19460020FEF7BE
S214002BA005FF0890089B002B45D1059A254B1B680E
S214002BB09A4206D8012000F04DF8214B01221A70E7
S214002BC039E000230793002306931F4B1B680693E8
S214002BD0079A069B1344079300F01CFC0246079BCB
S214002BE013440793059A079B9A4206D8012000F0E3
S214002BF031F8134B01221A701DE00023ADF8263081
S214002C0000F02EFC0346002B02D00423ADF826303D
S214002C10059A079BD11ABDF8263043F002039BB2F3
S214002C200193002300930023084A094821F068FB1B
S214002C3001E000BF00E000BF00BF0BB05DF804FB82
S214002C40DD2A00203C14002040140020C52D000082
S214002C501C14002000B583B003468DF80730194BCE
S214002C601B78FF2B05D19DF8073083F00103DBB2FC
S214002C70002B144B1B78002B02D19DF80730002B3D
S214002C80104B1B789DF80720002A01D0012200E097
S214002C90FF221344DAB20B4B1A709DF80730002B54
S214002CA00CD0094B1B78012B08D9084B1B7883F0F6
S214002CB00103DBB2002B01D000F04EF800BF03B0DA
S214002CC05DF804FB18140020D72A0020DB2A002019
S214002CD000B583B023F05FF901901B4B1B78002BE7
S214002CE02AD01A4B1B7883F00103DBB2002B05D0E9
S214002CF0164B01221A70164B00221A70154B1B78C1
S214002D00002B04D000F0ACFA124B00221A70019887
S214002D1023F04DF9012000F02DFB23F03CF9019043
S214002D200A4B1B78002B04D000F038FB074B002220
S214002D301A70054B00221A70019823F038F900BF6C
S214002D4003B05DF804FB00BFDC2A0020DF2A002069
S214002D50DB2A0020DE2A002008B5154B1B78002B46
S214002D6024D0144B1B78002B04D000F079FA114BBA
S214002D7000221A70002000F0FDFA0346002B0ED049
S214002D8000F00CFB0A4B00221A700B4B1B7801213B
S214002D901846FFF77BFE084B01221A7006E0074B29
S214002DA001221A70044B1A78054B1A7000BF08BD32
S214002DB0DC2A0020DE2A0020D72A0020DB2A00207A
S214002DC0DA2A002000B585B00190009123F0E3F8E0
S214002DD00390084B1B78002B03D0039823F0E7F8EA
S214002DE004E0FFF7B9FF039823F0E1F805B05DF8BB
S214002DF004FB00BFDF2A0020044B1B69034A23F0B4
S214002E000403136130BF00BF704700BF00ED00E051
S214002E102DE9F04F8DB000238DF8243009AB18460D
S214002E2004F0C4FE002000F039F9924B1B6F03F04B
S214002E300702914B1A608F4BD3F8003103F0030260
S214002E408E4B1A608B4B03F580531A464FF40023C3
S214002E505366884B03F580531A464FF40033536687
S214002E60874B9B6903F00203002B14BF012300234A
S214002E70DBB2844A1370804B1B68032B06D07D4B55
S214002E80D3F8203103F00303022B01D1012300E025
S214002E90002303F00103DBB27B4A1370754BD3F8B3
S214002EA0243103F00703022B0CBF01230023DBB2FF
S214002EB01A46754B1B781343002B14BF01230023BF
S214002EC0DBB2714A13704FF4C870FFF789FD0246F3
S214002ED06E4B1A6000238DF82F3012E09DF82F10ED
S214002EE06A4B1A686A4B43F821206A4B1A68674B8C
S214002EF01B681A44674B1A609DF82F3001338DF813
S214002F002F309DF82F30092BE8D95E4B1B78002B0D
S214002F101BD05D4B1B7883F00103DBB2002B14D073
S214002F20544BD3F8003103F00303012B0CBF0123ED
S214002F300023DBB21A46544B1B781343002B14BFF6
S214002F4001230023DBB2504A13704E4B1B78002B34
S214002F5000F0838000230A93464BD3F8003103F039
S214002F600303032B0ED0032B10D8012B02D0022B09
S214002F7004D00BE006F0A4FC0A9008E006F0C2FCC1
S214002F800A9004E023F0BDFC0A9000E000BF0A9B14
S214002F90002B62D03A4BDB68C3F30B035A1C134674
S214002FA09B00134400229846914642464B464FF0FB
S214002FB000004FF00001590141EAD261500102467B
S214002FC00B46B2EB080463EB09054FF000024FF026
S214002FD000036B0243EAD453620214461D4614EB08
S214002FE0080645EB09074FF000024FF00003BB014F
S214002FF043EA9663B201911B069163EB07030793BE
S214003000DDE906120B4613EB080A134643EB090BE1
S2140030100A9B013B002200930192DDE900120B4659
S2140030201AEB0303029313464BEB030303930A9B2B
S214003030002204930592DDE90423DDE902011DF078
S214003040CDFD02460B4613461846FFF7C9FC02465E
S214003050114B1B681344104A13601F20FFF7C0FC77
S21400306002460D4B1B6813440B4A136000BF0DB09D
S214003070BDE8F08F00800050501400204C14002053
S21400308000C00150E32A0020E22A00208814002015
S2140030905C140020841400205414002000B585B071
S2140030A003468DF807301D4B1B789DF807209A4283
S2140030B030D000238DF80C3002238DF80D309DF8AB
S2140030C00730002B03D002238DF80D3002E00023DA
S2140030D08DF80D3003AB184604F07AFD9DF80730E6
S2140030E0002B09D04020FFF77BFC02460C4B1B68E8
S2140030F09B1A0B4A136008E04020FFF771FC02465B
S214003100074B1B681344064A1360044A9DF80730B1
S214003110137000E000BF05B05DF804FB0F0D002043
S2140031205414002008B5094BD3F8203103F00303EC
S214003130074A1360054BD3F8243103F00703054A0A
S214003140136022F07DFF00BF08BD00BF0080005066
S214003150441400204814002008B5154B1B78002B9B
S2140031601ED0134B00221A70124B1B6F23F007035E
S214003170104A43F0010313670E4BD3F820310D4A73
S21400318043F00303C2F820310A4BD3F8243123F06E
S2140031900703084A43F00303C2F8243121F01BFB5F
S2140031A0054B03F500531A460123536700BF08BDBD
S2140031B0E42A00200080005000C0005008B51E4BD6
S2140031C003F580531A46012353671C4B1B78002BCC
S2140031D030D0022021F054FA0346002B2AD0FEF706
S2140031E033FC0346002B25D0134B9B6D03F4803332
S2140031F0002B05D0124B1B6803F00203002B18D1DE
S2140032000D4B9B6D03F00103002B12D10D4B0122D9
S2140032101A7021F0F6F803460B4A13600B4B1B6F2F
S21400322023F00703094A43F00303136721F0D3FA98
S21400323000E000BF08BD00BF00C00050E22A00202A
S2140032405CC00050E52A0020581400200080005082
S214003250024B01221A7000BF704700BFE42A00200C
S21400326000B583B0384B1B7883F00103DBB2002B2C
S21400327064D1364B1B7883F00103DBB2002B20D0E1
S214003280334B9B6D03F48033002B05D0314B1B680A
S21400329003F00203002B53D12D4B9B6D03F001036B
S2140032A0002B4DD121F0ADF803462B4A13602B4B73
S2140032B01B6F23F00703294A43F00303136721F02B
S2140032C08AFA21F09EF80246234B1B68D31A019314
S2140032D0234B1B68234A12781146234A52F82120B2
S2140032E01146019A8A1A9B1A1D4A13601D4B1B78B9
S2140032F019461D4A019B42F82130194B1B680933B9
S2140033001A4AA2FB0323DB08194A1360154B1B78E5
S2140033100133DAB2134B1A70124B1A78134BA3FB15
S2140033200213D9080B469B000B445B00D31ADAB293
S2140033300C4B1A70054B00221A7002E000BF00E02A
S21400334000BF03B05DF804FBE22A0020E52A002057
S21400335000C000505CC00050581400200080005090
S21400336084140020E62A00205C140020CDCCCCCCAF
S2140033708814002082B003468DF80730064B1B7871
S21400338083F00103DBB2002B01D0012300E0012310
S214003390184602B0704700BFE22A002008B522F0A7
S2140033A055FE164B1B6F23F00702154B1B6813497F
S2140033B013430B67114BD3F8203123F00302114B54
S2140033C01B680E491343C1F820310C4BD3F8243147
S2140033D023F007020C4B1B6808491343C1F824313D
S2140033E00A4B1B78002B05D0094B03F500531A46F1
S2140033F00123936221F0EFF900BF08BD0080005062
S214003400501400204414002048140020E22A002013
S21400341000C0005082B0002301930A4B1B78002B9B
S21400342007D0094B1B680193019BDB08019A1344E4
S2140034300193064B1B68019A13440193019B18469F
S21400344002B07047E22A002088140020541400209E
S214003450024B01221A7000BF704700BFE22A00200C
S214003460014B1B7818467047E22A0020BFF34F8FA7
S21400347000BF064BDB6803F4E0620449044B1343C9
S214003480CB60BFF34F8F00BF00BFFDE700ED00E04D
S2140034900400FA0582B00190BFF35F8F00BF0A4AAE
S2140034A0019B43F001035360084B5B6A074A43F4F1
S2140034B080335362BFF34F8F00BFBFF36F8F00BFE1
S2140034C000BF02B0704700BF90ED00E000ED00E0E6
S2140034D0BFF35F8F00BF0A4B5B6A094A23F4803351
S2140034E05362084B5B68074A23F001035360BFF33F
S2140034F04F8F00BFBFF36F8F00BF00BF704700BF86
S21400350000ED00E090ED00E000B583B003460A460B
S2140035108DF8073013468DF806309DF806209DF886
S21400352007301946034821F085F900BF03B05DF85F
S21400353004FB00BF90ED00E000B585B0039002915B
S2140035400192019B029A0399034821F0ACF900BF4F
S21400355005B05DF804FB00BF90ED00E000B585B057
S2140035600023039300230293FFF7B2FF4FF00053AC
S21400357003932C4A2C4B9A4204D02B4B23F01F0368
S214003580203B01E04FF080430293A0210020FFF78C
S214003590BBFF039A029B9A4215D8039B23F01F0396
S2140035A043F003030193214B1868029B23F01F038B
S2140035B043F001031A460199FFF7BEFF1B4B1B6839
S2140035C001331A4A1360174A174B9A421CD0154B00
S2140035D01F3323F01F030393154B0293039B23F023
S2140035E01F0343F003030193104B1868029B23F05C
S2140035F01F0343F001031A460199FFF79DFF0B4B8B
S2140036001B680133094A13600420FFF743FFBFF32A
S2140036104F8F00BFBFF36F8F00BF00BF05B05DF8D0
S21400362004FB00BF681000202C0D00208C14002026
S214003630E0FFFF3F00B58DB003900291019200239A
S21400364009930023089300230B93FFF741FF002301
S2140036508DF82B300023079300230693019B1F2B26
S21400366078D9039B03F01F03002B04D0039B23F0A1
S2140036701F03203300E0039B0993029B03F01F0304
S214003680002B03D0029B23F01F0300E0029B08934D
S21400369000238DF82A3037E0354A9DF82A309360AB
S2140036A0334BDB6823F01F030793314B1B6923F072
S2140036B01F030693099A079B9A4209D1089A069B0C
S2140036C09A4205D101238DF82B3000230B930CE092
S2140036D0099A069B9A4208D8089A079B9A4204D3EE
S2140036E001238DF82B3028230B939DF82B30012BCC
S2140036F011D01F4B9B681E4A23F0FF0393609DF872
S2140037002A3001338DF82A309DF82A20194B1B6881
S2140037109A42C1D300E000BF9DF82B30002B19D190
S21400372001210120FFF7F0FE099B23F01F0343F061
S214003730030305930F4B1868089B23F01F0343F001
S21400374003031A460599FFF7F7FE0A4B1B68013379
S214003750084A13600420FFF79DFEBFF34F8F00BF9B
S214003760BFF36F8F00BF0B9B18460DB05DF804FBD0
S21400377090ED00E08C14002000B583B0074A6B463D
S21400378092E8030083E803006B46184604F0CEFB7D
S2140037900023184603B05DF804FB00BFD4FB02000C
S2140037A000B583B00A4B5B6F094A43F001035367C9
S2140037B06B4600221A601A7100238DF804306B469F
S2140037C0184604F083FA0023184603B05DF804FB9D
S2140037D00040005030B597B02C4B0BAC1D460FCDBB
S2140037E00FC40FCD0FC495E8030084E80300002340
S2140037F012934FF0FF331593254BD3F84C3103F457
S2140038000023002B04D1224BD3F85031DBB21593A2
S214003810159BB3F1FF3F08D11E4B1B884FF6FF7276
S214003820934202D01B4B1B881593159BB3F1FF3FA9
S21400383001D18C231593159BB3F1FF3F18D0159B30
S214003840DBB28DF8453003F0A9FC0246159B134405
S2140038501593159B002B02DA0023159304E0159BA5
S214003860FF2B01DDFF231593159BDBB28DF844304B
S214003870094806F02BF80BAB184603F025FB322060
S21400388003F066FD0023184617B030BDDCFB0200CF
S2140038900080E00F0001E00F00F0490230B587B06D
S2140038A00C4B01AC1D460FCD0FC42B6823600023C4
S2140038B0039319238DF805300423029301AB1846B1
S2140038C003F0D2FC322003F035FD0023184607B083
S2140038D030BD00BF04FC020082B0034600918DF8A4
S2140038E007309DF90730002B0ADB009BDAB20C4943
S2140038F09DF907301201D2B20B4483F800230BE087
S214003900009BDAB207499DF8073003F00F03043B2B
S2140039101201D2B20B441A7600BF02B0704700BF45
S21400392000E100E000ED00E0084B03F580531A4686
S2140039304FF400539366054B03F580531A46032352
S214003940C2F8603200231846704700BF008000505F
S214003950084B03F500531A464FF400539366054B85
S21400396003F500531A460323C2F8603200231846B4
S214003970704700BF0080005010B582B001900198DB
S21400398020F0DCFF0346012202FA03F4019820F03F
S214003990CAFF03460F4A52F8232021460A430D4920
S2140039A041F82320019820F0C9FF0346012202FABD
S2140039B003F3DC43019820F0B6FF0346064A52F8AC
S2140039C0232021460A40044941F8232000BF02B0C4
S2140039D010BD00BF90140020A414002010B586B0BF
S2140039E00190019820F0AAFF0346012202FA03F490
S2140039F0019820F098FF0346164A52F823202146E5
S214003A000A43144941F82320002305930023049316
S214003A1009E0114A049B52F82330059A1344059393
S214003A20049B01330493049B042BF2D9059B002BC3
S214003A300DD10023039307E0064A039B002142F8BA
S214003A402310039B01330393039B042BF4D900BF7D
S214003A5006B010BDA41400209014002010B582B04B
S214003A600190019820F06AFF0346012202FA03F44F
S214003A70019820F058FF0346054A52F823202146B5
S214003A804A40034941F8232000BF02B010BD00BFE2
S214003A909014002010B582B00190019820F043FFEA
S214003AA00346094A52F82340019820F047FF034690
S214003AB024FA03F303F00103002B14BF01230023B1
S214003AC0DBB2184602B010BD9014002010B582B0CC
S214003AD00190019820F027FF0346094A52F8234038
S214003AE0019820F02BFF034624FA03F303F00103AA
S214003AF0002B14BF01230023DBB2184602B010BD12
S214003B00A414002082B00190019BA3F50622A2F621
S214003B10FF42074BA3FB0213D9080B46DB010B44FD
S214003B20D11A01F5062303F55063184602B0704714
S214003B30813FE00F00B583B0CDE90001DDE900016B
S214003B4020F004FF0146084BA3FB0123DA081346C6
S214003B50DB011344CA1A02F5062303F55063184620
S214003B6003B05DF804FB00BF813FE00F00B5A9B0CD
S214003B7012AB4022002118462BF0E9F802AB402297
S214003B80002118462BF0E3F82A4B279347E0279BA3
S214003B9010332693269B284A934201D9264B269318
S214003BA0264B1868269B013B12A90093279B1022E0
S214003BB02AF032F92390002325930BE0259B9B00E7
S214003BC0A0336B4453F8583C1846FFF7D5FE259BA8
S214003BD001332593259A239B9A42EFD3174B1868F7
S214003BE0269B013B02A90093279B10222AF01DF971
S214003BF02290002324930BE0249B9B00A0336B446D
S214003C0053F8983C1846FFF7E9FE249B01332493AB
S214003C10249A229B9A42EFD3279B10332793279B05
S214003C20074A9342B3D9074B01221A7000BF29B046
S214003C305DF804FB006D080000710800CC0A002047
S214003C40FF700800E72A002000B58BB005900491AD
S214003C5003920293039B002B02D0039B00221A6060
S214003C60029B002B02D0029B00221A601D4B186894
S214003C70102300930023049A059915F0CDFF0990B0
S214003C80099B002B01D0099B27E0039B002B02D049
S214003C90039B10221A60049B1B68134A934201D0B0
S214003CA0124B1AE0039B002B16D0029B002B13D05E
S214003CB00C4B186807AA029B059916F001F80890A5
S214003CC0089B002B01D0089B07E0029B1A68039B09
S214003CD01B68D21A029B1A60099B18460BB05DF847
S214003CE004FB00BFCC0A0020105D175EFFDF00F06B
S214003CF000B589B0CDE90201009313468DF8073070
S214003D000023069300230593DDE90201FFF712FF67
S214003D1005904E4B1B7883F00103DBB2002B09D0D5
S214003D2005F0A6F90346002B02D06FF0910389E058
S214003D30FFF71CFF0023049373E00598FFF7AAFE25
S214003D40034683F00103DBB2002B23D00598FFF770
S214003D50BDFE0346002B09D0069B002B01D1059B18
S214003D6006930598FFF7CEFE059057E09DF80730BE
S214003D70002B0CD0069B002B04D00C9B069A1A60D6
S214003D8000235FE00C9B059A1A6000235AE06FF050
S214003D908B0357E00B9B0A9A00990598FFF754FF90
S214003DA00790079B2A4A934203D0079B294A9342CF
S214003DB00CD1294B1B680599184615F0C5FF0790CE
S214003DC0079B002B02D06FF08B033BE0079B002B7A
S214003DD006D0079B214A934202D06FF0910331E050
S214003DE0009BD3E90223DDE90201994208BF904215
S214003DF004D00598FFF786FE05900FE09DF8073083
S214003E00002B06D0009B5B68012B02D16FF0840369
S214003E1018E00C9B059A1A60002313E0049B0133FC
S214003E200493049B802B88D99DF80730002B07D07D
S214003E30069B002B04D00C9B069A1A60002301E018
S214003E406FF08B03184609B05DF804FBE72A0020E4
S214003E50FFDF00F011E000F0CC0A0020FEDF00F0EB
S214003E6000B58FB0CDE9060105920493059B002BA3
S214003E7005D0049B002B02D16FF086037FE0059BE4
S214003E8040F26C72934202D96FF0910377E0109B78
S214003E90012B05D0109B002B02D06FF085036EE03F
S214003EA06FF096030D9300230893059B0C930C9BD1
S214003EB010331946012020F097F90B900B9B002B2E
S214003EC002D16FF08C035AE00C9B10331A46002187
S214003ED00B982AF03CFF0B9B0A9320F020FD08ABC2
S214003EE0029300230193002300930A9B0122DDE93D
S214003EF00601FFF7FDFE0D900D9B002B07D00D9BD6
S214003F0013F18C0F2DD16FF08D030D9329E00A9BD2
S214003F101D4A1A600A99DDE90623C1E902230A9BB5
S214003F20109A5A60059B002B06D00B9B1033059AFF
S214003F30049918462AF015FF144B186808990C9B2C
S214003F4010330B9A15F0D0FD0990099B002B04D175
S214003F50089B1846FFF710FD04E06FF091030D93E1
S214003F6000E000BF0C9B10331A4600210B982AF085
S214003F70EEFE0B9820F04DF920F0D3FC0D9B184672
S214003F800FB05DF804FB00BF105D175ECC0A002082
S214003F9000B595B0CDE9060105920493049B002B6D
S214003FA005D0179B002B02D16FF0860383E0049B9D
S214003FB0002B11D0169B002B0BD0169BB3F1005F85
S214003FC007D3049BC3F1005303F50043169A9342AC
S214003FD002D26FF086036EE06FF0960313930CAB7D
S214003FE000221A605A609A60DA6000230B9300235E
S214003FF0129300230A9320F092FC0CAA09AB0293BA
S2140040000BAB01930AAB009313460022DDE90601D1
S214004010FFF76EFE1390139B002B48D10B9B129359
S214004020049B002B14D0059A129B9A4206D3129B2F
S214004030002B03D06FF08603139339E0129B002BFE
S2140040400ED1059B002B0BD06FF0860313932FE049
S214004050059A129B9A4203D96FF08603139327E0C2
S214004060129A059BD31A049A9A4205D9129A059B6E
S214004070D21A179B1A6002E0179B049A1A60104B1C
S214004080186809990A9A059B1A44179B1B6800939F
S2140040901346169A15F0C0FD1190119B002B03D005
S2140040A06FF09103139303E00023139300E000BF27
S2140040B020F037FC139B184615B05DF804FB00BFD4
S2140040C0CC0A002000B591B0CDE904016FF096034C
S2140040D00F930AAB00221A605A609A60DA600023D7
S2140040E009930023089320F01AFC0AAA07AB029350
S2140040F009AB019308AB009313460022DDE90401E7
S214004100FFF7F6FD0F900F9B002B20D10B9B012B8A
S21400411003D16FF084030F931AE0114B1B68079AC4
S2140041201146184615F010FE0E900E9B002B0AD175
S214004130079B1846FFF792FC079B1846FFF74EFCB6
S21400414000230F9304E06FF091030F9300E000BF8D
S21400415020F0E7FB0F9B184611B05DF804FB00BF8C
S214004160CC0A0020BFF34F8F00BF064BDB6803F47A
S214004170E0620449044B1343CB60BFF34F8F00BF8C
S21400418000BFFDE700ED00E00400FA0530B58FB093
S21400419005AB83E8070020F0E3FC0346002B07D0BE
S2140041A020F0BEFC0C900C9B002B01D00C9B2FE04B
S2140041B000230D9325E0059A0D9BD418069A0D9BB7
S2140041C0D51A01F0B3F903469B001946284620F09D
S2140041D041FC024609AB2146184620F024FC0A9A08
S2140041E00D4B02926C461A1D92E8030084E8030009
S2140041F01B6809AA07CA21F03AFC0A9B0D9A1344C9
S2140042000D93069B0D9A9A42D5D320F030FC0346B8
S21400421018460FB030BD00BF18FC020000B595B0C0
S21400422007900691059204936FF083031393062379
S2140042301293069B002B17D0059B002B14D0189BBF
S214004240002B02D1199B002B0ED1169B002B02D1FE
S214004250179B002B08D11A9B002B02D11B9B002B0F
S21400426002D11C9B002B02D16FF08603A7E0049BB3
S214004270554A934227D1079820F0EFFC0346B3F542
S214004280105F02D06FF0850399E0079820F0ECFCF1
S2140042900346DB08059A9A4212D3079820F0E4FCFE
S2140042A00346802B12D0079820F0DEFC0346C02B76
S2140042B00CD0079820F0D8FC0346B3F5807F05D0D5
S2140042C06FF086037BE06FF0850378E000BF199BF4
S2140042D0002B04D11C9B00221A6000236FE01A9A60
S2140042E0189B9A4213D9189A199B13441A9A9A4201
S2140042F00DD21B9A199B9A4202D26FF086035EE09B
S214004300199A18991A982AF008FD1A9B1893049B74
S2140043102D4A934251D11B9A199B9A4202D26FF0B2
S21400432089034CE0199B03F00F03002B02D06FF0BB
S214004330860344E06B46059A0699184620F076FCFC
S2140043400FAB6A4607CA83E807006B46199A1899A6
S214004350184620F06BFC0CAB6A4607CA83E80700D9
S2140043606B46199A1A99184620F060FC09AB6A4603
S21400437007CA83E80700FFF7D7FA1390139B002BB2
S21400438002D06FF092031AE009AA0CA90FAB1846E8
S21400439001F0E0FA1290FFF7DBFA1390129B002B65
S2140043A002D1139B002B02D06FF0920307E01C9BF8
S2140043B0199A1A6000BF002301E06FF085031846C3
S2140043C015B05DF804FB00BF0044400410B5B0B063
S2140043D00D900C910B920A930C9B002B0BD00B9B11
S2140043E0002B08D0329B002B05D0349B002B02D02C
S2140043F0369B002B02D16FF08603D5E06FF0960354
S2140044002F9306232E9300232D93694A28AB07CAC1
S21400441083E807000023189319AB3C2200211846B6
S2140044202AF095FC0C9820F044FC2C900C9820F078
S21400443039FC0346ADF8AE30BDF8AE3003F4E043C9
S214004440B3F5804F02D16FF08603ADE00D9A594B5D
S214004450134043F01063584A934202D06FF085032E
S214004460A2E02C9BB3F5807F20D1BDF8AE3047F29A
S2140044701212934217D1514BDB682D934F4B19689C
S2140044804E4B1A6913465B0013445B001A4628AB72
S214004490184620F0F0FB00BF2C9B0733DB080A9A77
S2140044A09A420ED305E06FF085037DE06FF085033A
S2140044B07AE02C9B0733DB085B000133339A9A4281
S2140044C002D26FF086036FE02C9B0733DB08359A29
S2140044D09A4202D26FF0890366E02C9B0733DA0813
S2140044E015AB0B99184620F0C6FB329B591C2C9B2B
S2140044F00733DB085A0012AB184620F0BCFB2C9B97
S2140045000733DB085A000FAB18A9184620F0B3FB98
S214004510329B1B78042B02D06FF0860344E0FFF733
S21400452003FA2F902F9B002B01D02F9B3CE02C9B57
S2140045300733DB082D9A0992089305AC0FAB93E876
S214004540070084E8070002AC12AB93E8070084E893
S21400455007006A4616AB93E8030082E80300159B43
S21400456028AA07CA01F05CFB2E90FFF7F1F92F90FE
S2140045702E9B002B02D12F9B002B02D06FF08603C0
S21400458012E02C9B0733DA0818AB194634982AF049
S214004590E8FB18AB4021184620F092FB2C9B073313
S2140045A0DA08369B1A600023184630B010BD00BFEC
S2140045B058FC02000000FFF6000002092CFD020075
S2140045C000B593B00790069105920493079B002BC5
S2140045D008D0069B002B05D0059B002B02D0049B21
S2140045E0002B02D16FF0860389E0079820F098FB35
S2140045F00346ADF84630BDF8463023F4435323F067
S2140046003F03B3F5824F03D1BDF84630DBB200E07E
S21400461000238DF84530079820F089FB1090BDF8F0
S214004620463023F0FF03B3F5E24F02D06FF0850368
S21400463065E09DF84530122B06D09DF84530172BC7
S21400464002D06FF085035AE0109B0733DB08059A0B
S2140046509A4202D26FF0890351E02B4A0BAB07CA8D
S21400466083E80700109BB3F5807F10D19DF8453096
S214004670122B0FD1254B1A68244B1B69D118234BDC
S2140046801A690BAB184620F034FB00BF02E06FF04F
S214004690850334E000BF109B0733DA0808AB0699A1
S2140046A0184620F026FBFFF73FF90F900F9B002BD4
S2140046B001D00F9B23E0164A02AB92E8030083E882
S2140046C003006A4609AB93E8030082E80300089BF0
S2140046D00BAA07CA21F000F90E90FFF739F90F90E0
S2140046E00E9B002B02D10F9B002B02D06FF0920383
S2140046F005E0109B0733DA08049B1A60002318466F
S21400470013B05DF804FB00BF58FC02002CFD02004D
S21400471024FC020030B599B00B900A9109920893D8
S2140047200B9B002B0ED00A9B002B0BD0099B002B5B
S21400473008D0089B002B05D01C9B002B02D01D9B8D
S214004740002B02D16FF08603AFE00B9820F0E8FA5A
S2140047500346ADF85630BDF8563023F4435323F0E5
S2140047603F03B3F5824F03D1BDF85630DBB200E00D
S21400477000238DF855300B9820F0D9FA1490BDF828
S214004780563023F0FF03B3F5824F02D16FF0850356
S2140047908BE0BDF8563023F4435323F03F03B3F5C4
S2140047A0824F02D06FF085037FE09DF85530122BC4
S2140047B006D09DF85530172B02D06FF0850374E0B5
S2140047C0149B0733DB08099A9A4202D26FF08603DD
S2140047D06BE0149B0733DB085B0001331C9A9A429C
S2140047E002D26FF0890360E000231793002316932C
S2140047F0149BB3F5807F0AD19DF85530122B09D152
S2140048002B4BDB6816932A4B179300BF02E06FF022
S21400481085034AE000BF149B0733DA080FAB0A99FA
S214004820184620F066FA089B591C149B0733DB08D1
S2140048305A000CAB184620F05CFAFFF775F8139098
S214004840139B002B01D0139B2FE0149B0733DB0830
S214004850179C169A0692059302AD0FAB93E80700D5
S21400486085E807006A460DAB93E8030082E803007C
S2140048700C9B94E8070021F053F81290FFF768F8B5
S2140048801390129B002B02D1139B002B02D06FF0CB
S21400489092030AE0089B04221A70149B0733DB0875
S2140048A05B005A1C1D9B1A600023184619B030BDC9
S2140048B02CFD020010B592B0079006910592049365
S2140048C0079B002B08D0069B002B05D0059B002BD2
S2140048D002D0169B002B02D16FF08603D9E0079812
S2140048E020F01EFA0346ADF83630BDF8363023F415
S2140048F0435323F03F03B3F5824F03D1BDF8363060
S214004900DBB200E000238DF83530BDF8363023F4F6
S214004910435323F03F03B3F5824F02D06FF0850375
S214004920B7E09DF83530122B06D09DF83530172BA2
S21400493002D06FF08503ACE0BDF8363023F0FF03FD
S214004940B3F5E24F36D100231093079820F0EFF925
S2140049500246169B1A60169B1B68002B04D1059B0B
S214004960DA00169B1A6009E0169B1B680733DB0803
S214004970059A9A4202D06FF086038AE0169B1B685F
S214004980B3F5807F0BD19DF83530122B0AD1424B00
S2140049901A68414B1B691344109300BF02E06FF086
S2140049A0850376E000BF059A1099069820F0C6F9B0
S2140049B011905AE000230F9300230E93069B1B785A
S2140049C0042B02D06FF0860363E0059B013BDB00FF
S2140049D05A08169B1A60169B1B68B3F5807F0AD18F
S2140049E09DF83530122B09D12B4BDB680E932A4BE2
S2140049F00F9300BF02E06FF085034AE000BF069BFE
S214004A00591C169B1B680733DB085A0009AB18466F
S214004A1020F06FF9FEF788FF1190119B002B01D054
S214004A20119B36E0169B1B680733DB080F9A0E991E
S214004A30039102936C460AAB93E8030084E80300F4
S214004A40099B07CA21F07EF80C90FEF781FF1190B3
S214004A50119B002B01D0119B1BE00C9B002B02D05E
S214004A606FF0860315E000231193119B002B0FD1E6
S214004A70149A059B9A4208D3059A069904982AF038
S214004A8070F9159B059A1A6002E06FF0890311937E
S214004A90119B184612B010BD2CFD020000B583B065
S214004AA00190019820F0ADF90346B3F5105F02D0EF
S214004AB06FF085031DE0019820F0AAF90346DB0895
S214004AC0103B102B8CBF01220022D2B2002A0BD141
S214004AD00A4A22FA03F303F00103002B14BF012352
S214004AE00023DBB2002B02D16FF0860301E000BF8B
S214004AF00023184603B05DF804FB00BF0101010067
S214004B0000B597B00390029101920093029B002B90
S214004B100ED0039B002B0BD01A9B002B08D01C9B9F
S214004B20002B05D0189B002B05D1199B002B02D01B
S214004B306FF0860378E0039820F06AF90346DB08F6
S214004B401393009B23F47E13394A934268D103984B
S214004B50FFF7A4FF1590159B002B01D0159B63E073
S214004B60019A139B9A4202D26FF086035CE0009B88
S214004B701B0C03F03F031493149B002B02D110234D
S214004B80149305E0149B102B02D96FF086034BE0BC
S214004B901B9A149B9A4202D26FF0890344E00BAB37
S214004BA0139A0299184620F015F908AB199A189925
S214004BB0184620F00FF905AB0EA91022184620F073
S214004BC009F9FEF7B1FE1590159B002B01D0159B39
S214004BD02AE005AA08A90BAB184600F0D7FE1290EB
S214004BE0FEF7B6FE1590129B002B02D06FF09203D4
S214004BF01593159B002B09D10EAB149A19461A98DB
S214004C002AF0AFF81C9B149A1A6002E01C9B002244
S214004C101A600EAB1022002118462AF098F802E01F
S214004C206FF085031593159B184617B05DF804FBC7
S214004C300002C00300B587B0039002910192009372
S214004C40039B002B08D0029B002B05D0019B002B5A
S214004C5005D1009B002B02D06FF086033FE0029840
S214004C6020F0D6F80346DB0804936FF0860305931E
S214004C70049A009B9A4202D96FF086032FE04C22DA
S214004C80002103982AF063F8089B23F47E13164A43
S214004C9093421FD10298FFF701FF0590059B002B5A
S214004CA001D0059B1BE0009A049B9A4202D26FF04B
S214004CB0860314E0039B0433049A019918462AF0ED
S214004CC050F8039B049A5A62039B089A1A600023C2
S214004CD0059303E06FF08503059300BF059B184618
S214004CE007B05DF804FB00BF0002C00300B589B042
S214004CF0039002910192039B002B02D0029B002B93
S214004D0002D16FF086037CE0019B002B01D10023CB
S214004D1077E0039B1B6823F47E133C4A93426ED1D4
S214004D20039B9B6B0793079B002B3ED0079BC3F10F
S214004D3010030693019A069B9A420FD2079B2833CC
S214004D40039A1344019A029918462AF00AF8079A19
S214004D50019B1A44039B9A63002352E0079B283367
S214004D60039A1344069A0299184629F0FAFF039B01
S214004D7010229A63019A069BD31A0193029A069B05
S214004D8013440293019B002B0FD0039B2833102261
S214004D901946039820F056F80590059B002B01D085
S214004DA0059B2EE0039B00229A63019B102B17D9CC
S214004DB0019B013B23F00F030493049A0299039886
S214004DC020F040F80590059B002B01D0059B18E0CD
S214004DD0019A049BD31A0193029A049B13440293EC
S214004DE0019B002B09D0039B2833019A0299184691
S214004DF029F0B7FF039B019A9A63002301E06FF046
S214004E008803184609B05DF804FB00BF0002C00323
S214004E1000B591B00390029101920093039B002B82
S214004E2005D0029B002B02D0009B002B02D16FF016
S214004E30860363E0039B1B6823F47E13314A934288
S214004E405AD1039B1B681B0C03F03F030F930F9B69
S214004E50002B02D110230F9305E00F9B102B02D9D5
S214004E606FF086034AE0019A0F9B9A4202D26FF0D7
S214004E70890343E0FEF758FD0E900E9B002B01D0F1
S214004E800E9B3BE0039B03F12801039B9A6B0AAB46
S214004E9018461FF09FFF039B191D039B5A6A07AB1A
S214004EA018461FF097FF039B03F13C0104AB10224A
S214004EB018461FF08FFF04AB04AA0AA907A800F043
S214004EC09DFD0D90FEF744FD0E900D9B002B02D02D
S214004ED06FF0920312E00E9B002B01D00E9B0DE0AC
S214004EE0039B3C330F9A1946029829F03AFF009B21
S214004EF00F9A1A60002301E06FF08503184611B080
S214004F005DF804FB0002C00300B58BB00190009171
S214004F101F4B0393019B04931E4B059346F6110308
S214004F20069300F01FFA0990099B142B04D107ABD7
S214004F30184620F0D2F804E0099B002B01D0099B0C
S214004F4021E04FF0A84303225A634FF0A84203AB78
S214004F5013604FF0A842009B13614FF0A843032252
S214004F609A6300BF4FF0A843DB6B03F00303002BEC
S214004F70F8D1099B142B03D107AB184620F0C5F8CF
S214004F8000F020FA034618460BB05DF804FB00BF9D
S214004F90B81400200400002010B5BAB002910192A7
S214004FA0009303468DF80F308F4B31AC0FCB84E85F
S214004FB00F00409A019B13445B4203F00F033793A4
S214004FC03D9B002B04D03D9B5B4203F00F0300E0AB
S214004FD010233693419B2D9301232E93429B43F03F
S214004FE000532F93429BC3F110031B0203F4F853A4
S214004FF043F0210330933D9B002B01D131AB00E001
S214005000009B29939DF80F3083F00103DBB2002B41
S21400501004D0429B002B01D02DAB00E001232A9345
S2140050203D9B002B03D03D9B43F0005302E0369B94
S21400503043F000532B939DF80F30002B02D1429B78
S214005040002B01D1212200E00122369B1B0203F433
S214005050F85313432C93029B259329AB2693019B6D
S21400506043F000532793379B1B0203F4F85343F097
S214005070410328933F9B2193019B002B01D025AB36
S21400508000E029AB2293019B002B01D0002201E017
S2140050904FF00052409B13432393019B002B06D1F5
S2140050A0379B1B0203F4F85343F0410300E041230F
S2140050B024933E9B1D9321AB1E934C4B1F9340F6AF
S2140050C0110320939DF80F30002B01D0484B00E0D1
S2140050D0484B19931DAB1A93474B1B9311231C93F4
S2140050E015AB00221A605A609A60DA6001231693A4
S2140050F0429BC3F1100343F08043179311AB002289
S2140051001A605A609A60DA609DF80F3083F00103E7
S214005110DBB2002B01D031AB00E0419B1193429BE8
S214005120102B01D015AB00E001231293429B139382
S2140051300DAB00221A605A609A60DA60429B002B20
S21400514001D011AB00E001230E93369B43F0804361
S2140051500F9309AB00221A605A609A60DA603C9B93
S2140051600993369B002B01D00DAB05E0429B002B2C
S21400517001D011AB00E001230A933C9B002B02D127
S2140051804FF0804200E000223D9B13430B9305AB9B
S21400519000221A605A609A60DA603D9B002B01D0AC
S2140051A009AB00E00DAB0693409A019B1A44379B6F
S2140051B0134443F08043079305AA19AB11461846DB
S2140051C0FFF7A2FE3590359B002B01D0359B2BE0D8
S2140051D09DF80F3083F00103DBB2002B23D00023B1
S2140051E039930023389315E034FC020010000020A9
S2140051F02CFC020030FC02000400002031AA389B80
S21400520013441B78DBB21A46399B13433993389BF9
S21400521001333893389A429B9A42EFD3399B002B3E
S21400522001D02C2300E0002318463AB010BD00BF82
S21400523000B5A3B00390029101920093029BB3F5D0
S214005240807F0AD0029BB3F5807F1CD8029B802B00
S2140052500FD0029BC02B0AD015E0249B002B02D057
S21400526040F2344301E040F2144321930DE00F2353
S21400527058E0249B002B02D04FF4866301E04FF4E5
S2140052808263219301E029234CE0249B1D93012394
S2140052901E9310231F9321232093259B1993249B51
S2140052A0002B01D01DAB00E001231A9310231B93A3
S2140052B001231C93019B1593012316931023179328
S2140052C021231893194B119315AB1293184B139374
S2140052D042F611031493009B0D9315AB0E93102307
S2140052E00F9342F61103109321AB0993009B002BFA
S2140052F001D00DAB00E011AB0A9304230B931123EE
S2140053000C93039B059309AB0693029BDB0807935C
S21400531040F61103089319AA05AB11461846FFF785
S214005320F3FD0346184623B05DF804FB54FC020068
S2140053301000001000B583B0094B1B68002B04D189
S21400534004210748FBF768FE0190054B1B680133F4
S21400535043F00043024A136000BF03B05DF804FB4D
S214005360B814002008B5154B5B6E144A43F00403CE
S2140053705366124BD3F88032104A43F00103C2F84A
S21400538080320F4B5B68C3F30803002B09D000BFC5
S2140053904FF0A843DB6B03F04303002BF8D1142334
S2140053A00AE000BF4FF0A843DB6B03F04303002B7B
S2140053B0F8D1FFF7BFFF0023184608BD0080005055
S2140053C000ED00E0054B5B68C3F30803002B01D03B
S2140053D0002300E000231846704700BF00ED00E001
S2140053E082B003468DF807309DF80730062B1FD88D
S2140053F001A252F823F000BF155400001954000013
S214005400295400001D5400002154000025540000BB
S2140054102D5400006C230CE05C230AE0542308E0C3
S214005420802306E0102304E0582302E0242300E053
S2140054300023184602B0704782B001230193034A46
S214005440019B936000BF02B0704700BF0020025C63
S214005450014BDB68184670470020025C86B003905C
S21400546002910192009300230593019B1B0403F411
S2140054707022029B1B0203F470631A43039B03F023
S2140054800F031A43009B1B0603F070631343059338
S214005490024A059B136000BF06B070470020025CFE
S2140054A000B587B003900291019200934FF000433D
S2140054B00493029B002B03D0029B013B059301E063
S2140054C000230593059BB3F5806F01D301231FE0EE
S2140054D000BF1FF053FE0346002BFAD1049A039B2D
S2140054E013430493059B1A020B4B1340049A134371
S2140054F00493019B1B0703F08053049A1343049301
S214005500049A009B13430493044A049B53600023AD
S214005510184607B05DF804FB00FF03000020025C9D
S214005520014B1B68184670470040025C014B1B6825
S214005530184670470410025C014B1B6818467047FB
S2140055403010025C014B1B68184670470010025C66
S21400555082B00190024A019B136000BF02B0704700
S2140055600810025C82B00190024A019B136000BFE3
S21400557002B070474010025C82B003468DF80730D8
S214005580034A9DF80730136000BF02B0704700BFA3
S2140055904410025C82B00190024A019B136000BF77
S2140055A002B070473410025C024B00221A6000BF43
S2140055B0704700BF0010025C08B5FFF7C3FF034644
S2140055C0024A43F00103136000BF08BD0010025CEE
S2140055D008B5FFF7B7FF0346024A23F0010313603E
S2140055E000BF08BD0010025C024B43F204021A60C2
S2140055F000BF70470010025C08B5FFF7A3FF034624
S214005600024A43F03003136000BF08BD0010025C7E
S21400561008B5FFF797FF0346064A43F48073136006
S214005620FFF790FF0346034A23F48073136000BF1E
S21400563008BD00BF0010025C08B5FFF783FF0346F5
S214005640024A43F48063136000BF08BD0010025C8A
S21400565000B583B003468DF80730FFF773FF0346A7
S21400566023F470229DF807301B04034913430B6094
S21400567000BF03B05DF804FB0010025C82B001902E
S2140056800A4B1A68019B1A60094A019B0433126888
S2140056901A60084A019B083312681A60064A019B82
S2140056A00C3312681A6000BF02B070471010025C1C
S2140056B01410025C1810025C1C10025C82B0019090
S2140056C00A4A019B1B681360019B0433084A1B6847
S2140056D01360019B0833074A1B681360019B0C3359
S2140056E0054A1B68136000BF02B070471010025CCA
S2140056F01410025C1810025C1C10025C00B583B02B
S214005700019000BFFFF718FF034603F00103002BCC
S214005710F8D1034A019B136000BF03B05DF804FB99
S2140057202010025C82B0044B0193019B01221A6098
S21400573000BF02B0704700BFFCFFFF3F00B583B05C
S21400574001900091019907481FF081FE00990648D4
S2140057501FF07DFE054B03221A6000BF03B05DF804
S21400576004FB00BF0000025C1000025C3400025C18
S21400577082B010B586B001AC84E807000993029B9E
S2140057800C9A934228BF13460593039B03F080535D
S214005790002B04D0059B033323F003030593059BDE
S2140057A023F070430593099B194613481FF04FFEDC
S2140057B00B9B03F0E042059B1343104A43F0005353
S2140057C013600F4B00221A60019B19460D481FF00C
S2140057D03EFE039B03F0E042059B13430A4A43F058
S2140057E000531360094B00221A6000BF06B0BDE8E4
S2140057F0104002B0704700BF0000025C0800025C68
S2140058000C00025C1000025C1800025C3400025CB3
S214005810054B3F221A60054B10221A60044B0322E8
S2140058201A6000BF704700BF3000025C1C00025CBC
S2140058303800025C00BF044B1B6803F00203002B19
S214005840F9D100BF00BF70473C00025C054B1B68E7
S21400585003F02403002B01D0042300E000231846A5
S214005860704700BF2800025C82B0084B1B6801939B
S214005870019B23F47F4323F0EF03002B01D0042386
S21400588000E00023184602B0704700BF3C00025CF0
S21400589082B001900091019B5B68202B22D0202BC8
S2140058A02FD8102B02D0182B0DD02AE0264B1B68C1
S2140058B003F08073002B01D1012342E0009B1A689D
S2140058C0009B1A601FE0204B1B6803F00073002B40
