S00F0000536F6674776172652E7333379A
S214000000C00A002065AD0000DBAB0200DBAB0200DF
S21400001077880200DBAB0200DBAB0200DBAB020042
S214000020DBAB0200DBAB0200DBAB0200DBAB0200AB
S214000030DBAB02007C4B0300FBAF0200DBAB020035
S214000040DBAB0200DBAB0200DBAB0200DBAB02008B
S214000050DBAB0200DBAB0200DBAB0200DBAB02007B
S214000060DBAB0200DBAB0200DBAB0200DBAB02006B
S214000070ED860200DBAB0200DBAB0200DBAB02006E
S214000080DBAB0200DBAB0200DBAB0200E950020098
S214000090DBAB02007DA70000DBAB0200DBAB02009F
S2140000A0DBAB0200DBAB0200DBAB0200DBAB02002B
S2140000B0DBAB0200F91B0200DBAB02004D260200A0
S2140000C0AB300300A73003003D1E0200B73003002C
S2140000D0AF30030025260200B33003008D26020051
S2140000E02DFF0100F1000200FD260200DBAB02003E
S2140000F0DBAB0200DBAB0200DBAB0200DBAB0200DB
S214000100DBAB0200DBAB0200DBAB0200DBAB0200CA
S214000110DBAB0200DBAB0200DBAB0200DBAB0200BA
S214000120DBAB0200DBAB0200DBAB0200DBAB0200AA
S214000130DBAB0200DBAB0200DBAB0200DBAB02009A
S214000140013800D0FCE77047002370B5404C0546E8
S2140001508AB0E36318B10088236011F0FFFA3D48C7
S21400016032F04EFA3C4E3D4B304633603C4B7360AB
S2140001702DF0C7FD002130461BF0DEFD32A3D3E98B
S2140001800023A062C4E906232DF0C6FDD4E90623A9
S21400019019431043C4E90601CDE900014FF0FF33CF
S2140001A04FF0FF32A06A32F0A6FA02224FF0FF317B
S2140001B0A06A32F0A5FA012011F052F84FF400734D
S2140001C000222849A06A32F0EFFAB0F5007F38D155
S2140001D000239422CDE9073309933C23CDE903326B
S2140001E005939623A06A03A906931BF0C3FE35B3B6
S2140001F0287C11F06BFC0546F0B9A06A32F0B5FB1E
S21400020011F012FC11F00EF820B14FF480700021AE
S2140002100EF016F811F016F820B14FF40060002129
S2140002200EF00EF82DF03CFE01201BF0D9FD0E4A14
S2140002300E49A06A2DF063FD28460AB070BDFF2067
S214000240D7E70725F8E700BF0DD5015520000000C9
S21400025048120020690345ECCC240020E51001007C
S214000260DC240020CC220020A7DC0200E7DC020011
S2140002702DE9F04FC76997B08346209E08910C92EF
S214000280129355EC104B8DED000B7FB9102023F028
S21400029083F80246CBF81C0020B9A74BEF21A748ED
S2140002A024F0CCFBC0E901770760C760DBF81C30A0
S2140002B0196859B15A680123584693404A608B60C2
S2140002C023F072FEDBF81C3000221A602B1EB7BF2C
S2140002D023F00043002301220193A8BF3360019F4F
S2140002E0974BB8BF3260BB4319D142F20F73129AD4
S2140002F01360C7F31303234300F0DB85219B53B938
S214000300904B21E0904B03930833219A1360039897
S21400031017B0BDE8F08F8B4B03930333F5E79DEDE5
S214000320007B0022002351EC170B8DED0A7B22F098
S214000330C7FF804650B10123129A1360219B13B168
S214000340824B219A1360824B0393E0E7C7F30A5669
S21400035014AA15A958469DED0A0B24F0ADF8029094
S214000360002E76D00B9BA6F2FF36CDF84C80C3F35A
S214000370130343F07F53DDE90A0143F440131946A3
S2140003800022744B22F042FA65A3D3E9002325F03D
S214000390D7FC65A3D3E9002322F03AFA04460D46BB
S2140003A0304622F081FB62A3D3E9002325F0C8FC87
S2140003B002460B462046294622F02AFA04460D46F7
S2140003C022F0DCFB0022074600232046294622F0C6
S2140003D081FF40B1384622F067FB22462B4622F0CA
S2140003E06FFF00B9013F162F52D85B4B03EBC703D4
S2140003F0DDE90A01D3E9002322F06CFF002849D08A
S214000400013F00231193149B9B1B5A1E4CBFC3F144
S21400041001030023079245BF069300230693079324
S214000420002F39DB079B10973B4407930023099363
S214000430089B092B66D8052BC5BF043B0024012466
S2140004400893089B023B032B67D8DFE803F02D3A9E
S2140004503859DDE914631E4406F23243202BC9BF27
S214000460C3F14003C3F120039F4006F21243D8BFF6
S21400047004FA03F006F1FF36C4BF24FA03F347EA92
S214000480030022F001FB0122A1F1F873139276E734
S2140004900123B7E71190B6E7069BDB1B06937B426A
S2140004A0099300231093C3E700230D930C9B002BA6
S2140004B056DC012399461A4604930C920CE001235D
S2140004C0F3E700230D930C9BFB1803F1010904933B
S2140004D04B46012BB8BF0123DBF81C000021042289
S2140004E002F114059D423FD94160584623F01CFD99
S2140004F0039000283BD1194B024640F2AF11CEE6DE
S2140005000123DFE7012400230D9408934FF0FF3307
S2140005100022994604931223CFE701230D93F5E7B3
S21400052061436F63A787D23FB3C8608B288AC63FF4
S214000530FB799F501344D33FC5870300DC87030035
S2140005400000F07FC1870300B8870300958703008B
S214000550948703000000F83FD8880300358803001E
S2140005600C9B99460493B7E701315200B8E7DBF8D5
S2140005701C30B9F10E0F039A1A606FD8002C6DD09C
S214000580002F36DD07F00F02A04BF8054FEA2714C0
S21400059003EBC20393ED007B8DED0E7B17D59C4BD2
S2140005A004F00F044FF00308D3E90823DDE90A013D
S2140005B025F0F0FCCDE90001954D5CB9DDE90E2390
S2140005C0DDE9000125F0E6FCCDE900012BE04FF067
S2140005D00208F1E7E10709D508F10108DDE90E0197
S2140005E0D5E9002325F0ACFBCDE90E0164100835F3
S2140005F0E3E700F007817C42844B854D4FF002080C
S21400060004F00F02241103EBC203DDE90A01D3E96B
S214000610002325F095FB0023CDE90001002C40F0D7
S214000620E580002BD0D1119BDDE90045002B00F0C2
S2140006304C810022774B2046294622F04BFE0028AC
S21400064000F04381B9F1000F00F03F81049B002BBE
S21400065000F3E480DDE90A34CDE90034159B002B75
S21400066002DB0E2F40F342820D9A002A40F067828A
S214000670099C0025DDF81880B8F1000F0DD0079B07
S214000680002B0ADD4345069AA8BF4346D21AA8EBBC
S21400069003080692079AD31A0793099B0BB30D9B80
S2140006A0002B00F0A682002C00F0A18229462246EC
S2140006B0584623F0A3FD029A01460546584623F005
S2140006C0F3FC02990646584623F06EFC099B1B1B5A
S2140006D0099300F09182099A3146584623F08EFD20
S2140006E002900121584623F0C9FC109B0446002BBB
S2140006F000F084821A460146584623F07FFD089B88
S2140007000446012B03DC009B002B00F07C820026B5
S214000710236904EB8303186932F07EFFC0F12000E2
S2140007201096079B184410F01F0000F09182C0F14D
S2140007302003042B40F38182C0F11C00069B034477
S21400074080440693079B03440793069B002B05DD16
S2140007501A460299584623F0ABFD0290079B002BE1
S21400076005DD21461A46584623F0A2FD0446119B95
S214000770002B00F076822146029832F09CFF00287B
S21400078080F26F8200230A220299584623F02EFC3C
S2140007900D9B7E1E0290002B00F05C8200232946F3
S2140007A00A22584623F022FC049B0546002B03DC55
S2140007B0089B022B00F35E82B8F1000F05DD294688
S2140007C04246584623F074FD0546109B002B00F069
S2140007D0D0826968584623F0A7FB0746002840F0F9
S2140007E07F820D4B024640F2EF2158E5E20706D520
S2140007F008F10108D5E9002325F0A2FA01236410C8
S21400080008350BE74FF002080DE700BFD888030055
S214000810B08803000000F03F358803002046002221
S214000820AC4B294625F08CFA7E1E08F10108049C84
S214000830CDE90001404622F037F9DDE9002325F036
S2140008407FFAA54B002221F0E3FFA1F15073CDE91A
S2140008500E010F93002C3BD10022A04BDDE90001D6
S21400086021F0D4FF02460B46CDE90023DDE90E2336
S21400087022F04EFD002840F05781DDE90E2101F1FF
S2140008800043DDE9000122F025FD00283FF4E2AE3A
S214000890002425460C9BDDF80CA0DE434FF0000834
S2140008A02146584623F080FB002D00F0A980B8F1C1
S2140008B0000F05D0A84503D04146584623F074FBE8
S2140008C02946584623F070FB9AE03E464C46B1E770
S2140008D0834B03EBC40353E90201039B1C440D9BAB
S2140008E0002B4AD002460B4600207E4925F052FBDC
S2140008F0DDE90E2321F08AFFDDF80CA0CDE90E011C
S214000900DDE9000122F03AF9054622F0CDF802466C
S21400091030350B46DDE9000121F078FF0AF8015B6F
S21400092002460B46CDE90001DDE90E0122F0F0FC9F
S214000930002865D100206C49DDE9002321F066FF20
S21400094002460B46DDE90E0122F0E2FC002840F0EC
S2140009500D81A24500F0EA8000225E4BDDE90E0123
S21400096025F0EEF900225B4BCDE90E01DDE9000132
S21400097025F0E6F9CDE90001C2E7DDE90E2325F012
S214000980DFF9A046DDF80CA0CDE90E01DDE9000197
S21400099022F0F4F8054622F087F8024630350B467A
S2140009A0DDE9000121F032FF0AF8015B02460B4642
S2140009B0A245CDE900234FF0000223D1494BDDE9E3
S2140009C00E0121F025FF02460B46DDE9000122F06C
S2140009D09FFC002840F0CA8000204249DDE90E2333
S2140009E021F014FF02460B46DDE9000122F072FCFE
S2140009F070B1C24608F1FF381AF8013C302BF8D027
S214000A00374655E0334B25F09BF9CDE90001BDE7AD
S214000A10DDE90A34CDE90034159B002BFFF628AE3D
S214000A200E2F3FF725AE2E4B03EBC70393ED007B4F
S214000A300C9B002B8DED047B02DAB9F1000F64D01D
S214000A40DDF80CA0DDE90045DDE904232046294653
S214000A5025F0A0FA22F092F8064622F025F8DDE905
S214000A60042325F06DF90246204606F130040B46B5
S214000A70294621F0CBFE0AF8014B039C02460B46A2
S214000A80AAEB0404A14540F0828021F0C1FE044692
S214000A900D46DDE9042322F03BFC002865D1204604
S214000AA02946DDE9042322F00BFC08B1F3075CD4E9
S214000AB00299584623F078FA002301378AF8003066
S214000AC0129B1F60219B002B3FF421ACC3F800A0B3
S214000AD01DE400BF0000244000001C40000014403D
S214000AE0D88803000000E03F0000F03FA24B03EB75
S214000AF0C70393ED007B0C9B002B8DED047B9FDAE8
S214000B00B9F1000F9CDC7FF4C3AE00229B4BDDE9FD
S214000B10040125F015F9DDE9002322F0EFFB044679
S214000B2000287FF4B5AE3E462546B4E0DDE90A343B
S214000B30CDE90034159B002B01DB0E2FD6DD089A7D
S214000B40012A36DC139A82B303F23343099CDDF89C
S214000B501880069A012158461A440692079A1A44A3
S214000B60079223F08BFA054686E53E4653469A469C
S214000B7013F8012D392A06D1039A9A42F7D130226A
S214000B80039901360A701A7801321A7038E7002283
S214000B907B4B25F0D5F80022002304460D4622F0B4
S214000BA08FFB00283FF450AF82E7149BC3F1360357
S214000BB0CCE709F1FF34099BA34208DBB9F1000F2B
S214000BC0A3EB04040EDBDDF818804B46C1E7099B57
S214000BD0109AE31A0994DDF8188000241A444B464C
S214000BE01092B6E7069BA3EB09080023B1E7029E26
S214000BF071E5099A029970E5029672E5089B012B49
S214000C0017DC009BABB9019BC3F313039BB9019B95
S214000C1023F00046360D360536B1069B0126013315
S214000C200693079B01330793109B002B7FF470AD50
S214000C301096012075E50026F6E73FF486AD1C33D6
S214000C40069A1A4498440692079A1A4407927CE534
S214000C500346F4E7049B002B2BDC089B022B09DCE5
S214000C6027E0B9F1000F1DDC089B022B1ADD3E467B
S214000C70CDF81090049B002B7FF40CAE2146052285
S214000C80584623F0B3F901460446029832F013FDA5
S214000C9000287FF7FFADDDF80CA0312301360AF8F7
S214000CA0013BFBE50D9B3E46CDF81090002B7FF4F4
S214000CB083AD039F2146029832F021FC039B00F18E
S214000CC03009049A07F8019BFB1A9A4240F3CB803E
S214000CD000230A220299584623F088F90290E9E791
S214000CE02A6905F10C010C300232920032F0F2FB58
S214000CF001223946584623F0DBFA039BA8460546F0
S214000D0003F1010ADDE9032313440793009B03F074
S214000D10010309930AF1FF3321460298049332F047
S214000D20EEFB4146069000F13009029832F0C3FC13
S214000D302A4621460746584623F026FBC268014647
S214000D4002B3584623F030F9002F3ADA012202990E
S214000D50584623F0ADFA2146029032F0ACFC00284B
S214000D6003DC29D119F0010F26D0B9F1390F1DD1B6
S214000D7032E02846C1E700BFD888030000001440D0
S214000D80000024400A90029832F095FC0A990C90D4
S214000D90584623F009F90C9A5ABB089B53B9099B8D
S214000DA043B9B9F1390F17D0002F05DD069B03F1C3
S214000DB0310901E0002F2ADADDF810A00AF8019BBD
S214000DC06EE5089B3B4304D1009B03F00103002B18
S214000DD0BCD0B9F1390F36D1049F392307F8013B4F
S214000DE0BA46013F1AF8013C392B5AD001333B7002
S214000DF056E5002F06DB089B3B4306D1009B03F01D
S214000E00010313B9002AA1DCD6E7002AE1DC079B20
S214000E1057460AF8019C53452ED000230A22029911
S214000E20584623F0E3F8A84502904FF000034FF031
S214000E300A02414658460BD123F0D8F880460546AC
S214000E400AF1010A66E7DDF810A009F10109B5E725
S214000E5023F0CCF82946804600230A22584623F081
S214000E60C5F80546ECE7049B4FF00008002BCCBF06
S214000E701F460127039B1F4401220299584623F070
S214000E8017FA2146029032F016FC0028A8DC02D1A0
S214000E9019F0010FA4D1BA4617F8013D302BFAD04D
S214000EA0FEE4039BBB429BD13123039A01361370A9
S214000EB0F6E4219B002B7FF425AA014BFFF744BAEA
S214000EC0B88703000348044B834202D0034B03B1A8
S214000ED018477047D0110020D011002000000000F5
S214000EE0064B0749C91A891048BF0131491003D07B
S214000EF0044B0BB101481847704700BFD0110020C3
S214000F00D01100200000000010B5064C237843B92D
S214000F10FFF7D8FF044B13B10448AFF3008001235A
S214000F20237010BD982E002000000000D498030007
S214000F3008B5054B1BB105490548AFF30080BDE871
S214000F400840FFF7CDBF00BF00000000A814002037
S214000F50D4980300A3F5803A704700BF174B002BC8
S214000F6008BF134B9D46FFF7F5FF00218B460F4643
S214000F701348144A121A32F094FA0E4B002B00D083
S214000F8098470D4B002B00D0984700200021040006
S214000F900D000D48002802D00C48AFF3008022F068
S214000FA055FF200029002AF001F922F0E3F900BFDE
S214000FB0000008000000000000000000C00A00203A
S214000FC0D0110020AC2F0020000000000000000020
S214000FD030B585B001900091009B002B15D00C4BCE
S214000FE01B68009A002101989847009B1A46013A10
S214000FF0039200221C4615464FF000024FF00003F5
S214001000EB0043EA5473E200019B00BF05B030BD1D
S214001010D00A002082B001900B46ADF80230019A4B
S214001020184B1340B3F1607F06D1BDF80230B3F51C
S214001030885F01D1002322E0019A124B1340B3F1DE
S214001040707F1AD1BDF8023003F4E043B3F5005FB9
S21400105013D1BDF8023003F4E043B3F5005F0CD1C2
S214001060BDF802301B0A9BB203F00703012202FA06
S21400107003F3012B01D9002301E06FF08603184625
S21400108002B070470000C07F00B587B003460291EB
S2140010900192ADF80E30019A029B9A4201D10123CB
S2140010A05DE2019B23F0FF03974A934221D0019B08
S2140010B023F0FF03954A93421BD0019B23F0FF03C6
S2140010C0934A934215D0019B23F4FF7323F0010348
S2140010D0B3F1062F0DD0019B23F0FF038D4A9342F8
S2140010E007D0019B23F4FF7323F001038A4A93423F
S2140010F03BD1029B23F0FF03834A934221D0029BFD
S21400110023F0FF03814A93421BD0029B23F0FF0388
S2140011107F4A934215D0029B23F4FF7323F001030A
S214001120B3F1062F0DD0029B23F0FF03794A9342BA
S21400113007D0029B23F4FF7323F00103764A934201
S21400114013D1029BDBB2002B0FD0029BDBB243F025
S2140011500073724A934208D1029A019B5340FF2BB8
S21400116094BF01230023DBB2F9E1029B03F0FE43A8
S214001170B3F1A06F1FD1019B03F0FE43B3F1A06F44
S21400118019D1029A019B534023F47E13002B12D1EF
S214001190029B03F40043002B0DD0029B1B0C03F0B4
S2140011A03F02019B1B0C03F03F039A4294BF0123AE
S2140011B00023DBB2D3E1029B03F0FE43B3F1407F92
S2140011C040F0AA81019B03F0FE43B3F1407F40F05C
S2140011D0A381029A019B534023F47E13002B40F018
S2140011E09B81BDF80E3019460298FFF713FF0346A1
S2140011F0002B01D00023B2E1019B03F47C13002BEB
S21400120004D0019B1B0C03F03F03BFE0019A444B44
S2140012101340B3F1607F40F09F80019BDBB243F048
S2140012200073404A93426DD0019BDBB243F00073DB
S2140012303D4A934264D0019BDBB243F000733B4AC5
S21400124093425BD0019BDBB243F00073384A934273
S21400125052D0019BDBB243F00073364A934249D02A
S214001260019BDBB243F00073334A934240D0019BAC
S214001270DBB243F00073314A934237D0019BDBB2B6
S21400128043F000732E4A93422ED0019BDBB243F00C
S21400129000732C4A934225D0019BDBB243F00073C7
S2140012A0294A93421CD0019BDBB243F00073274AC5
S2140012B0934213D0019BDBB243F00073244A93425F
S2140012C00AD0019BDBB243F00073224A934201D15D
S2140012D040235BE0002359E0302357E0202355E00D
S2140012E01C2353E0202351E01C234FE040234DE015
S2140012F030234BE0202349E01C2347E0142345E03D
S214001300142343E0102341E0000300060013000608
S214001310000200060009000600040006FF000002A6
S2140013200000C07F03000002040000020500000267
S21400133008000002090000020A0000020B0000027A
S2140013400C0000020D000002100000021100000256
S2140013501200000213000002019A834B1340B3F1FF
S214001360707F12D1BDF80E3003F4E043B3F5005F92
S21400137009D1BDF80E301B0A9BB203F00703012209
S21400138002FA03F302E0002300E000230593019A2B
S214001390754B1340B3F1607F76D1019BDBB243F00F
S2140013A00073724A93426DD0019BDBB243F0007328
S2140013B06F4A934264D0019BDBB243F000736D4AE0
S2140013C093425BD0019BDBB243F000736A4A9342C0
S2140013D052D0019BDBB243F00073684A934249D077
S2140013E0019BDBB243F00073654A934240D0019BF9
S2140013F0DBB243F00073634A934237D0019BDBB203
S21400140043F00073604A93422ED0019BDBB243F058
S21400141000735E4A934225D0019BDBB243F0007313
S2140014205B4A93421CD0019BDBB243F00073594ADF
S214001430934213D0019BDBB243F00073564A9342AB
S2140014400AD0019BDBB243F00073544A934201D1A9
S214001450402333E0002331E030232FE020232DE02B
S2140014601C232BE0202329E01C2327E0402325E033
S214001470302323E0202321E01C231FE014231DE05B
S21400148014231BE0102319E0019A374B1340B3F1E5
S214001490707F12D1BDF80E3003F4E043B3F5005F61
S2140014A009D1BDF80E301B0A9BB203F007030122D8
S2140014B002FA03F302E0002300E000230493029BF9
S2140014C01B0C03F03F03002B07D1059A049B9A429E
S2140014D00CBF01230023DBB241E0019B1B0C03F091
S2140014E03F03002B08D1029B1B0C03F03F03049A1A
S2140014F09A4201D1012332E0029B03F40043002B01
S2140015000AD0029B1B0C03F03F03059A9A422CBF9D
S21400151001230023DBB222E0029B03F0FE43B3F17B
S214001520106F1BD1029B23F01F6323F4702343F03C
S2140015300063B3F1006F11D1019B03F0FE43B3F1DA
S214001540106F0BD1019A164B134043F01063029AAA
S2140015509A420CBF01230023DBB200E000231846AA
S21400156007B05DF804FB00BF0000C07F0300000268
S2140015700400000205000002080000020900000244
S2140015800A0000020B0000020C0000020D00000220
S21400159010000002110000021200000213000002F8
S2140015A00000FFF600B585B003900B460192ADF83B
S2140015B00A30019B002B02D16FF08603A9E0019B45
S2140015C023F0FF03554A934221D0019B23F0FF03EB
S2140015D0534A93421BD0019B23F0FF03514A934288
S2140015E015D0019B23F4FF7323F00103B3F1062FFC
S2140015F00DD0019B23F0FF034B4A934207D0019B7B
S21400160023F4FF7323F00103484A93423DD1019B24
S214001610DBB2002B39D0019B23F0FF033F4A9342F5
S21400162021D0019B23F0FF033D4A93421BD0019B30
S21400163023F0FF033B4A934215D0019B23F4FF732C
S21400164023F00103B3F1062F0DD0019B23F0FF0317
S214001650354A934207D0019B23F4FF7323F001031E
S214001660324A93420CD1019BDBB2002B08D0019B7F
S214001670DBB243F000732E4A934201D1012300E00F
S214001680002303F00103DBB224E0019B03F0FE43DA
S214001690B3F1407F08D1019B03F40043002B14BF35
S2140016A001230023DBB215E0019B03F0FE43B3F1F8
S2140016B0A06F08D1019B03F40043002B14BF012345
S2140016C00023DBB206E0019B194A93420CBF0123BC
S2140016D00023DBB2002B02D06FF0860319E0039BD9
S2140016E05968BDF80A30019A1846FFF7CDFC034644
S2140016F0002B0AD1039B9968BDF80A30019A184658
S214001700FFF7C2FC0346002B01D0002301E06FF078
S2140017108403184605B05DF804FB00BF000300060E
S214001720001300060002000600090006000400067A
S214001730FF00000200B589B00390029101926FF09D
S21400174096030793029824F086FD0346ADF81A30F8
S214001750029824F087FD0590039B03F0FE43B3F147
S214001760407F02D06FF086037CE1BDF81A30194640
S2140017700398FFF74FFC0790079B002B01D0079BB1
S21400178070E1039B03F47C13002B06D0039B1B0C19
S214001790DBB203F03F03DBB297E0039A9C4B1340A7
S2140017A0B3F1607F76D1039BDBB243F00073994AB6
S2140017B093426DD0039BDBB243F00073964A93428C
S2140017C064D0039BDBB243F00073944A93425BD031
S2140017D0039BDBB243F00073914A934252D0039BC3
S2140017E0DBB243F000738F4A934249D0039BDBB2CF
S2140017F043F000738C4A934240D0039BDBB243F025
S21400180000738A4A934237D0039BDBB243F00073DF
S214001810874A93422ED0039BDBB243F00073854A7F
S214001820934225D0039BDBB243F00073824A934277
S2140018301CD0039BDBB243F00073804A934213D064
S214001840039BDBB243F000737D4A93420AD0039BAE
S214001850DBB243F000737B4A934201D1402334E06D
S214001860002332E0302330E020232EE01C232CE03F
S21400187020232AE01C2328E0402326E0302324E00F
S214001880202322E01C2320E014231EE014231CE067
S21400189010231AE0039A5E4B1340B3F1707F13D106
S2140018A0BDF81A3003F4E043B3F5005F0AD1BDF883
S2140018B01A301B0A9BB203F00703012202FA03F355
S2140018C0DBB202E0002300E00023019A1370019BC4
S2140018D01B78032B02D86FF08503C3E0019B1B78AF
S2140018E01946039A4A4B1340B3F1607F76D1039BA7
S2140018F0DBB243F00073474A93426DD0039BDBB2E2
S21400190043F00073444A934264D0039BDBB243F037
S2140019100073424A93425BD0039BDBB243F00073F2
S2140019203F4A934252D0039BDBB243F000733D4ADA
S214001930934249D0039BDBB243F000733A4A93428A
S21400194040D0039BDBB243F00073384A934237D053
S214001950039BDBB243F00073354A93422ED0039BC1
S214001960DBB243F00073334A934225D0039BDBB2CD
S21400197043F00073304A93421CD0039BDBB243F023
S21400198000732E4A934213D0039BDBB243F00073DE
S2140019902B4A93420AD0039BDBB243F00073294ADA
S2140019A0934201D1402350E000234EE030234CE028
S2140019B020234AE01C2348E0202346E01C2344E082
S2140019C0402342E0302340E020233EE01C233CE05E
S2140019D014233AE0142338E0102336E0039A0C4B25
S2140019E01340B3F1707F2FD1BDF81A3003F4E043F3
S2140019F0B3F5005F09D1BDF81A301B0A9BB203F09D
S214001A000703012202FA03F31FE000231DE000BFD4
S214001A100000C07F03000002040000020500000270
S214001A2008000002090000020A0000020B00000283
S214001A300C0000020D00000210000002110000025F
S214001A40120000021300000200238B4202D26FF045
S214001A50860307E0019B1B78142B02D96FF08503E1
S214001A6000E00023184609B05DF804FB30B5AFB0BF
S214001A700B900A91099208936FF096032D936FF0DE
S214001A8096032B930023239300232C930A9B03F0A7
S214001A90FE43B3F1806F03D06FF086032D93B1E061
S214001AA023A90A9B4FF480720B9824F009FF2D900F
S214001AB02D9B002B40F0A380239B24AC1D460FCD0E
S214001AC00FC495E8070084E8070016AB242200211F
S214001AD0184631F0E6FC16AC24AD0FCD0FC495E8E1
S214001AE0070084E80700239B1B8803F4E043B3F554
S214001AF0005F35D1239B1B881B0A9BB203F00703AC
S214001B00012202FA03F3012B2AD90A9B4F4A934279
S214001B1013D00A9B4E4A93420FD00A9B4D4A9342DB
S214001B200BD00A9B4C4A934207D00A9B4B4A9342DF
S214001B3003D00A9B4A4A934212D1239B1B8803F484
S214001B40E043B3F5005F09D1239B1B881B0A9BB2B9
S214001B5003F00703012202FA03F314E0002312E065
S214001B60239B1B8842F20402934203D10A9B3D4A00
S214001B70934207D00A9B3C4A934201D10D2302E0D0
S214001B80002300E00C232C932C9B102B03D96FF022
S214001B9083032D9336E02C9B002B10D0339A2C9B7E
S214001BA09A4203D26FF089032D932BE01FAB2C993A
S214001BB0184600F05BF82D902D9B002B21D1239B1F
S214001BC05C6A239B9D6A2C99329824F01DFB014683
S214001BD0339A2C9BD31A16A8349A0692059304912E
S214001BE0089B0393099B02932C9B01931FAB0093C6
S214001BF00A9B2A46214624F0F4FB2D9002E000BF03
S214001C0000E000BF239B184626F089F82B902D9BFA
S214001C10002B01D12B9B2D932D9B002B0FD12C9BA2
S214001C20002B05D01FAB2C9A1946329831F052FC87
S214001C30349B1A682C9B1A44349B1A6002E0349B2F
S214001C4000221A602D9B18462FB030BD0010C0042D
S214001C500011C0040012C00400FF4004004040040D
S214001C6000414004000180040013C00400B585B0A4
S214001C7001900091104B1B78002B02D16FF0880367
S214001C8015E00023029302AB009A01990B4827F057
S214001C9000F90390039B002B01D0039B07E0029BF7
S214001CA0009A9A4202D06FF0930300E00023184691
S214001CB005B05DF804FB00BFC0140020C41400206B
S214001CC008B500F05FF9074B5B78002B02D006489A
S214001CD025F0D1FC0C210348FFF77AF924F0DBFA53
S214001CE000BF08BDC0140020C414002000B583B097
S214001CF01B4B1B78002B01D000232DE024F0B9FAF3
S214001D000190019B002B1CD1154B01229A7015489F
S214001D1025F0A5FC124B01225A70124825F0B7FC9C
S214001D200190019B002B0ED10D4B02225A7000F041
S214001D301FF90190019B002B07D1094B01221A7055
S214001D4004E000BF02E000BF00E000BF019B002BE4
S214001D5001D0FFF7B5FF019B184603B05DF804FB02
S214001D60C0140020C414002082B00190019B064AD3
S214001D70934204D9019B002B01DB012300E00023E2
S214001D80184602B0704700BFFCFFFF7F82B001908C
S214001D900B468DF80330019B93F82030052B77D83F
S214001DA001A252F823F000BFC11D0000DF1D000095
S214001DB0FD1D00001B1E0000651E0000571E0000D3
S214001DC09DF80330012B58D09DF80330022B54D0D9
S214001DD09DF80330042B50D06FF087035EE09DF82B
S214001DE00330022B4BD09DF80330052B47D09DF8CF
S214001DF00330042B43D06FF088034FE09DF8033088
S214001E00032B3ED09DF80330052B3AD09DF80330C7
S214001E10042B36D06FF0880340E09DF80330022B89
S214001E200ED09DF80330052B0AD09DF80330042B06
S214001E3006D09DF80330032B02D06FF088032DE008
S214001E409DF80330022B1ED1019BDB69002B1AD0B4
S214001E506FF0880322E09DF80330002B15D06FF05A
S214001E6088031BE09DF80330052B10D09DF8033047
S214001E70002B0CD06FF0880310E000BF08E000BF16
S214001E8006E000BF04E000BF02E000BF00E000BFC5
S214001E90019B9DF8032083F820200023184602B0FB
S214001EA0704700BF00B587B0019000916FF09603B1
S214001EB00593019B0293002303930298FFF754FFB8
S214001EC00346002B18D0029B03F1004303332C2259
S214001ED002FB03F3254A13440393039B9B681946AE
S214001EE0019825F069FE0346002B01D0002301E08F
S214001EF06FF08B0305932CE00121019825F092FEEC
S214001F000346002B02D16FF087032BE000230493D7
S214001F1012E0049B2C2202FB03F3144A134403939F
S214001F20039B9B681946019825F046FE0346002B46
S214001F3006D1049B01330493049B022BE9D900E0ED
S214001F4000BF049B022B01D8002301E06FF08B0337
S214001F500593059B002B01D0059B03E0009B039A8D
S214001F601A60059B184607B05DF804FBCC140020E9
S214001F70034B012283F8842000231846704700BFD5
S214001F80CC14002000B583B00023019310E0019B21
S214001F902C2202FB03F30C4A1344009304210098FE
S214001FA0FFF7F4FE009824F0F2FC019B0133019346
S214001FB0019B022BEBD9044B002283F8842000BF40
S214001FC003B05DF804FB00BFCC14002000B589B058
S214001FD0019000916FF096030793354B93F8843089
S214001FE0002B03D16FF08803079356E00023049379
S214001FF0049B05930023069320E0069B2C2202FBFD
S21400200003F32B4A13440393039B93F82030002BCF
S21400201002D1039B059314E0049B002B0BD1039B7A
S2140020205B68DBB2002B06D0039B93F82030022BB4
S21400203001D1039B0493069B01330693069B022B58
S214002040DBD9059B002B11D1049B002B0ED0049BE3
S214002050059304210598FFF799FE0790079B002B30
S21400206001D0079B20E0059824F091FC059B002BEF
S21400207010D0059B0E4A9B1A9B100E4A02FB03F3D8
S21400208003F10043033B019A1360009B059A1A6014
S214002090002309E06FF08C030793009B00221A6070
S2140020A0019B00221A60079B184609B05DF804FBE6
S2140020B0CC140020A38B2EBA00B587B003900291F3
S2140020C013468DF807306FF096030593029B0022A7
S2140020D01A60444B93F88430002B02D16FF08803CB
S2140020E07BE002990398FFF7DDFE0590059B002B29
S2140020F01AD19DF80730002B06D1029B1B681846A4
S21400210025F0BAFD05900AE09DF80730012B06D1B0
S214002110029B1B6805211846FFF738FE0590059BB5
S214002120002B01D0059B58E0059B13F18C0F01D0C6
S214002130059B52E004AB02991846FFF747FF05904F
S214002140059B002B01D0059B47E0029B1B68039A6A
S2140021509A60029B1B6801225A606FF08B030593FE
S214002160059B13F18C0F05D1029B1B68184625F0C2
S214002170A5FD0590059B002B12D0029B1B68042131
S2140021801846FFF703FE029B1B68184624F0FFFB69
S214002190059B13F18C0F1FD16FF0870305931BE08F
S2140021A0029B1B680C33184625F013FD9DF807307C
S2140021B0002B06D1029B1B68184625F05DFD059096
S2140021C00AE09DF80730012B06D1029B1B6805210B
S2140021D01846FFF7DBFD0590059B184607B05DF82F
S2140021E004FB00BFCC14002000B587B0039002911A
S2140021F001920093009B0593059B082228491846E8
S21400220031F068F9059B08330021184623F0E1FFFA
S214002210059B03F10C02019B5B681946104623F0F0
S214002220D8FF059B03F11002019B1B881946104638
S21400223023F0BAFF059B03F11202019B5B88194647
S214002240104623F0B1FF059B03F11402019BDB68E7
S2140022501946104623F0BDFF059B14331A1D019B3B
S2140022601B691946104623F0B4FF059B143303F18F
S2140022700802019B5B691946104623F0AAFF059BDE
S21400228020330299184623F0A4FF059B2433029AB4
S2140022900399184631F01EF900BF07B05DF804FB3D
S2140022A02047030000B583B0019008220749019833
S2140022B031F0CDF80346002B02D06FF0980300E013
S2140022C00023184603B05DF804FB00BF2047030058
S2140022D008B5044A044905480FF0FEFE03461846B2
S2140022E008BD00BF98470300504703002847030077
S2140022F000B587B0019025F0E8FF0346154AA2FB1B
S21400230003239B090593059B002B1DD0124A059BB2
S214002310B2FBF3F30493049B002B17D0019B4FF4FE
S2140023207A7203FB02F2049BB2FBF3F30393039B64
S2140023300A4AA2FB03235B080293029B002B06D0EB
S2140023400298FDF7FDFE02E000BF00E000BF07B008
S2140023505DF804FBD34D621040420F00ABAAAAAA58
S2140023602DE9F04383B027F000FE0190324B1B7836
S21400237083F00103DBB2002B55D0304B00221A60ED
S2140023802F4B00221A602F4B00221A8000F0B2FD5D
S214002390012026F077F926F0DCF903462A4A136076
S2140023A0294B1B68002B04D1019827F0EEFD232350
S2140023B03DE026494FF000024FF00003C1E900233C
S2140023C0214B1B680022984691464FF000004FF0C4
S2140023D0010142464B4620F057FD1D4B1A601A4B32
S2140023E01B6800221E46174632463B464FF000004A
S2140023F04FF0010120F048FD02460B46154B1A60CF
S214002400114B1B6800221C46154622462B461248D6
S21400241040F2E73120F038FD02460B460F4B1A60BB
S214002420054B01221A70019827F0AFFD00231846CD
S21400243003B0BDE8F08300BF992E0020641500208D
S21400244068150020402E002060150020D0110020C6
S214002450581500205C15002018FCFFFF6C150020A6
S21400246000B58DB0079006910592049300238DF871
S2140024702B30079B002B01D1222345E00DF12B03C7
S2140024801946079800F086F89DF82B30002B01D0EF
S214002490022339E009AB1946069800F01BF90B90A9
S2140024A00B9B002B01D00B9B2EE000F0A9F80246F8
S2140024B0069B03FB02F2164BA3FB02139B094FF489
S2140024C07A7101FB03F3D31A9BB2C3F57A739AB2FF
S2140024D0079B9A83079B9B8BB3F57A7F02D1079B5A
S2140024E000229A83079B0022DA830999099ABDF88D
S2140024F03C3002939DF838300193049B0093059B73
S214002500079800F035FC034618460DB05DF804FB4E
S214002510D34D621000B587B0019000238DF81730B8
S214002520019B002B01D122232EE027F008FD04900A
S21400253000F0E6FB164B1B68019A9A4202D1012373
S2140025408DF81730019800F07BFB0390039B002B5F
S21400255004D0049827F0FFFC039B15E09DF8173085
S214002560002B06D00A4B1B68002B02D000F0A2FB03
S21400257006E0074B1B68002B02D1022000F054FD3A
S214002580049827F0E8FC0023184607B05DF804FB23
S2140025906415002000B585B001900091019B002BCA
S2140025A002D0009B002B01D1222322E0009B0022B8
S2140025B01A7027F0DAFC0290104B1B6803930AE0AF
S2140025C0039A019B9A4203D1009B01221A7002E0F3
S2140025D0039B9B680393039B002B06D0009B1B78F2
S2140025E083F00103DBB2002BEAD1029827F0CDFC82
S2140025F00023184605B05DF804FB00BF64150020F4
S214002600014B1B68184670476015002030B585B032
S21400261000F01CF8CDE90201DDE9022309498A42EF
S21400262073F1000307D3DDE902230749541843F189
S214002630FF35CDE90245029B0193019B184605B084
S21400264030BD00BF807EAA838081557C2DE9F04393
S21400265087B0002303930023029326F006F8039026
S214002660FFF7CEFF029027F080FC0190039A029BB2
S214002670B2FBF3F300221C461546144BD3E90023A5
S21400268014EB020845EB0309CDE90489039B029A83
S214002690B3FBF2F2029901FB02F29A1A0C4B1B688A
S2140026A01344029A9A4206D8DDE90423561C43F1E5
S2140026B00007CDE90467019827F067FCDDE90423ED
S2140026C01046194607B0BDE8F08300BFD0110020C1
S2140026D0541500202DE9F04383B00190009118496D
S2140026E009680198884225D8019900200E460746B9
S2140026F01449096800200C46054604FB07F006FB53
S21400270005F10144A6FB042319440B4640F2E731C9
S21400271012EB010843F100094FF47A724FF0000300
S2140027204046494620F0B0FB02460B46009B1A6026
S214002730002300E02123184603B0BDE8F08300BF65
S2140027406C15002060150020014B1B68184670476A
S2140027506C1500202DE9F04F8DB0099000230B93E7
S214002760504B1B68002B00F098804E4B1B68184699
S21400277025F09FFE0346002B4FD0099B00220093B6
S2140027800192DDE9004522462B464FF000004FF04F
S2140027900001590141EAD261500102460B4621462A
S2140027A0561A294663EB01074FF000024FF000036C
S2140027B0BB0043EA9673B20016461F462346F3183C
S2140027C004932B4647EB030305934FF000024FF0AC
S2140027D00003DDE904452946CB00214643EA517350
S2140027E02146CA0014461D462E4B1B68184625F087
S2140027F04EFE0346C3F12001A3F1200224FA03F89B
S21400280005FA01F148EA010825FA02F248EA020848
S21400281025FA03F943460B933FE0099B00229A46AC
S214002820934652465B464FF000004FF000015901B8
S21400283041EAD261500102460B46B2EB0A0463EB52
S2140028400B054FF000024FF00003AB0043EA947311
S214002850A20014461D4614EB0A03069345EB0B0331
S21400286007934FF000024FF00003DDE906452946C6
S214002870CB00214643EA51732146CA00104619464A
S214002880084B1B68002202930392DDE9022320F026
S214002890FBFA02460B4613460B930B9B18460DB0ED
S2140028A0BDE8F08F601500202DE9F04F95B0034687
S2140028B08DF827309DF8273003F00103002B3ED01B
S2140028C0FFF79EFE0A90A24B1A68A24B1B681A449A
S2140028D09F4B1A609E4B1A680A9B93420ED89E4BDB
S2140028E0D3E90023541C43F100059B4BC3E9004584
S2140028F0974B1A680A9BD21A954B1A60974B1B681F
S21400290000221E461746944BD3E90023B1180091C7
S21400291047EB03030193904BDDE90012C3E9001275
S2140029208F4B1B889BB201339AB28D4B1A8000F0F6
S214002930E7F98C4B1B68002B01D000F0BBF99DF823
S214002940273003F00203002B00F0FE8000231293D2
S214002950002311930023ADF8423027F006FB1390B6
S21400296000F0CEF9CAE07F4B1B680F937D4B1B68C7
S214002970129300230E934FF000024FF00003CDE9B0
S2140029800C2300238DF82F300AE0129B1A790F9B38
S2140029901B799A4201D90F9B12930F9B9B680F934A
S2140029A00F9B002B03D00F9B5B69002BEDD0139879
S2140029B027F0EBFA129B1B69002B23D0129B1B6996
S2140029C0002202930392DDE90234CDE90C3425F0AF
S2140029D04CFE0246129B9B69D31A0E930E9BDA1787
S2140029E098469146DDE90C23424573EB090309DA64
S2140029F001238DF82F30129B9A69129B1B691A448B
S214002A00129B9A619DF82F3083F00103DBB2002BF6
S214002A1008D027F0AAFA1390129800F011F913982C
S214002A2027F0B3FA129B1B69002B50D09DF82F306D
S214002A3083F00103DBB2002B49D00E9BDA179A46CF
S214002A409346DDE90C23B2EB0A01049163EB0B031A
S214002A500593DDE90434CDE90C34129B9B8B002BE7
S214002A6023D0129BDA8B129B9B8B13449AB2129B39
S214002A70DA83129BDB8BB3F57A7F16D3129BDB8B44
S214002A80A3F57A739AB2129BDA83DDE90C23511E02
S214002A90069143F1FF330793DDE90634CDE90C34A4
S214002AA0129B9B695A1E129B9A6127F05EFA13903E
S214002AB00C9B1946129800F059F8129B9A69129BC3
S214002AC01B691A44129B9A61139827F05EFA129BB0
S214002AD0DB88ADF84230119B01331193129BDB6803
S214002AE0002B06D0129BDB68129A126811461298C9
S214002AF0984727F03AFA139000F002F9194B1B6832
S214002B00002B05D0174B1B685B69002B3FF42BAFDF
S214002B10154B00221A70119B012B08D1BDF84230CC
S214002B2003F00203002B02D00F4B01221A700D4B4C
S214002B301B68002B02D000F0BDF802E0022000F077
S214002B4073FA139827F021FA00BF15B0BDE8F08F8E
S214002B505415002058150020D01100205C150020C8
S214002B60402E0020641500209B2E002000B587B064
S214002B7001900091009B0593019BDB88002B0AD1F6
S214002B8000F08EFB0290059A029B9A4203D2029BAB
S214002B90059325F0FBFD019B059A5A61274B1B68A0
S214002BA0002B40D000230493244B1B6803930CE0B7
S214002BB0039B5B69059AD31A0593019B059A5A6194
S214002BC0039B0493039B9B680393039B002B13D0E8
S214002BD0039B5B69059A9A42EAD2039B5B69002BCA
S214002BE0E6D0039B5B69059A9A4205D1019B1A7948
S214002BF0039B1B799A42DBD8049B002B03D0049BD3
S214002C00019A9A6002E00D4A019B1360019B039AA9
S214002C109A60039B002B0CD0039B5A69059BD21A23
S214002C20039B5A6105E0054A019B1360019B002245
S214002C309A6000BF07B05DF804FB00BF6415002073
S214002C4084B0019000230393194B1B68029304E0A1
S214002C50029B0393029B9B680293029B002B03D06C
S214002C60029A019B9A42F3D1029A019B9A4201D0A2
S214002C70022319E0039B002B04D0019B9A68039B58
S214002C809A6003E0019B9B68094A1360019B9B685E
S214002C90002B08D0019B9B685969019B5A69019BD0
S214002CA09B680A445A610023184604B0704700BF68
S214002CB06415002000B583B00F4B1B685B69002BC2
S214002CC00DD00D4B1B685A690C4B1B6813440193BF
S214002CD0022025F0D7FC019800F052F905E002200A
S214002CE025F0D0FC022025F0EFFC00F0A1F800BF94
S214002CF003B05DF804FB00BF6415002068150020D3
S214002D0000B585B025F0B1FC0190174B1B68039306
S214002D10164B1B68019AD31A029318E0039B5B6953
S214002D20029A9A4208D8039B5A69029BD21A039BBE
S214002D305A610023029307E0039B5B69029AD31A49
S214002D400293039B00225A61039B9B680393039B99
S214002D50002B02D0029B002BE0D1044A019B13609B
S214002D6000BF05B05DF804FB641500206815002060
S214002D7000B587B00390029101920093039B9DF8E3
S214002D8024201A71039B089A1A60039B00229A60FB
S214002D90039B019A1A61039B009ADA60039BBDF8B5
S214002DA02820DA80019B002B07D125F05EFC024626
S214002DB0029B1A44039B9A6106E025F056FC0246E5
S214002DC0019B1A44039B9A61029B002B15D1039B1F
S214002DD000225A61039BDB68002B06D0039BDB684E
S214002DE0039A1268114603989847019B002B02D05D
S214002DF0019B029301E0002313E027F0A0F8059062
S214002E00FFF77EFF02990398FFF7B0FE074B1B689B
S214002E10039A9A4201D1FFF74DFF059827F09BF8D9
S214002E200023184607B05DF804FB00BF64150020B9
S214002E3082B0134B1B68019300230093114B0022B2
S214002E401A7014E0019BDB8803F00203002B03D00A
S214002E500C4B01221A700FE0019B9B680193019BAB
S214002E60002B08D0019B5B69009A13440093009BDB
S214002E70012BE7D900E000BF00BF02B0704700BFDB
S214002E80641500209A2E002082B003468DF8073085
S214002E909DF90730002B0CDB9DF8073003F01F026E
S214002EA005499DF907305B09012000FA02F241F856
S214002EB0232000BF02B0704700E100E082B0034666
S214002EC08DF807309DF90730002B0DDB9DF8073095
S214002ED003F01F0206499DF907305B09012000FA3E
S214002EE002F2603341F8232000BF02B0704700BFF3
S214002EF000E100E000B585B01F4A02AB92E803008F
S214002F001860043319801D4A6B4692E80300186067
S214002F100433197001213E2003F040FE00238DF893
S214002F200830002025F072FB0346DBB28DF80C302B
S214002F3002AB184627F0C6FA00238DF800306B4621
S214002F401946012006F0E8FE40F2FF3025F029FB86
S214002F5040F2FF3025F019FB002025F005FB01208C
S214002F6027F07AFA0C20FFF7A9FF0C20FFF78CFF5A
S214002F7000BF05B05DF804FBC4470300CC47030060
S214002F8000B587B00190019B059326F0D8FF04900A
S214002F9025F06BFB039025F06EFB029025F01CFBE2
S214002FA0034603F04003002B0AD10399029825F04C
S214002FB0DDFB0346032B03D8029A039B9A421BD1E0
S214002FC00399059825F0D2FB0346022B02D8039BF3
S214002FD003330593059BB3F1FF3F2CBF012200226C
S214002FE052429B1A0593059B013B1946012025F08A
S214002FF0A2FA022025F046FB049826F0ACFF094B07
S2140030001B78002B0AD04FF0B043DB6B4FF0B0427A
S21400301043F00203D363034B00221A7000BF07B0CD
S2140030205DF804FB9A0E002000B585B003468DF8C7
S2140030300730002303939DF8073003F00103002BAD
S21400304003D0039B43F0010303939DF8073003F07E
S2140030500203002B0ED0039B43F040030393094B5F
S21400306001221A704FF0B043DB6B4FF0B04223F0F2
S2140030700303D363039825F094FA00BF05B05DF808
S21400308004FB00BF9A0E002008B5074BD3F8403269
S21400309003F00303013B012B03D8022025F0D0FAEE
S2140030A000E000BF00BF08BD0080005000B583B040
S2140030B026F045FF0190194B1B7883F00103DBB225
S2140030C0002B19D000230093FFF74AF90090009BCD
S2140030D0002B04D0019826F03EFF009B1AE0104813
S2140030E027F00BFDFFF7D0FF0E4B00221A60FFF70C
S2140030F087FA03460C4A136000F02EFA25F064FBAC
S21400310003460A4A1360054B01221A70019826F0FE
S21400311022FF0023184603B05DF804FB9C2E002017
S2140031207015002080150020741500207C150020E6
S21400313000B585B003460A468DF8073013468DF86D
S21400314006309DF80730002B02D09DF80730022B82
S2140031509DF80730013B2D4AD35CFF2B05D19DF827
S214003160063083F00103DBB2002B9DF80730013BED
S214003170264AD35C002B02D19DF80630002B9DF822
S2140031800730013B214AD25C9DF80630002B01D067
S214003190012100E0FF219DF80730013B0A44D1B22F
S2140031A01A4AD1549DF80630002B2BD0184B1B78AA
S2140031B0012B27D900F0D0F803468DF80F309DF884
S2140031C00F30012B02D800F04DF909E0104B1B78A8
S2140031D0032B05D19DF80F30022B01D125F0FCFA08
S2140031E00B4B1B789DF80F209A420BD0084B1B7890
S2140031F09DF80F201146184600F0C8F8044A9DF8BE
S2140032000F30137000BF05B05DF804FB7815002082
S2140032109D2E002000B585B003468DF8073026F0B9
S2140032208EFE03901B4B1B78FF2B05D19DF80730B5
S21400323083F00103DBB2002B164B1B78002B02D168
S2140032409DF80730002B144B1B78022B05D99DF8F0
S214003250073083F00103DBB2002B9DF80730002B0C
S21400326001D0012200E0FF220A4B1B781344DAB299
S214003270084B1A70074B1B78002B0CBF012300234A
S214003280DAB2064B1A70039826F065FE00BF05B04A
S2140032905DF804FB9E2E00209D2E00209F2E002011
S2140032A000B583B00023019326F049FE00900D4B35
S2140032B01B78012B04D8009826F04DFE019B0DE0EC
S2140032C000F02AF80346019300F0AAFB0246019B91
S2140032D013440193009826F03EFE019B184603B067
S2140032E05DF804FB9D2E002000B585B0019000918E
S2140032F0019B009A5A6026F022FE0390019B194615
S214003300044827F002FC039826F025FE00BF05B00F
S2140033105DF804FB7015002082B0034B1B68019318
S214003320019B184602B070478015002082B00190BD
S214003330074B1B68019A02FB03F303F5742303F2A1
S2140033403F23044AA2FB03239B0C184602B0704797
S2140033507415002083DE1B4382B00123019302E034
S214003360019B01330193019B022B05D8019B013B76
S214003370054AD35C002BF3D0019B8DF803309DF8F3
S2140033800330184602B070477815002000B585B0A7
S21400339003460A468DF8073013468DF8063000239C
S2140033A002939DF80630032B16D801A252F823F09C
S2140033B0C1330000C7330000CD330000D333000014
S2140033C00123029308E00423029305E010230293EE
S2140033D002E04023029300BF9DF80730032B1FD85E
S2140033E001A252F823F000BFF933000003340000B6
S2140033F00D34000017340000029B43F002030293D2
S2140034000EE0029B43F00803029309E0029B43F0A0
S2140034102003029304E0029B43F08003029300BF64
S2140034200F4B1B68039312E0039B5B681A68029BB2
S2140034301340002B08D0039B5B685B689DF8061062
S2140034409DF8072010469847039B1B680393039B31
S214003450002BE9D100BF00BF05B05DF804FB00BF3C
S2140034607015002000B583B026F069FD01901B4B57
S2140034701B78002B2AD01A4B1B7883F00103DBB293
S214003480002B05D0164B01221A70164B00221A701C
S214003490154B1B78002B04D000F0E8F9124B0022E5
S2140034A01A70019826F057FD012000F069FA26F000
S2140034B046FD01900A4B1B78002B04D000F074FAEE
S2140034C0074B00221A70054B00221A70019826F04E
S2140034D042FD00BF03B05DF804FB00BFA22E002033
S2140034E0A42E0020A12E0020A32E002008B5154BE8
S2140034F01B78002B24D0144B1B78002B04D000F034
S214003500B5F9114B00221A70002000F039FA034674
S214003510002B0ED000F048FA0A4B00221A700B4B14
S2140035201B7801211846FFF731FF084B01221A705D
S21400353006E0074B01221A70044B1A78054B1A70E6
S21400354000BF08BDA22E0020A32E00209D2E002026
S214003550A12E0020A02E00202DE9F04F8DB00023D4
S2140035608DF8243009AB184605F086FC002000F0E4
S21400357039F9924B1B6F03F00702914B1A608F4B81
S214003580D3F8003103F003028E4B1A608B4B03F521
S21400359080531A464FF400235366884B03F5805336
S2140035A01A464FF400335366874B9B6903F00203B9
S2140035B0002B14BF01230023DBB2844A1370804B18
S2140035C01B68032B06D07D4BD3F8203103F0030392
S2140035D0022B01D1012300E0002303F00103DBB23C
S2140035E07B4A1370754BD3F8243103F00703022B84
S2140035F00CBF01230023DBB21A46754B1B7813431E
S214003600002B14BF01230023DBB2714A13704FF462
S214003610C870FFF78BFE02466E4B1A6000238DF8CB
S2140036202F3012E09DF82F106A4B1A686A4B43F849
S21400363021206A4B1A68674B1B681A44674B1A604E
S2140036409DF82F3001338DF82F309DF82F30092B41
S214003650E8D95E4B1B78002B1BD05D4B1B7883F0A4
S2140036600103DBB2002B14D0544BD3F8003103F027
S2140036700303012B0CBF01230023DBB21A46544B75
S2140036801B781343002B14BF01230023DBB2504AE0
S21400369013704E4B1B78002B00F0838000230A9398
S2140036A0464BD3F8003103F00303032B0ED0032B55
S2140036B010D8012B02D0022B04D00BE007F07AFCC6
S2140036C00A9008E007F098FC0A9004E027F09FFABA
S2140036D00A9000E000BF0A9B002B62D03A4BDB68E2
S2140036E0C3F30B035A1C13469B0013440022984650
S2140036F0914642464B464FF000004FF000015901FC
S21400370041EAD261500102460B46B2EB080463EB75
S21400371009054FF000024FF000036B0243EAD45352
S214003720620214461D4614EB080645EB09074FF0E7
S21400373000024FF00003BB0143EA9663B201911BFF
S214003740069163EB07030793DDE906120B4613EBBE
S214003750080A134643EB090B0A9B013B0022009321
S2140037600192DDE900120B461AEB0303029313469F
S2140037704BEB030303930A9B002204930592DDE9B7
S2140037800423DDE902011FF07FFB02460B461346C9
S2140037901846FFF7CBFD0246114B1B681344104A30
S2140037A013601F20FFF7C2FD02460D4B1B68134433
S2140037B00B4A136000BF0DB0BDE8F08F00800050CC
S2140037C0901500208C15002000C00150A62E002069
S2140037D0A52E0020C81500209C150020C41500202A
S2140037E09415002000B585B003468DF807301D4BB4
S2140037F01B789DF807209A4230D000238DF80C30B5
S21400380002238DF80D309DF80730002B03D00223DD
S2140038108DF80D3002E000238DF80D3003AB18460E
S21400382005F03CFB9DF80730002B09D04020FFF741
S2140038307DFD02460C4B1B689B1A0B4A136008E082
S2140038404020FFF773FD0246074B1B681344064AE9
S2140038501360044A9DF80730137000E000BF05B0FF
S2140038605DF804FB9B0E00209415002000B583B085
S214003870384B1B7883F00103DBB2002B64D1364B48
S2140038801B7883F00103DBB2002B20D0334B9B6DFB
S21400389003F48033002B05D0314B1B6803F0020382
S2140038A0002B53D12D4B9B6D03F00103002B4DD104
S2140038B024F0DDFD03462B4A13602B4B1B6F23F0D1
S2140038C00703294A43F00303136724F078FF24F024
S2140038D0CEFD0246234B1B68D31A0193234B1B686D
S2140038E0234A12781146234A52F821201146019A9B
S2140038F08A1A9B1A1D4A13601D4B1B7819461D4ACF
S214003900019B42F82130194B1B6809331A4AA2FB67
S2140039100323DB08194A1360154B1B780133DAB210
S214003920134B1A70124B1A78134BA3FB0213D908C9
S2140039300B469B000B445B00D31ADAB20C4B1A7092
S214003940054B00221A7002E000BF00E000BF03B083
S2140039505DF804FBA52E0020A72E002000C0005016
S2140039605CC000509815002000800050C415002050
S214003970A82E00209C150020CDCCCCCCC81500204D
S21400398082B003468DF80730064B1B7883F00103A0
S214003990DBB2002B01D0012300E00123184602B061
S2140039A0704700BFA52E002008B526F014FB164B66
S2140039B01B6F23F00702154B1B68134913430B6755
S2140039C0114BD3F8203123F00302114B1B680E492C
S2140039D01343C1F820310C4BD3F8243123F00702EF
S2140039E00C4B1B6808491343C1F824310A4B1B785B
S2140039F0002B05D0094B03F500531A4601239362AA
S214003A0024F0DDFE00BF08BD0080005090150020A9
S214003A108415002088150020A52E002000C0005028
S214003A2082B0002301930A4B1B78002B07D0094B6A
S214003A301B680193019BDB08019A13440193064B14
S214003A401B68019A13440193019B184602B0704705
S214003A50A52E0020C815002094150020024B012238
S214003A601A7000BF704700BFA52E0020BFF34F8F0F
S214003A7000BF064BDB6803F4E0620449044B1343C3
S214003A80CB60BFF34F8F00BF00BFFDE700ED00E047
S214003A900400FA0582B00190BFF35F8F00BF0A4AA8
S214003AA0019B43F001035360084B5B6A074A43F4EB
S214003AB080335362BFF34F8F00BFBFF36F8F00BFDB
S214003AC000BF02B0704700BF90ED00E000ED00E0E0
S214003AD0BFF35F8F00BF0A4B5B6A094A23F480334B
S214003AE05362084B5B68074A23F001035360BFF339
S214003AF04F8F00BFBFF36F8F00BF00BF704700BF80
S214003B0000ED00E090ED00E000B583B003460A4605
S214003B108DF8073013468DF806309DF806209DF880
S214003B2007301946034824F059FE00BF03B05DF87D
S214003B3004FB00BF90ED00E000B585B00390029155
S214003B400192019B029A0399034824F080FE00BF6D
S214003B5005B05DF804FB00BF90ED00E000B585B051
S214003B600023039300230293FFF7B2FF4FF00053A6
S214003B7003932C4A2C4B9A4204D02B4B23F01F0362
S214003B80203B01E04FF080430293A0210020FFF786
S214003B90BBFF039A029B9A4215D8039B23F01F0390
S214003BA043F003030193214B1868029B23F01F0385
S214003BB043F001031A460199FFF7BEFF1B4B1B6833
S214003BC001331A4A1360174A174B9A421CD0154BFA
S214003BD01F3323F01F030393154B0293039B23F01D
S214003BE01F0343F003030193104B1868029B23F056
S214003BF01F0343F001031A460199FFF79DFF0B4B85
S214003C001B680133094A13600420FFF743FFBFF324
S214003C104F8F00BFBFF36F8F00BF00BF05B05DF8CA
S214003C2004FB00BFC8110020B80E0020CC150020F1
S214003C30E0FFFF3F00B58DB0039002910192002394
S214003C4009930023089300230B93FFF741FF0023FB
S214003C508DF82B300023079300230693019B1F2B20
S214003C6078D9039B03F01F03002B04D0039B23F09B
S214003C701F03203300E0039B0993029B03F01F03FE
S214003C80002B03D0029B23F01F0300E0029B089347
S214003C9000238DF82A3037E0354A9DF82A309360A5
S214003CA0334BDB6823F01F030793314B1B6923F06C
S214003CB01F030693099A079B9A4209D1089A069B06
S214003CC09A4205D101238DF82B3000230B930CE08C
S214003CD0099A069B9A4208D8089A079B9A4204D3E8
S214003CE001238DF82B3028230B939DF82B30012BC6
S214003CF011D01F4B9B681E4A23F0FF0393609DF86C
S214003D002A3001338DF82A309DF82A20194B1B687B
S214003D109A42C1D300E000BF9DF82B30002B19D18A
S214003D2001210120FFF7F0FE099B23F01F0343F05B
S214003D30030305930F4B1868089B23F01F0343F0FB
S214003D4003031A460599FFF7F7FE0A4B1B68013373
S214003D50084A13600420FFF79DFEBFF34F8F00BF95
S214003D60BFF36F8F00BF0B9B18460DB05DF804FBCA
S214003D7090ED00E0CC15002000B583B0074A6B46F6
S214003D8092E8030083E803006B46184605F0C8F97E
S214003D900023184603B05DF804FB00BFD4470300B9
S214003DA000B583B00A4B5B6F094A43F001035367C3
S214003DB06B4600221A601A7100238DF804306B4699
S214003DC0184605F07DF80023184603B05DF804FB9E
S214003DD00040005030B597B02C4B0BAC1D460FCDB5
S214003DE00FC40FCD0FC495E8030084E8030000233A
S214003DF012934FF0FF331593254BD3F84C3103F451
S214003E000023002B04D1224BD3F85031DBB215939C
S214003E10159BB3F1FF3F08D11E4B1B884FF6FF7270
S214003E20934202D01B4B1B881593159BB3F1FF3FA3
S214003E3001D18C231593159BB3F1FF3F18D0159B2A
S214003E40DBB28DF8453004F09BF90246159B13440F
S214003E501593159B002B02DA0023159304E0159B9F
S214003E60FF2B01DDFF231593159BDBB28DF8443045
S214003E70094807F0A5F80BAB184604F017F83220EF
S214003E8004F058FA0023184617B030BDDC4703008C
S214003E900080E00F0001E00F00F0490230B587B067
S214003EA00C4B01AC1D460FCD0FC42B6823600023BE
S214003EB0039319238DF805300423029301AB1846AB
S214003EC004F0C4F9322004F027FA0023184607B09D
S214003ED030BD00BF0448030082B0034600918DF851
S214003EE007309DF90730002B0ADB009BDAB20C493D
S214003EF09DF907301201D2B20B4483F800230BE081
S214003F00009BDAB207499DF8073003F00F03043B25
S214003F101201D2B20B441A7600BF02B0704700BF3F
S214003F2000E100E000ED00E0084B03F580531A4680
S214003F304FF400539366054B03F580531A4603234C
S214003F40C2F8603200231846704700BF0080005059
S214003F50084B03F500531A464FF400539366054B7F
S214003F6003F500531A460323C2F8603200231846AE
S214003F70704700BF0080005010B582B001900198D5
S214003F8024F0B0FC0346012202FA03F4019824F060
S214003F909EFC03460F4A52F8232021460A430D4949
S214003FA041F82320019824F09DFC0346012202FAE2
S214003FB003F3DC43019824F08AFC0346064A52F8D1
S214003FC0232021460A40044941F8232000BF02B0BE
S214003FD010BD00BFD0150020E415002010B586B037
S214003FE00190019824F07EFC0346012202FA03F4B5
S214003FF0019824F06CFC0346164A52F8232021460A
S2140040000A43144941F82320002305930023049310
S21400401009E0114A049B52F82330059A134405938D
S214004020049B01330493049B042BF2D9059B002BBD
S2140040300DD10023039307E0064A039B002142F8B4
S2140040402310039B01330393039B042BF4D900BF77
S21400405006B010BDE4150020D015002010B582B0C3
S2140040600190019824F03EFC0346012202FA03F474
S214004070019824F02CFC0346054A52F823202146DA
S2140040804A40034941F8232000BF02B010BD00BFDC
S214004090D015002010B582B00190019824F017FCCE
S2140040A00346094A52F82340019824F01BFC0346B5
S2140040B024FA03F303F00103002B14BF01230023AB
S2140040C0DBB2184602B010BDD015002010B582B085
S2140040D00190019824F0FBFB0346094A52F823405E
S2140040E0019824F0FFFB034624FA03F303F00103D0
S2140040F0002B14BF01230023DBB2184602B010BD0C
S214004100E415002082B00190019BA3F50622A2F6DA
S214004110FF42074BA3FB0213D9080B46DB010B44F7
S214004120D11A01F5062303F55063184602B070470E
S214004130813FE00F00B583B0CDE90001DDE9000165
S21400414024F0D8FB0146084BA3FB0123DA081346EC
S214004150DB011344CA1A02F5062303F5506318461A
S21400416003B05DF804FB00BF813FE00F00B5A9B0C7
S21400417012AB4022002118462FF093F902AB4022E2
S214004180002118462FF08DF92A4B279347E0279BEE
S21400419010332693269B284A934201D9264B269312
S2140041A0264B1868269B013B12A90093279B1022DA
S2140041B02EF06CF82390002325930BE0259B9B00A4
S2140041C0A0336B4453F8583C1846FFF7D5FE259BA2
S2140041D001332593259A239B9A42EFD3174B1868F1
S2140041E0269B013B02A90093279B10222EF057F82E
S2140041F02290002324930BE0249B9B00A0336B4467
S21400420053F8983C1846FFF7E9FE249B01332493A5
S214004210249A229B9A42EFD3279B10332793279BFF
S214004220074A9342B3D9074B01221A7000BF29B040
S2140042305DF804FB006D080000710800DC0A002031
S214004240FF700800A92E002000B58BB005900491E1
S21400425003920293039B002B02D0039B00221A605A
S214004260029B002B02D0029B00221A601D4B18688E
S214004270102300930023049A059917F0E1FA099099
S214004280099B002B01D0099B27E0039B002B02D043
S214004290039B10221A60049B1B68134A934201D0AA
S2140042A0124B1AE0039B002B16D0029B002B13D058
S2140042B00C4B186807AA029B059917F015FB089087
S2140042C0089B002B01D0089B07E0029B1A68039B03
S2140042D01B68D21A029B1A60099B18460BB05DF841
S2140042E004FB00BFDC0A0020105D175EFFDF00F055
S2140042F000B589B0CDE90201009313468DF807306A
S2140043000023069300230593DDE90201FFF712FF61
S21400431005904E4B1B7883F00103DBB2002B09D0CF
S21400432006F008F90346002B02D06FF0910389E0EF
S214004330FFF71CFF0023049373E00598FFF7AAFE1F
S214004340034683F00103DBB2002B23D00598FFF76A
S214004350BDFE0346002B09D0069B002B01D1059B12
S21400436006930598FFF7CEFE059057E09DF80730B8
S214004370002B0CD0069B002B04D00C9B069A1A60D0
S21400438000235FE00C9B059A1A6000235AE06FF04A
S2140043908B0357E00B9B0A9A00990598FFF754FF8A
S2140043A00790079B2A4A934203D0079B294A9342C9
S2140043B00CD1294B1B680599184617F0D9FA0790B7
S2140043C0079B002B02D06FF08B033BE0079B002B74
S2140043D006D0079B214A934202D06FF0910331E04A
S2140043E0009BD3E90223DDE90201994208BF90420F
S2140043F004D00598FFF786FE05900FE09DF807307D
S214004400002B06D0009B5B68012B02D16FF0840363
S21400441018E00C9B059A1A60002313E0049B0133F6
S2140044200493049B802B88D99DF80730002B07D077
S214004430069B002B04D00C9B069A1A60002301E012
S2140044406FF08B03184609B05DF804FBA92E002018
S214004450FFDF00F011E000F0DC0A0020FEDF00F0D5
S21400446000B58FB0CDE9060105920493059B002B9D
S21400447005D0049B002B02D16FF086037FE0059BDE
S21400448040F26C72934202D96FF0910377E0109B72
S214004490012B05D0109B002B02D06FF085036EE039
S2140044A06FF096030D9300230893059B0C930C9BCB
S2140044B010331946012023F0CDFE0B900B9B002BEA
S2140044C002D16FF08C035AE00C9B10331A46002181
S2140044D00B982EF0E6FF0B9B0A9324F0F4F908AB3A
S2140044E0029300230193002300930A9B0122DDE937
S2140044F00601FFF7FDFE0D900D9B002B07D00D9BD0
S21400450013F18C0F2DD16FF08D030D9329E00A9BCC
S2140045101D4A1A600A99DDE90623C1E902230A9BAF
S214004520109A5A60059B002B06D00B9B1033059AF9
S214004530049918462EF0CEFF144B186808990C9B69
S21400454010330B9A17F0E4F80990099B002B04D15E
S214004550089B1846FFF710FD04E06FF091030D93DB
S21400456000E000BF0C9B10331A4600210B982EF07B
S21400457098FF0B9823F083FE24F0A7F90D9B1846AE
S2140045800FB05DF804FB00BF105D175EDC0A00206C
S21400459000B595B0CDE9060105920493049B002B67
S2140045A005D0179B002B02D16FF0860383E0049B97
S2140045B0002B11D0169B002B0BD0169BB3F1005F7F
S2140045C007D3049BC3F1005303F50043169A9342A6
S2140045D002D26FF086036EE06FF0960313930CAB77
S2140045E000221A605A609A60DA6000230B93002358
S2140045F0129300230A9324F066F90CAA09AB0293DF
S2140046000BAB01930AAB009313460022DDE90601CB
S214004610FFF76EFE1390139B002B48D10B9B129353
S214004620049B002B14D0059A129B9A4206D3129B29
S214004630002B03D06FF08603139339E0129B002BF8
S2140046400ED1059B002B0BD06FF0860313932FE043
S214004650059A129B9A4203D96FF08603139327E0BC
S214004660129A059BD31A049A9A4205D9129A059B68
S214004670D21A179B1A6002E0179B049A1A60104B16
S214004680186809990A9A059B1A44179B1B68009399
S2140046901346169A17F0D4F81190119B002B03D0EE
S2140046A06FF09103139303E00023139300E000BF21
S2140046B024F00BF9139B184615B05DF804FB00BFF9
S2140046C0DC0A002000B591B0CDE904016FF0960336
S2140046D00F930AAB00221A605A609A60DA600023D1
S2140046E009930023089324F0EEF80AAA07AB029376
S2140046F009AB019308AB009313460022DDE90401E1
S214004700FFF7F6FD0F900F9B002B20D10B9B012B84
S21400471003D16FF084030F931AE0114B1B68079ABE
S2140047201146184617F024F90E900E9B002B0AD15E
S214004730079B1846FFF792FC079B1846FFF74EFCB0
S21400474000230F9304E06FF091030F9300E000BF87
S21400475024F0BBF80F9B184611B05DF804FB00BFB1
S214004760DC0A0020BFF34F8F00BF064BDB6803F464
S214004770E0620449044B1343CB60BFF34F8F00BF86
S21400478000BFFDE700ED00E00400FA0530B58FB08D
S21400479005AB83E8070024F0B7F90346002B07D0E3
S2140047A024F092F90C900C9B002B01D00C9B2FE070
S2140047B000230D9325E0059A0D9BD418069A0D9BB1
S2140047C0D51A01F0B3F903469B001946284624F093
S2140047D015F9024609AB2146184624F0F8F80A9A5D
S2140047E00D4B02926C461A1D92E8030084E8030003
S2140047F01B6809AA07CA25F00EF90A9B0D9A1344EE
S2140048000D93069B0D9A9A42D5D324F004F90346DD
S21400481018460FB030BD00BF1848030000B595B06D
S21400482007900691059204936FF083031393062373
S2140048301293069B002B17D0059B002B14D0189BB9
S214004840002B02D1199B002B0ED1169B002B02D1F8
S214004850179B002B08D11A9B002B02D11B9B002B09
S21400486002D11C9B002B02D16FF08603A7E0049BAD
S214004870554A934227D1079824F0C3F90346B3F567
S214004880105F02D06FF0850399E0079824F0C0F916
S2140048900346DB08059A9A4212D3079824F0B8F923
S2140048A00346802B12D0079824F0B2F90346C02B9B
S2140048B00CD0079824F0ACF90346B3F5807F05D0FA
S2140048C06FF086037BE06FF0850378E000BF199BEE
S2140048D0002B04D11C9B00221A6000236FE01A9A5A
S2140048E0189B9A4213D9189A199B13441A9A9A42FB
S2140048F00DD21B9A199B9A4202D26FF086035EE095
S214004900199A18991A982EF0B2FD1A9B1893049BC0
S2140049102D4A934251D11B9A199B9A4202D26FF0AC
S21400492089034CE0199B03F00F03002B02D06FF0B5
S214004930860344E06B46059A0699184624F04AF921
S2140049400FAB6A4607CA83E807006B46199A1899A0
S214004950184624F03FF90CAB6A4607CA83E80700FE
S2140049606B46199A1A99184624F034F909AB6A4628
S21400497007CA83E80700FFF7D7FA1390139B002BAC
S21400498002D06FF092031AE009AA0CA90FAB1846E2
S21400499001F0E0FA1290FFF7DBFA1390129B002B5F
S2140049A002D1139B002B02D06FF0920307E01C9BF2
S2140049B0199A1A6000BF002301E06FF085031846BD
S2140049C015B05DF804FB00BF0044400410B5B0B05D
S2140049D00D900C910B920A930C9B002B0BD00B9B0B
S2140049E0002B08D0329B002B05D0349B002B02D026
S2140049F0369B002B02D16FF08603D5E06FF096034E
S214004A002F9306232E9300232D93694A28AB07CABB
S214004A1083E807000023189319AB3C2200211846B0
S214004A202EF03FFD0C9824F018F92C900C9824F0EA
S214004A300DF90346ADF8AE30BDF8AE3003F4E043F2
S214004A40B3F5804F02D16FF08603ADE00D9A594B57
S214004A50134043F01063584A934202D06FF0850328
S214004A60A2E02C9BB3F5807F20D1BDF8AE3047F294
S214004A701212934217D1514BDB682D934F4B196896
S214004A804E4B1A6913465B0013445B001A4628AB6C
S214004A90184624F0C4F800BF2C9B0733DB080A9A9C
S214004AA09A420ED305E06FF085037DE06FF0850334
S214004AB07AE02C9B0733DB085B000133339A9A427B
S214004AC002D26FF086036FE02C9B0733DB08359A23
S214004AD09A4202D26FF0890366E02C9B0733DA080D
S214004AE015AB0B99184624F09AF8329B591C2C9B50
S214004AF00733DB085A0012AB184624F090F82C9BBC
S214004B000733DB085A000FAB18A9184624F087F8BD
S214004B10329B1B78042B02D06FF0860344E0FFF72D
S214004B2003FA2F902F9B002B01D02F9B3CE02C9B51
S214004B300733DB082D9A0992089305AC0FAB93E870
S214004B40070084E8070002AC12AB93E8070084E88D
S214004B5007006A4616AB93E8030082E80300159B3D
S214004B6028AA07CA01F05CFB2E90FFF7F1F92F90F8
S214004B702E9B002B02D12F9B002B02D06FF08603BA
S214004B8012E02C9B0733DA0818AB194634982EF03F
S214004B90A1FC18AB4021184624F066F82C9B07337E
S214004BA0DA08369B1A600023184630B010BD00BFE6
S214004BB0584803000000FFF6000002092C490300D5
S214004BC000B593B00790069105920493079B002BBF
S214004BD008D0069B002B05D0059B002B02D0049B1B
S214004BE0002B02D16FF0860389E0079824F06CF85A
S214004BF00346ADF84630BDF8463023F4435323F061
S214004C003F03B3F5824F03D1BDF84630DBB200E078
S214004C1000238DF84530079824F05DF81090BDF815
S214004C20463023F0FF03B3F5E24F02D06FF0850362
S214004C3065E09DF84530122B06D09DF84530172BC1
S214004C4002D06FF085035AE0109B0733DB08059A05
S214004C509A4202D26FF0890351E02B4A0BAB07CA87
S214004C6083E80700109BB3F5807F10D19DF8453090
S214004C70122B0FD1254B1A68244B1B69D118234BD6
S214004C801A690BAB184624F008F800BF02E06FF074
S214004C90850334E000BF109B0733DA0808AB06999B
S214004CA0184623F0FAFFFFF73FF90F900F9B002BF3
S214004CB001D00F9B23E0164A02AB92E8030083E87C
S214004CC003006A4609AB93E8030082E80300089BEA
S214004CD00BAA07CA24F0D4FD0E90FFF739F90F90FF
S214004CE00E9B002B02D10F9B002B02D06FF092037D
S214004CF005E0109B0733DA08049B1A600023184669
S214004D0013B05DF804FB00BF584803002C490300AD
S214004D102448030030B599B00B900A910992089385
S214004D200B9B002B0ED00A9B002B0BD0099B002B55
S214004D3008D0089B002B05D01C9B002B02D01D9B87
S214004D40002B02D16FF08603AFE00B9823F0BCFF78
S214004D500346ADF85630BDF8563023F4435323F0DF
S214004D603F03B3F5824F03D1BDF85630DBB200E007
S214004D7000238DF855300B9823F0ADFF1490BDF846
S214004D80563023F0FF03B3F5824F02D16FF0850350
S214004D908BE0BDF8563023F4435323F03F03B3F5BE
S214004DA0824F02D06FF085037FE09DF85530122BBE
S214004DB006D09DF85530172B02D06FF0850374E0AF
S214004DC0149B0733DB08099A9A4202D26FF08603D7
S214004DD06BE0149B0733DB085B0001331C9A9A4296
S214004DE002D26FF0890360E0002317930023169326
S214004DF0149BB3F5807F0AD19DF85530122B09D14C
S214004E002B4BDB6816932A4B179300BF02E06FF01C
S214004E1085034AE000BF149B0733DA080FAB0A99F4
S214004E20184623F03AFF089B591C149B0733DB08EF
S214004E305A000CAB184623F030FFFFF775F81390B6
S214004E40139B002B01D0139B2FE0149B0733DB082A
S214004E50179C169A0692059302AD0FAB93E80700CF
S214004E6085E807006A460DAB93E8030082E8030076
S214004E700C9B94E8070024F027FD1290FFF768F8D3
S214004E801390129B002B02D1139B002B02D06FF0C5
S214004E9092030AE0089B04221A70149B0733DB086F
S214004EA05B005A1C1D9B1A600023184619B030BDC3
S214004EB02C49030010B592B0079006910592049312
S214004EC0079B002B08D0069B002B05D0059B002BCC
S214004ED002D0169B002B02D16FF08603D9E007980C
S214004EE023F0F2FE0346ADF83630BDF8363023F434
S214004EF0435323F03F03B3F5824F03D1BDF836305A
S214004F00DBB200E000238DF83530BDF8363023F4F0
S214004F10435323F03F03B3F5824F02D06FF085036F
S214004F20B7E09DF83530122B06D09DF83530172B9C
S214004F3002D06FF08503ACE0BDF8363023F0FF03F7
S214004F40B3F5E24F36D100231093079823F0C3FE43
S214004F500246169B1A60169B1B68002B04D1059B05
S214004F60DA00169B1A6009E0169B1B680733DB08FD
S214004F70059A9A4202D06FF086038AE0169B1B6859
S214004F80B3F5807F0BD19DF83530122B0AD1424BFA
S214004F901A68414B1B691344109300BF02E06FF080
S214004FA0850376E000BF059A1099069823F09AFECE
S214004FB011905AE000230F9300230E93069B1B7854
S214004FC0042B02D06FF0860363E0059B013BDB00F9
S214004FD05A08169B1A60169B1B68B3F5807F0AD189
S214004FE09DF83530122B09D12B4BDB680E932A4BDC
S214004FF00F9300BF02E06FF085034AE000BF069BF8
S214005000591C169B1B680733DB085A0009AB184669
S21400501023F043FEFEF788FF1190119B002B01D072
S214005020119B36E0169B1B680733DB080F9A0E9918
S214005030039102936C460AAB93E8030084E80300EE
S214005040099B07CA24F052FD0C90FEF781FF1190D1
S214005050119B002B01D0119B1BE00C9B002B02D058
S2140050606FF0860315E000231193119B002B0FD1E0
S214005070149A059B9A4208D3059A069904982EF02E
S21400508029FA159B059A1A6002E06FF089031193BE
S214005090119B184612B010BD2C49030000B583B012
S2140050A00190019823F081FE0346B3F5105F02D00D
S2140050B06FF085031DE0019823F07EFE0346DB08B3
S2140050C0103B102B8CBF01220022D2B2002A0BD13B
S2140050D00A4A22FA03F303F00103002B14BF01234C
S2140050E00023DBB2002B02D16FF0860301E000BF85
S2140050F00023184603B05DF804FB00BF0101010061
S21400510000B597B00390029101920093029B002B8A
S2140051100ED0039B002B0BD01A9B002B08D01C9B99
S214005120002B05D0189B002B05D1199B002B02D015
S2140051306FF0860378E0039823F03EFE0346DB0814
S2140051401393009B23F47E13394A934268D1039845
S214005150FFF7A4FF1590159B002B01D0159B63E06D
S214005160019A139B9A4202D26FF086035CE0009B82
S2140051701B0C03F03F031493149B002B02D1102347
S214005180149305E0149B102B02D96FF086034BE0B6
S2140051901B9A149B9A4202D26FF0890344E00BAB31
S2140051A0139A0299184623F0E9FD08AB199A189944
S2140051B0184623F0E3FD05AB0EA91022184623F08F
S2140051C0DDFDFEF7B1FE1590159B002B01D0159B5B
S2140051D02AE005AA08A90BAB184600F0D7FE1290E5
S2140051E0FEF7B6FE1590129B002B02D06FF09203CE
S2140051F01593159B002B09D10EAB149A19461A98D5
S2140052002EF068F91C9B149A1A6002E01C9B002280
S2140052101A600EAB1022002118462EF042F902E06A
S2140052206FF085031593159B184617B05DF804FBC1
S2140052300002C00300B587B003900291019200936C
S214005240039B002B08D0029B002B05D0019B002B54
S21400525005D1009B002B02D06FF086033FE002983A
S21400526023F0AAFD0346DB0804936FF0860305933C
S214005270049A009B9A4202D96FF086032FE04C22D4
S214005280002103982EF00DF9089B23F47E13164A8E
S21400529093421FD10298FFF701FF0590059B002B54
S2140052A001D0059B1BE0009A049B9A4202D26FF045
S2140052B0860314E0039B0433049A019918462EF0E3
S2140052C009F9039B049A5A62039B089A1A60002302
S2140052D0059303E06FF08503059300BF059B184612
S2140052E007B05DF804FB00BF0002C00300B589B03C
S2140052F0039002910192039B002B02D0029B002B8D
S21400530002D16FF086037CE0019B002B01D10023C5
S21400531077E0039B1B6823F47E133C4A93426ED1CE
S214005320039B9B6B0793079B002B3ED0079BC3F109
S21400533010030693019A069B9A420FD2079B2833C6
S214005340039A1344019A029918462EF0C3F8079A56
S214005350019B1A44039B9A63002352E0079B283361
S214005360039A1344069A029918462EF0B3F8039B44
S21400537010229A63019A069BD31A0193029A069BFF
S21400538013440293019B002B0FD0039B283310225B
S2140053901946039823F02AFD0590059B002B01D0A3
S2140053A0059B2EE0039B00229A63019B102B17D9C6
S2140053B0019B013B23F00F030493049A0299039880
S2140053C023F014FD0590059B002B01D0059B18E0EB
S2140053D0019A049BD31A0193029A049B13440293E6
S2140053E0019B002B09D0039B2833019A029918468B
S2140053F02EF070F8039B019A9A63002301E06FF089
S2140054008803184609B05DF804FB00BF0002C0031D
S21400541000B591B00390029101920093039B002B7C
S21400542005D0029B002B02D0009B002B02D16FF010
S214005430860363E0039B1B6823F47E13314A934282
S2140054405AD1039B1B681B0C03F03F030F930F9B63
S214005450002B02D110230F9305E00F9B102B02D9CF
S2140054606FF086034AE0019A0F9B9A4202D26FF0D1
S214005470890343E0FEF758FD0E900E9B002B01D0EB
S2140054800E9B3BE0039B03F12801039B9A6B0AAB40
S214005490184623F073FC039B191D039B5A6A07AB3F
S2140054A0184623F06BFC039B03F13C0104AB10226F
S2140054B0184623F063FC04AB04AA0AA907A800F068
S2140054C09DFD0D90FEF744FD0E900D9B002B02D027
S2140054D06FF0920312E00E9B002B01D00E9B0DE0A6
S2140054E0039B3C330F9A194602982DF0F3FF009B5E
S2140054F00F9A1A60002301E06FF08503184611B07A
S2140055005DF804FB0002C00300B58BB0019000916B
S2140055101F4B0393019B04931E4B059346F6110302
S214005520069300F01FFA0990099B142B04D107ABD1
S214005530184623F0A6FD04E0099B002B01D0099B2A
S21400554021E04FF0A84303225A634FF0A84203AB72
S21400555013604FF0A842009B13614FF0A84303224C
S2140055609A6300BF4FF0A843DB6B03F00303002BE6
S214005570F8D1099B142B03D107AB184623F099FDED
S21400558000F020FA034618460BB05DF804FB00BF97
S214005590F81500200400002010B5BAB00291019260
S2140055A0009303468DF80F308F4B31AC0FCB84E859
S2140055B00F00409A019B13445B4203F00F0337939E
S2140055C03D9B002B04D03D9B5B4203F00F0300E0A5
S2140055D010233693419B2D9301232E93429B43F039
S2140055E000532F93429BC3F110031B0203F4F8539E
S2140055F043F0210330933D9B002B01D131AB00E0FB
S214005600009B29939DF80F3083F00103DBB2002B3B
S21400561004D0429B002B01D02DAB00E001232A933F
S2140056203D9B002B03D03D9B43F0005302E0369B8E
S21400563043F000532B939DF80F30002B02D1429B72
S214005640002B01D1212200E00122369B1B0203F42D
S214005650F85313432C93029B259329AB2693019B67
S21400566043F000532793379B1B0203F4F85343F091
S214005670410328933F9B2193019B002B01D025AB30
S21400568000E029AB2293019B002B01D0002201E011
S2140056904FF00052409B13432393019B002B06D1EF
S2140056A0379B1B0203F4F85343F0410300E0412309
S2140056B024933E9B1D9321AB1E934C4B1F9340F6A9
S2140056C0110320939DF80F30002B01D0484B00E0CB
S2140056D0484B19931DAB1A93474B1B9311231C93EE
S2140056E015AB00221A605A609A60DA60012316939E
S2140056F0429BC3F1100343F08043179311AB002283
S2140057001A605A609A60DA609DF80F3083F00103E1
S214005710DBB2002B01D031AB00E0419B1193429BE2
S214005720102B01D015AB00E001231293429B13937C
S2140057300DAB00221A605A609A60DA60429B002B1A
S21400574001D011AB00E001230E93369B43F080435B
S2140057500F9309AB00221A605A609A60DA603C9B8D
S2140057600993369B002B01D00DAB05E0429B002B26
S21400577001D011AB00E001230A933C9B002B02D121
S2140057804FF0804200E000223D9B13430B9305AB95
S21400579000221A605A609A60DA603D9B002B01D0A6
S2140057A009AB00E00DAB0693409A019B1A44379B69
S2140057B0134443F08043079305AA19AB11461846D5
S2140057C0FFF7A2FE3590359B002B01D0359B2BE0D2
S2140057D09DF80F3083F00103DBB2002B23D00023AB
S2140057E039930023389315E0344803001000002056
S2140057F02C480300304803000400002031AA389BE0
S21400580013441B78DBB21A46399B13433993389BF3
S21400581001333893389A429B9A42EFD3399B002B38
S21400582001D02C2300E0002318463AB010BD00BF7C
S21400583000B5A3B00390029101920093029BB3F5CA
S214005840807F0AD0029BB3F5807F1CD8029B802BFA
S2140058500FD0029BC02B0AD015E0249B002B02D051
S21400586040F2344301E040F2144321930DE00F234D
S21400587058E0249B002B02D04FF4866301E04FF4DF
S2140058808263219301E029234CE0249B1D9301238E
S2140058901E9310231F9321232093259B1993249B4B
S2140058A0002B01D01DAB00E001231A9310231B939D
S2140058B001231C93019B1593012316931023179322
S2140058C021231893194B119315AB1293184B13936E
