S00F0000536F6674776172652E7333379A
S214000000C00A0020C10900004DDE01004DDE0100DF
S21400001029EC01004DDE01004DDE01004DDE010041
S2140000204DDE01004DDE01004DDE01004DDE01001B
S2140000304DDE0100308F020005DD01004DDE0100BF
S2140000404DDE01004DDE01004DDE01004DDE0100FB
S2140000504DDE01004DDE01004DDE01004DDE0100EB
S2140000604DDE01004DDE01004DDE01004DDE0100DB
S2140000700D5300004DDE01004DDE01004DDE010097
S2140000804DDE01004DDE01004DDE01004DDE0100BB
S2140000904DDE0100F90E00004DDE01004DDE0100D0
S2140000A04DDE01004DDE01004DDE01004DDE01009B
S2140000B04DDE010061B901004DDE0100B5C301004F
S2140000C05D7C0200597C0200A5BB0100697C020031
S2140000D0617C02008DC30100657C0200F5C301004F
S2140000E0959C0100599E010065C401004DDE01008B
S2140000F04DDE01004DDE01004DDE01004DDE01004B
S2140001004DDE01004DDE01004DDE01004DDE01003A
S2140001104DDE01004DDE01004DDE01004DDE01002A
S2140001204DDE01004DDE01004DDE01004DDE01001A
S2140001304DDE01004DDE01004DDE01004DDE01000A
S214000140013800D0FCE77047002370B5404C0546E8
S2140001508AB0E36318B1008823600BF0A5F93D4828
S21400016027F023F83C4E3D4B304633603C4B7360E3
S21400017022F082FB0021304615F092FC32A3D3E930
S2140001800023A062C4E9062322F081FBD4E90623FB
S21400019019431043C4E90601CDE900014FF0FF33CF
S2140001A04FF0FF32A06A27F07BF802224FF0FF31B3
S2140001B0A06A27F07AF801200AF0F8FE4FF40073E0
S2140001C000222849A06A27F0C4F8B0F5007F38D18D
S2140001D000239422CDE9073309933C23CDE903326B
S2140001E005939623A06A03A9069315F077FD35B309
S2140001F0287C0BF011FB0546F0B9A06A27F08AF9B7
S2140002000BF0B8FA0AF0B4FE20B14FF4807000216B
S21400021007F0BCFE0AF0BCFE20B14FF400600021DF
S21400022007F0B4FE22F0F7FB012015F08DFC0E4A15
S2140002300E49A06A22F01EFB28460AB070BDFF20B9
S214000240D7E70725F8E700BF0DD5015520000000C9
S214000250800F0020690345ECF821002031AE000035
S21400026008220020F81F00201D2802005D2802003A
S2140002700348044B834202D0034B03B11847704730
S2140002800C0F00200C0F002000000000064B074952
S214000290C91A891048BF0131491003D0044B0BB16D
S2140002A001481847704700BF0C0F00200C0F0020B5
S2140002B00000000010B5064C237843B9FFF7D8FFBE
S2140002C0044B13B10448AFF300800123237010BD24
S2140002D0B2290020000000001CD9020008B5054B1A
S2140002E01BB105490548AFF30080BDE80840FFF79D
S2140002F0CDBF00BF00000000E01100201CD90200A6
S214000300A3F5803A704700BF174B002B08BF134B6E
S2140003109D46FFF7F5FF00218B460F461348144A0B
S214000320121A27F056FD0E4B002B00D098470D4BA7
S214000330002B00D098470020002104000D000D4837
S214000340002802D00C48AFF300801CF07BFC200095
S21400035029001DF0CBFC1CF0A1FA00BF000008002D
S2140003600000000000000000C00A00200C0F002063
S214000370CC2A0020000000000000000003681B4A92
S21400038023F47F4323F00703934213B504D0184A9F
S21400039093421DD002B010BD164C20460DF084FED0
S2140003A000B1FEE7022120780DF0B8FE034600B14A
S2140003B0FEE7A0220090114620780DF08DFE00B1D9
S2140003C0FEE7022120780DF0BDFE0028E2D0FEE711
S2140003D0084C022120780DF0A1FE00B1FEE70221B4
S2140003E020780DF0AFFE0028D4D0FEE7A000010074
S2140003F0A00006010E0D00207FB50368244A23F4F2
S2140004007F4323F0070393423ED1002108221220A7
S214000410204B0DF0BDFE014600B1FEE7032214207E
S2140004201D4B0DF0B5FE014600B1FEE70522162075
S2140004301A4B0DF0ADFE00B1FEE70DF1070102A864
S2140004400DF0D4FE014600B1FEE7BDF80C300822E0
S2140004505BBAADF810309DF80B3018208DF81230CE
S214000460FF238DF81330FE238DF814309DF80A30E4
S2140004708DF81530BDF808305BBAADF8163004AB11
S2140004800DF086FE00B1FEE707B05DF804FB00BF86
S214000490A0000100A08C0200A98C0200AD8C020016
S2140004A010B5234C01F0EEF901F00EFC236F23F09B
S2140004B0070343F0030323671DF092FE1D4B002045
S2140004C09B6A9B075EBF01221B4B9A62D4F82031C1
S2140004D023F0030343F00203C4F82031D4F8243198
S2140004E023F0070343F00203C4F82431D4F8403164
S2140004F023F0030343F00203C4F84031D4F860311C
S21400050023F0030343F00203C4F86031D4F840320A
S21400051023F0030343F00203C4F84032D4F8003259
S21400052023F0070343F00203C4F8003210BD00BFF7
S2140005300080005000C0005000E0005008B501F0F8
S214000540A1FF01280ED1144B04205A6E4FF48023CD
S2140005501249520358BF124A4B6601F51041086211
S21400056058BF536603F0B4FD1DF06CFC03F040FD6D
S21400057003F098FD03F05EFD1EF050FBFFF790FFC2
S21400058003F046FD1DF055FC00F0D4FA00F0EEFC3A
S214000590BDE8084003F036BF0080005000900050D1
S2140005A000A0005008B53A20012101F091F8BDE8FE
S2140005B00840014800F006BBC00A0020024B034971
S2140005C0186800F097BD00BFF40A0020D40A002087
S2140005D030B589B06C46094D0FCD0FC495E80F00B5
S2140005E084E80F00064B69460648029300F082FD39
S2140005F010B105481CF0BEFA09B030BD108F0200DD
S214000600010003027C120020E08E02009F2313B537
S2140006108DF80030042300240DEB030269460B48D6
S214000620019400F091FE9DF80530202B0CD19DF82A
S214000630060048B99DF80730152B03D104481CF076
S21400064099FA012002B010BD2046FBE77C1200207C
S214000650008F020008B5064B834207D1054B1B7876
S21400066023B1C8B20DF082FD00B1FEE708BD00BFA1
S21400067000130020B329002030B500250368344A53
S21400068023F47F4323F0070385B093420446029584
S214000690ADF80C5035D002F5802293420CD0A2F172
S2140006A08272934251D12B4B1B78002B4DD005B054
S2140006B0BDE830401EF0A1BBB0F805301B2B44D17E
S2140006C0FF2304A91A4611E903001DF0A9FB01281F
S2140006D014BF41F2FC151F4B4FF01B0108BF1870EA
S2140006E005F0FC0220790DF069FD00B1FEE71A491D
S2140006F000902379194A0968194800F06DF820B36C
S214000700FEE7B0F80530B7EE047A07EE903AF8EE5A
S214000710677AB0F8073067EE877A013307EE103A4B
S214000720B8EEC77A67EE877AB1EE047A67EE877A14
S214000730FAFE677AFCEEE77A17EE903AB3F57A7F20
S21400074038BF4FF47A73044A136005B030BD00BF5B
S214000750A0000602B3290020F80A00205506000073
S2140007600013002038B505461DF056FD00230B4A41
S21400077014685CB1AC4206D1A96A6BB199621DF0EF
S21400078051FD012007E02346A46AF2E7002DF3D0CE
S2140007901DF048FD204638BD1160F0E738130020F4
S2140007A010B5044698B104F05DFB2046FFF7DAFF6B
S2140007B010B194F82C300BB9002010BD1DF02CFDA4
S2140007C0044A1368013B13601DF02CFDF4E7222059
S2140007D0F3E700BF3C1300202DE9F04385B0054643
S2140007E0914698460E469DF8307009B9002F5CD1A8
S2140007F02846FFF7D5FF0446002836D185F82C009A
S214000800686304F021FC864233D904F0BDFB214620
S214000810844640F2E7304FF47A720023E6FB0C0180
S2140008201BF0A4FE4FF0FF3200231BF09FFE2B466A
S214000830E88611462846CDE900441D4A1EF06AFAAD
S214000840044690B9C5E9089885F82D702E631DF00A
S214000850E3FC184A136833B31A469B6A002BFBD195
S21400086095620023AB621DF0DDFC204605B0BDE8B6
S214000870F08347B12B4631462846CDE900440C4A62
S21400088004F0A6FBDCE7304603A904F083FB04462D
S2140008900028EAD12B462846CDE90077044A03997A
S2140008A01EF014FACCE71560DBE72124DDE700BF75
S2140008B0B90800003813002091F82C3013B50C4608
S2140008C083B98B8ECA8E93420ED243B9CDE90033DC
S2140008D020460B46104A4FF0FF311EF0DBF9A38E80
S2140008E00133A38602B010BD52B191F82D307BB112
S2140008F001230093D1E908232046096BFFF76CFF1C
S2140009000123064A84F82C30136801331360E9E7A4
S214000910084604F0A7FAF3E7B90800003C130020E5
S2140009202DE9F041144E336823B34FF00008134FFF
S2140009301DF072FC05463C6824B92846BDE8F04127
S2140009401DF070BC94F82C3093B1336884F82C807A
S214000950013B336094F82D3013B92046FFF702FFB1
S21400096028461DF05FFCD4E9083120469847DFE7AB
S214000970A46AE1E7BDE8F0813C13002038130020AC
S214000980034B1B68002B14BF04200120704700BFD8
S2140009903C130020024B1868B0FA80F040097047FC
S2140009A03C1300200348044A0449121A92101DF012
S2140009B04EBA00BF7CDD02007CDD0200CC2A00209F
S2140009C008B500F02FF8FFF7EDFF124B12498B42E7
S2140009D012D30020114B12498B4218D3FFF794FC18
S2140009E0186850F82240586840F82240013298684B
S2140009F08242F5D30C33EAE70022F8E71C6844F895
S214000A00220001325C68A242F8D30833E4E70022F1
S214000A10F8E700BF24D9020030D9020030D902001E
S214000A2030D902004FF400414FF0FF30124B134A0A
S214000A3010B59A60D3F8882042F47002C3F8882074
S214000A400F4A916601F1884101F5005210664FF693
S214000A50DF7050660220C3F8D000BFF34F8FBFF39D
S214000A606F8F08244FF440330648C0F88041D360A7
S214000A7004600B6110BD00BF00ED00E00000000048
S214000A800090005000E100E0014B1868704700BF7E
S214000A90000B0020084B1B6F03F00703022B04D04B
S214000AA0032B05D0012B05D0FEE7044B18687047D2
S214000AB0034BFBE70348704700800050000B002004
S214000AC0080B0020002D310108B5FFF7E3FF054BAA
S214000AD01B6FC3F303330133B0FBF3F0024B186014
S214000AE008BD00BF00800050FC0A00200048704788
S214000AF000B4C404014B1868704700BF080B002000
S214000B00054B1860054B1B6F03F00703032B01D141
S214000B10FFF7DABF704700BF080B002000800050C8
S214000B2000487047002D3101014B1868704700BF20
S214000B30040B002000239B6A10B5B3F5903F11D23A
S214000B4019680A4A91420DD1094C227812F0FD0F1D
S214000B5001D0002010BDDB6998470028FAD1012398
S214000B602370F6E74FF48170F4E700BF07B0CD5E60
S214000B70B42900204FF00053074A1A60BFF34F8F86
S214000B800649074BCA6802F4E0621343CB60BFF322
S214000B904F8F00BFFDE700BF02020FF000ED00E040
S214000BA00400FA050346054A0549106803448B42CB
S214000BB08CBF4FF0FF301360704700BF0C0B002057
S214000BC0008000202DE9FF410368374A044693421F
S214000BD055D0364A93424FD12F20012100F078FDA0
S214000BE001230A226179207901F08CFA01230A2276
S214000BF0E179A07901F086FA0A2601272C4D4FF0FC
S214000C00300842F210012379627908FB035307FA91
S214000C1002F25A50642004F0ABFB41F21001237933
S214000C20627908FB035307FA02F264205A5004F074
S214000C309FFB013EE3D120681B4B984221D1032342
S214000C40C5F890346279237943EA0243C5F89434B0
S214000C50E279A37943EA0243C5F8983440F20113D7
S214000C60ADF80030E36869460293A3680193237CDD
S214000C708DF80C3001F0C4FA04B0BDE8F0812E20E7
S214000C80ABE70A4B9842E9D10323C5F8A034627952
S214000C90237943EA0243C5F8A434E279A37943EA08
S214000CA00243C5F8A834D9E70000015A0080065070
S214000CB000C003502DE9F04F9A46564B85B01B787E
S214000CC006460F461546DDF83C909DF844B0DDF824
S214000CD05080002B00F09780072A00F296800E9B2B
S214000CE0002B00F09280B9F1000F00F08E80129B6E
S214000CF0B3F5006F00F38980012803D1109B002B09
S214000D0000F08380444B03EB05131B7B002B7ED047
S214000D10424C10220021684627F05BF804EB45148D
S214000D201022A7BB3946204627F053F843F210039B
S214000D306380BBF1000F03D1E37843F00303E37055
S214000D40364A0E9B02EB451CCCE90193129B6901C7
S214000D50581E9DF84C30C0F30A0003F003039B06B0
S214000D6043EA001E53582E48012E00EA03004EEABE
S214000D700003CDF800A0535017D0B8F1000F2ED1C5
S214000D809CF8023068F304138CF8023027E0002148
S214000D90204627F01EF84FF444736380BBF1000F23
S214000DA0CED1E37843F03003C9E713230CF1100EDD
S214000DB0CCF80C309CE80F008EE80F006FF00301B3
S214000DC0DCF81C20109B61F39F02012FCCF81C203E
S214000DD0CCF8143003D1CCF81890CCF804300027A7
S214000DE00D4A290102EB051342F80180159A2846A0
S214000DF05A60694622469F605E7301F055FA38468F
S214000E0005B0BDE8F08F0748FAE70748F8E7074857
S214000E10F6E700BFB529002040140020401300204C
S214000E200F80FFF3028000F0018000F0078000F0E2
S214000E3038B5124B05461B78DBB1E0B11DF0ECF976
S214000E400F4A00231146147B54B92B6001251A0162
S214000E5001EB03131D738C501DF0E4F9204638BDDA
S214000E600133082B02F11002EDD11DF0DBF9054825
S214000E70F5E70548F3E70548F1E700BFB529002088
S214000E8040140020048000F0028000F0018000F092
S214000E90154B13B51868002301908DF804301DF02B
S214000EA0BBF9124B1C7824B11DF0BCF9104802B0F7
S214000EB010BD01221A701DF0B5F90E4B01A81C7367
S214000EC01C7783F82C4083F83C4083F84C4083F82A
S214000ED05C4083F86C4083F87C4008238DF807302C
S214000EE001F0B0F92046E2E7808F0200B529002025
S214000EF0038000F040140020184B2DE9F0411F6DD0
S214000F005B6D1F4000D5FEE701260025144CDFF878
S214000F105880374218D02368C8F85060A3B1A1683B
S214000F20284601316268A1609847637B012B0BD18C
S214000F3050B90C4B03EB45131A7B60F341021A734E
S214000F401A7F60F341021A770135082D4FEA4606EC
S214000F5004F11004DDD1BDE8F08100BF00000450AC
S214000F60401400204013002000200450024B196853
S214000F70024B186814F0A6B9100B0020300B0020A6
S214000F8070B59400224605460E4627F06DFE431CBB
S214000F900AD058B922463146284626F0F0FE0028E8
S214000FA0034808BF002070BD0248FCE70248FAE785
S214000FB010E000F021E000F024E000F010B5044658
S214000FC027F04EFE431C10D088B901F063FA234682
S214000FD020F003002044984201D1002010BD53F8B1
S214000FE0042B0132F7D00348F8E70348F6E7034836
S214000FF0F4E700BF0EE000F021E000F024E000F08F
S21400100008B51DF002F9014B186008BDB01B0020A2
S214001010014B18681DF0FDB8B01B002038B505461A
S214001020B0B1B9B1B2B1B2F5006F13DC1DF0F4F88F
S21400103095F84C3003F0FF041BB11DF0F3F806489A
S21400104038BD012385F84C301DF0ECF82046F7E754
S2140010500248F5E70248F3E7032000F0012000F01D
S214001060022000F02DE9F04F1E46002387B080F8DE
S214001070543090F85C70109B044688469146C663D0
S21400108043634FBB4FF4406305686B614369092BAC
S21400109025D905F12C0A443501274FF0010B2046CF
S2140010A01CF0B4FF124B0494CDE902730196CDF800
S2140010B000B053464A46216BA06A1CF00AFF002384
S2140010C0CDE90167CDE90333CDF800B043462A46A3
S2140010D0E16A606A1CF0E3FE07B0BDE8F08F03D15A
S2140010E005F1200A3835D7E705F1240A3C35D4E760
S2140010F0CFDF01002DE9F04304468A4F89B001AEE8
S2140011000D460FCF0FC697E8070086E80700002CAD
S21400111000F006811DB9844809B0BDE8F08384223A
S2140011200021204626F055FE2B68804A934200F0A8
S214001130B68002F580429342EDD129204FF4A022DA
S2140011404FF001087A4926462F46C4E90B1220655F
S21400115046F8043B0FCF0FC697E80F0086E80F004F
S2140011606B7E012B08BF8DF81230AB7E33B1012B9E
S21400117040F09C804FF40073ADF814302B7E0121B4
S214001180012B03BF00238DF811304FF4E133EB68D9
S2140011903A20039300F09CFA0121206D00F098FAA3
S2140011A02B691A1F0C2AB6D8033B286801A98DF8AC
S2140011B0103001F0A1F9AB6923F47F0323F47F43D9
S2140011C023B92268936843F4803393602B7A287996
S2140011D0697940EA03406B7AAA7941EA0341AB7A1F
S2140011E0EE7E42EA0342534B4FEA48184344002E31
S2140011F067D11D26C3F81C66C3F83406C3F82C1640
S214001200C3F83026E97AEA7942EA0142C3F8202692
S214001210E37BE27A277F207A94F80980A57A217BFF
S21400122094F80D90A67B84F8442084F84530002F6F
S21400123051D13B46042200F065FF3B460122494659
S214001240404600F05FFFA37F0422012B94BF3B467D
S21400125001233146284600F055FFE37F3BB90123C2
S214001260042294F8451094F8440000F04BFF1CF05C
S214001270D3FF314B1A78002A47D101221A701CF08E
S214001280D1FF03F0B5FDFFF703FE002104F12400B3
S214001290FFF7CEFD014600283AD028483CE7282034
S2140012A04FF480224FF0000825494CE7022B02D16C
S2140012B04FF4807360E7032B7FF42DAF4FF4407339
S2140012C05AE71C25C3F81C56C3F83406C3F82C1678
S2140012D0C3F830269CE70023012200F013FF00230A
S2140012E004224946404600F00DFFA37F0222012B50
S2140012F094BF002301233146284600F003FFE37F16
S214001300002BB4D101230222ABE71CF08BFFBAE717
S21400131004F12800FFF78CFD00283FF4FDAEBCE783
S2140013200848F9E6A88F0200022000F000C0055029
S2140013300200050000C00350B6290020092000F076
S21400134002000400012000F0F7B51E46037F0446A5
S214001350012B0F46154612D03246FFF75FFE60B9E6
S2140013607DB1094B2A463946204600933346FFF79F
S21400137079FE20461CF001FEA06C03B0F0BD0348C9
S214001380FBE70348F9E700BF71DF0100082000F023
S214001390022000F0044BD3F88420D206FBD4D3F806
S2140013A08400C0F3811070470040005038B5104BE1
S2140013B00546D3F820310C4603F00303022B0BD06E
S2140013C0032B0DD0012B0FD1FFF75EFB052305B1D4
S2140013D0286004B1236038BDFFF78CFB0323F6E7D3
S2140013E0FFF79EFB0223F2E701230020EFE700BF92
S2140013F00080005073B50D4600210E4B0191D3F8C6
S2140014008041064604F00304012C09D0022C0CD0BF
S2140014100C460EB1019B336005B12C6002B070BD66
S21400142001A8FFF7C3FF0F24F3E7FFF779FB01904E
S214001430EFE700BF0080005038B5184B0546D3F8DC
S21400144024010C4600F00700062823D8DFE800F049
S214001450040A121A1E0E1600012305B1286004B1F4
S214001460236038BDFFF710FB0523F6E7FFF70CFBFC
S2140014700623F2E7FFF73EFB0323EEE7FFF73AFB10
S2140014800423EAE7FFF74CFB0223E6E71CF0EAFC3E
S2140014900723E2E700231846DFE700BF008000507E
S2140014A038B5104B0546D3F840310C4603F003031D
S2140014B0022B0BD0032B0DD0012B0FD11CF0D4FC2C
S2140014C0092305B1286004B1236038BDFFF72CFB63
S2140014D00823F6E71CF0CBFC0B23F2E701230020E1
S2140014E0EFE700BF0080005038B5144B0546D3F830
S2140014F000020C4600F0070004281BD8DFE800F0C6
S21400150003090D111500012305B1286004B12360FD
S21400151038BD1CF0A9FC0923F6E7FFF705FB0823F6
S214001520F2E71CF0A4FC0B23EEE7FFF7CDFA0E2340
S214001530800AE9E700231846E6E700BF008000506F
S21400154038B5104B0546D3F840320C4603F003037B
S214001550022B0BD0032B0DD0012B0FD11CF084FCDB
S214001560092305B1286004B1236038BDFFF7DCFA13
S2140015700823F6E71CF07BFC0B23F2E70023184653
S214001580EFE700BF0080005038B5104B0546D3F893
S21400159060310C4603F00303022B0BD0032B0DD057
S2140015A0012B0FD11CF060FC092305B1286004B1A3
S2140015B0236038BDFFF7B8FA0823F6E71CF057FC9F
S2140015C00B23F2E701230020EFE700BF0080005066
S2140015D010B40D4C0B46D4F8204204F00304012C42
S2140015E00AD0022C0CD008B1002101600BB10022F9
S2140015F01A605DF8044B70475DF8044BFFF7D6BEE3
S2140016005DF8044BFFF74CBF0080005038B50C4621
S21400161005461CF0FAFD054B9A6A54402C4054408F
S2140016209C62BDE838401CF0F4BD00BF00C000500E
S214001630B0F5207F1FD009D8B0F5007F15D003D8AD
S21400164068B1B0F5C07F0AD000200CE0B0F5607F2E
S214001650FAD10B4BD3F88000C0F3011003E0084B1F
S214001660186FC0F3033001307047054BD3F8900075
S214001670C0F30460F7E7024B186FC0F38020F2E770
S214001680008000504FF400320E4B014610B500208B
S2140016909A66FFF7CDFF484341F671320A490B4B75
S2140016A0884294BF00200120DC69DA639A6822F43D
S2140016B0401242EA00529A60E20344BF0022DA6314
S2140016C010BD00BF00900050005A62020000035098
S2140016D0420910B50FD0012A0FD00A4B0A4C022A35
S2140016E018BF234600F01F0049B103F580530122BE
S2140016F082401A6010BD1346F4E7044BF2E703F588
S2140017000053F4E768800050608200506480005008
S21400171008B580201CF09BFC034B98429EBF4FF4FC
S2140017208032024B1A6708BD005A620200A00050C1
S2140017301FB50023B0F5807F019377D028D83828CE
S21400174000F094800BD82438092810D809280ED821
S214001750DFE800F0676767670D0D620D377D52287A
S2140017605FD008D83D283BD03E2800F08480019802
S21400177005B05DF804FB8028F9D1414B1B6F03F0E0
S2140017800703013B032BF2D8DFE803F044413F6C2C
S214001790B0F5D06F5BD019D8B0F5A06F66D00AD878
S2140017A0B0F5806F3DD0B0F5906FE0D1002001A974
S2140017B0FFF742FEDBE7B0F5B06F2DD0B0F5C06F97
S2140017C0D5D1002001A9FFF76BFED0E7B0F5006F7A
S2140017D0ECD00AD8B0F5E06F4DD0B0F5F06FC6D1BA
S2140017E0002001A9FFF7D0FEC1E7B0F5086FBED113
S2140017F0234BD3F8003103F00303022B2CD0032B2A
S2140018002ED0012B30D1FFF775F9032300E0052316
S2140018100193ACE70223FBE7002001A9FFF7EAFDEE
S214001820A5E7002001A9FFF7C1FDA0E702934FF04E
S214001830E0231B695B0705D5FFF746F90C230393E6
S214001840039BE5E703A902A8FFF72AFEF8E70020B6
S21400185001A9FFF749FE8AE7FFF766F90823D7E7ED
S2140018601CF000FB0723D3E70123D1E7002001A9E2
S214001870FFF7AEFE7BE7002001A9FFF761FE76E7E3
S214001880008000504FF40022034B5A66012203F5F5
S21400189080439A62704700BF0090005008B5FFF77B
S2140018A047FF082811D00938012802D94FF6FF70E3
S2140018B008BD4FF40012064B5A6603F5D8335B6A30
S2140018C0DB07F3D54FF4FA70F2E7024B1888EFE720
S2140018D000900050FC0C0020F8B504468020FFF76E
S2140018E027FF032800F087804FF40022424B022196
S2140018F05A6645F60E03414AC2F88030404B99625C
S214001900012103F580539962936DD903FCD4D4E981
S21400191000131B0543EA0163E17B94F820500B4358
S214001920217BE77E43EA0143617B6D0143EA013395
S214001930A17B43EA811313619169D4E904031B0672
S21400194043EA806301F000410B43A17E94F8230034
S2140019500B43217E43EA0143617E43EA0123936100
S214001960136AE66923F00D0394F8221043EA87030E
S214001970002E2DD11362966A94F8213045EA03139F
S21400198026F033052B4343F0010393621D4D1B4B9A
S2140019909A6D35EA0202FBD10222194DAA621A6537
S2140019A09A6D5200FCD41A69A56822F4700242EAC5
S2140019B005521A614FF00042114B9A6119B9022282
S2140019C003F580539A6278B901220F4B9A620BE0B6
S2140019D0334343F008031362936A23F0330303434D
S2140019E02B4343EA4103936294F824301BB1034B24
S2140019F0064AC3F88020F8BD0090005000C0005092
S214001A0000D000500300014000E00050F1A7FFFFA7
S214001A101E4BFF2870B59E6A35D89A6D12F4803F2B
S214001A2018BF01211A4A18BF9162022191629B6D6C
S214001A30DC0303D5154A936D9907FCD50222144B97
S214001A40124D1A65AC6D14F08044FBD1114AAB6997
S214001A5092F9002023F47F03024423F47F4382F3A9
S214001A60080243EA002343EA0243AB613146022000
S214001A70FFF7CCFDAB6DDB0303D531460120FFF746
S214001A80C5FD204670BD2124FBE700BF00C0005006
S214001A9000D00050B7290020014B93F90000704792
S214001AA0B729002001221548154B816A9A62826D7B
S214001AB002F00302032AFAD102229A621A650F4A3A
S214001AC0936D5B00FCD40F48936D30EA0303FBD1A3
S214001AD001220B4B1A65A3F580539A6D9007FCD430
S214001AE09A6D9207FCD50222054B1A65034A936D40
S214001AF09B07FCD50320FFF789BD00BF00C0005040
S214001B0000D0005003000100F0B5D0E901434FF4C7
S214001B1080061A4A4178057856664FF4D156022751
S214001B2002F5B8325662164E4F2977604FF001071D
S214001B3028BF4F2106F5805677601669F603FCD459
S214001B4041EA052151611B01417B43EA04230B4313
S214001B50017B43EA41039360C37B817B1B0143EA1D
S214001B604113417C0B43017C43EA41035360837C71
S214001B7013B16FF4D1535362F0BD00BF0090005014
S214001B8000100250014B1880704700BFFC0C00206C
S214001B90014B1880704700BFFA0C00204FF400126B
S214001BA008B5184B5A660223174A5360936813F415
S214001BB08033FBD1012822D1FEF79CFF134B9842BD
S214001BC015D003F5122303F5F863984213D0104B93
S214001BD000EB8002400AB3FBF0F3520A0A49CA62DD
S214001BE00B6301234B620022074B5A6008BD45F683
S214001BF07A13084AF2E745F61A03074AEEE75362F5
S214001C00F1E700BF009000500040025000F049028B
S214001C1064666666D8B80500BBCF0500B0F5207FC1
S214001C2010B50C4642D008D8B0F5007F33D003D8A4
S214001C3088B1B0F5C07F0ED010BDB0F5607FFBD187
S214001C401F4A4C1ED2F8803023F0300343EA0413B8
S214001C50C2F88030F0E71CF0F2F91CF0BCFA4FF442
S214001C608031184B164A1967136F013C23F47043F2
S214001C7043EA04331367FEF727FF0446FFF78AFBA1
S214001C80C0F1020120461CF0A0FA00F02DF8BDE8D5
S214001C901040FFF73DBD0A4A4C1ED2F8903023F0A4
S214001CA0F85343EA0463C2F89030C5E7044A4C1E72
S214001CB0136F23F4806343EA84231367BCE700BFF3
S214001CC0008000500090005008B50121022000F06E
S214001CD021F91CF0B4F91CF07EFA4FF48032014B67
S214001CE01A6708BD0090005008B54FF4C0701CF08D
S214001CF0AEF9BDE808400449884294BF012102219C
S214001D004FF42070FFF78ABF80F0FA020028ABBFBE
S214001D1000F16040054B00F5614000F00F00ACBFDD
S214001D2090F80003185C0009704700BF14ED00E04F
S214001D30034B5868C0F30800003818BF01207047EE
S214001D4000ED00E0054B420953F8223000F01F007A
S214001D5023FA00F0C04300F00100704700E100E005
S214001D60014608B5EFF31083DB0702D501221046C3
S214001D7008BDFFF7E7FF02460028F7D10846FFF741
S214001D80C5FF0146EFF3118313B1B0EB131FEDD27D
S214001D90074B5B68C3F30803002BE8D0103B58B230
S214001DA0FFF7B4FF88428CBF00220122DFE700BFA6
S214001DB000ED00E010B5224B70B94FF40031214A17
S214001DC01860516602F598325268012A03D11E4AFD
S214001DD0D2F800211A6010BD1B68002BFBD01B4AEE
S214001DE05268012AF7D0184A8020C2F80031FFF75F
S214001DF09FFC05281FD14FF4C070FFF719FC01287F
S214001E00044604D102214FF4C070FFF707FF0722F3
S214001E100F4B1A610122A3F580535A600B4A1369CF
S214001E20DB07FCD5012CD6D12146BDE810404FF487
S214001E30C070FFF7F3BE0122064B5A60CBE700BF27
S214001E40B41B0020009000500080005000C00150DD
S214001E5000E0015000D00150044A4178536F23F44B
S214001E60407343EA01235367704700BF00400050A9
S214001E7010B5044610B10020FFF79CFF0E4A136908
S214001E8043F00403136102F0BFFD1CF0CEF91CF012
S214001E90BCF926F0E1FE1CF0BCF91CF0C7F902F014
S214001EA0DBFD1CB9BDE81040FEF70EBE0120BDE804
S214001EB01040FFF77FBF00BF00ED00E010B50446FE
S214001EC010B10020FFF776FF0C4A136943F00403B5
S214001ED0136102F099FD1CF098F926F0BDFE1CF087
S214001EE098F902F0B9FD1CB9BDE81040FEF7ECBD4C
S214001EF00120BDE81040FFF75DBF00BF00ED00E029
S214001F00034A0179D36E23F030030B43D366704740
S214001F1000400050F8B504461C4BD3F88420D10688
S214001F20FBD4D3F88430C3F381139C422CD0FEF745
S214001F30B1FD012C064602D121461CF046F91CF0E4
S214001F4064F94FF00072124B07465A6620461CF0A2
S214001F5074F94FF480630D4D621E93402B676B6ED1
S214001F609A0103D4D5F884309B060AD538461CF06F
S214001F7050F9022C08D13046BDE8F84000211CF08C
S214001F8024B9D5F88430EAE7F8BD00BF0040005019
S214001F900060005010B50C4608B9FEF77BFD074BF5
S214001FA021461B783BB1064B984204D80120BDE879
S214001FB01040FFF7AFBF0220F9E700BFB8290020A6
S214001FC0005A62020278034B012100201A70FFF7C4
S214001FD0E1BF00BFB82900204FF0004238B5264BBD
S214001FE026495A6601224A604AF6CD3103F50B238C
S214001FF05D6C1964154030BB9968C9070BD4002482
S21400200001221F4B5A6015B11E4B1F4A1A6425F059
S2140020105FF9204638BD1A498A601C4AD96ACC073F
S21400202005D4904201D10724EAE70130F6E7904252
S214002030E5D1F8E70132DC6A14F0080406D08A42DB
S214002040F8D10724DFE700221049F4E78A42F8D0E7
S21400205020220B4B0B495A620122A3F580539A604B
S21400206023460A4A486A800603D49342E9D00133DD
S214002070F8E79342C7D1E4E70090005000500950BB
S21400208000600950004009503254FFFF40420F00E4
S2140020904FF0004238B5174B174C5A66012203F52D
S2140020A00C235A604AF6CD33656C2364437893401C
S2140020B01343124AD363C3788178A2689B0043EA2D
S2140020C0011322F074021343A3600279837943EA72
S2140020D0022323614279C37943EA022363610078CD
S2140020E0FFF77AFFEB0744BF054B236425F0F0F8B3
S2140020F0012038BD009000500040095000400050BC
S2140021003254FFFFF8B504460D461F4616464AB140
S21400211001238B403021184A01FB0022F7B141F21F
S2140021201001535004EB4403072D4FF00F014FEA04
S214002130031316D8A80006FA00F281400F48184488
S2140021401CF07CF84EB9012330210B4AAB4001FB52
S214002150042277B141F210015350F8BD42F210014B
S214002160DFE7A5F10800800006FA00F28140044887
S214002170E5E742F21001EFE700C0035004C0035049
S2140021800CC00350F8B505460E4614465AB303F085
S2140021900307836823F4407383601CF036F8AA684C
S2140021A082EA072303F440735340AB601CF031F817
S2140021B036B9104B9D4217D12E201BF048FF06461D
S2140021C0AB680D4BDA5D62430DD0A2EBC403013B56
S2140021D03344B3FBF2F3AA68013B920702D5002B07
S2140021E008BF0123AB61F8BD044B9D42E8D12F2008
S2140021F0E3E700BF0000015AC48F020000800650CB
S21400220038B500230E4A036400F50053DA634A78B3
S21400221004460D4600F108037AB903F580530222FE
S2140022201A602046D5E901122B7BFFF7ABFF20464C
S2140022302978BDE838401CF010B803F50053EEE7E7
S214002240FFFF1F0010B5012104462020FFF740FACB
S21400225001212120FFF73CFA0122114B5A60227817
S21400226012069A606178A27842EA01429A61FF22D9
S2140022709A6200229A631A644FF000425A654FF041
S214002280FF324FF4001103F500531A65054AC2F8F1
S2140022908011E3781B01DBB282F81533116010BDA4
S2140022A00000045000E100E0F8B50125C3B2DFF8F5
S2140022B088C0D1F800E09D408F7ACB7A0C46097B27
S2140022C0CCF850500CF5005C4CF820E04FF0300E87
S2140022D0184E1B050EFB006094F80DC043EA07433A
S2140022E043EA415322F00302C0F860C0C3650267A8
S2140022F01BF092FF736D2B437365237A13B1336C17
S2140023002B433364637A13B1B36B2B43B3632279E5
S214002310A37943EA0243084A93616179E37943EA81
S214002320014306498B61034B55639D64BDE8F84045
S2140023301BF078BF0000045000200450001004502A
S2140023404FF40032054B9A6641F6713203F51C33A2
S214002350DA63012203F50053DA60704700900050FC
S21400236041F671320121064BDA6303F50052D16063
S2140023700022DA634FF40032A3F518339A667047EA
S21400238000000350CB784A7810B55B010C7843EA1E
S21400239082030A79234343EA02130C22424302F1E2
S2140023A0B0421363012C02BF8A78024B43F8202008
S2140023B010BD00BFE880035008B54FF0B0435A6820
S2140023C06AB958B15B680BB11BF051FF01210D4B88
S2140023D059601BF04CFF4FF0B043D96008BD5B68F6
S2140023E00BB11BF044FF0028F0D11BF040FF4FF06C
S2140023F0B0430222DA601BF03AFF0122024B5A6019
S214002400ECE700BF00100058002000584FF0B04125
S2140024104B6810B50BB11BF02AFF01220B4BC4789A
S2140024205A608378934043EA8403447823430479CC
S21400243043EA0413447943EAC4038B60044B5A60AE
S2140024400378C3F10203CB6010BD00BF0020005824
S214002450001000584FF48032064B5A6603F5E62308
S2140024605B69C3F38512827003F03F021B0B427058
S2140024700370704700900050014B986CD96C704701
S2140024800080E00F024B1868C0F30740704700BF9B
S2140024900080E00F0120034B9B680A3303F01F0304
S2140024A0984070470080E00F012200F580535A6084
S2140024B040F6AA6341F20502436100230B4983609C
S2140024C0C365C26000F500520361C361C3649164D2
S2140024D007498365884203D103650023436502E00C
S2140024E004498842F8D0012353607047FFFF01007B
S2140024F000C005500000065038B50D46FFF7D4FF63
S214002500012200F580535A602B8A826843F001034B
S2140025101343AA7B044643EA8223836083682A7DAA
S21400252043EA42738360AB7C5BB11D4AEB7C90420E
S2140025302DD1A2F51032C2F88C31E36D43F0800342
S214002540E3652B7B2046D5E9011243F48053E36014
S2140025501BF095FE6B7B0BB1102363616B7D1BB18B
S214002560A36843F48033A360AB7D1BB1A36843F438
S2140025700043A360EB7D2A7E1B07120503F0E043B1
S21400258002F4E0021343A3652B78636138BD054A65
S214002590904204BFA2F52032C2F89C31CDE700BFBE
S2140025A000C005500000065038B50446054D24F01E
S2140025B0B4FE0FCC0FC594E8030085E803000020A6
S2140025C038BD00BFB81B002047F6FF739A42F0B52F
S2140025D06FD002296FD8394B5B5C012B6BD8384D16
S2140025E0DF0005EBC30415F83330A178012B13D1B7
S2140025F00025E078401AA84202D80844C0B2F0BDD0
S214002600431B6668A0EB530336F913609642D4BFAB
S2140026101D4603F1FF30EEE760680028EFD0B0F902
S2140026200040944204DBB0F902409442B8BF14461E
S21400263083883D44FF2B19BFC8224FF0280CB0F901
S2140026400620B0F908C0A2EB04030CBF0126002642
S21400265093FBFCF333446E781BB29E4201DD002BE5
S21400266001DA731E1BB24FF47A7C01339BB2071D4E
S2140026705D1E2DB24FEAC50E00EBC505EA88AD68B3
S2140026809E4214FB025222EAE27202F15C02B2FBA4
S214002690FCF204DD37F8335001339542E8D200EB04
S2140026A00E039888904228BF1046884238BF0846D6
S2140026B0A4E7FF20A3E70020A1E700BFC88F020021
S2140026C0B81B00200229F0B555D82C4B585C0128C1
S2140026D051D82B4C04EBC00114F830004B6801288D
S2140026E00FD1C8788C78904294BFC4EB0001C4EB3D
S2140026F00201001BCAB28242C8BF002233F9120090
S214002700F0BD002B37D08878904202D3B3F9020090
S214002710F6E7CC78B3F900009442F1D94C78998862
S214002720013CA1F1FF06714203F10405E4B27141D8
S21400273003F10C07CEB2B44216D805EBC1014FF434
S2140027407A756A43B1F902404968521A04EBD471AB
S21400275002EB610292FBF4F29042D1DBB3F9020085
S2140027609042CDDC10B2CBE737F831C04E1C944512
S214002770E3D33146DEE70348C2E700BFC88F020056
S214002780B81B00200080FFFF08B50448FFF70CFFC9
S214002790BDE80840012024F0C4BD00BF8C960200AE
S2140027A000487047FE0C00207FB50222084B0949FE
S2140027B0CDE901234FF00073CDE90313052301A9EA
S2140027C04FF0FF30059324F0E1FD07B05DF804FB01
S2140027D0006A1800000204001B0603F0706300F095
S2140027E00F000902034301F47061120402F4702220
S2140027F00B431343014A1360704700BF0020025C7E
S21400280060B5054619B10139B1F5806F0FD2094E92
S214002810F06810F48030FBD143EA012312072B4303
S21400282002F08052134343F00043736060BD012002
S214002830FCE700BF0020025C0122054B9A60DA68C4
S214002840D203FCD4D86820F00F000004000C7047B8
S2140028500020025C014B1868704700BF0040025C15
S214002860014B5868704700BF0010025C014B186BA4
S214002870704700BF0010025C014B1868704700BF2D
S2140028800010025C014B9860704700BF0010025CAD
S214002890014B1864704700BF0010025C014B58647F
S2140028A0704700BF0010025C014B5863704700BFC2
S2140028B00010025C0022014B1A6070470010025C98
S2140028C0024A136843F00103136070470010025C6D
S2140028D0024A136823F00103136070470010025C7D
S2140028E043F20402014B1A60704700BF0010025CFE
S2140028F0024A136843F03003136070470010025C0E
S214002900044B1A6842F480721A601A6822F48072C5
S2140029101A6070470010025C024A136843F4806332
S214002920136070470010025C034A136823F4702398
S21400293043EA0043136070470010025C044B1A69B8
S21400294002605A6942609A698260DB69C3607047B8
S2140029500010025C0268044B1A6142685A61826881
S2140029609A61C268DA6170470010025C024B1A6B0B
S214002970D207FCD4186270470010025C0322024B98
S214002980186019615A6370470000025C82B01FB578
S21400299007930A9B04AC8B4228BF0B4604E907004A
S2140029A01048D100079948BF03330160099948BF12
S2140029B023F0030323F0704301F0E041194341F094
S2140029C000518160002102F0E042019C1A4342F06F
S2140029D00052C16004618261416304B0BDE81040EA
S2140029E002B070470000025C3F22034B1A631022BD
S2140029F0DA6103229A6370470000025C024AD36BD6
S214002A009B07FCD4704700BF0000025C044B9B6A27
S214002A1013F0240F14BF012000208000704700BF71
S214002A200000025C08B5FFF7F1FF064BDB6B23F4F2
S214002A307F4323F0EF0303431EBF0122024BC3F87C
S214002A40FC2F08BD0000025C00F0FF3F4368182B17
S214002A500AD0202B1DD0102B2BD1174BD3F80434C3
S214002A60DB010AD401207047134BD3F804349A01D3
S214002A70F8D50B6843F008030B6003680F4A9342CF
S214002A8010D10B6843F040030B6000234360002026
S214002A907047094BD3F804345B01E3D50B6843F069
S214002AA00403E9E7064A9342F1D10B6843F080033A
S214002AB0EAE70720704700BF0000025CBA29002042
S214002AC0B92900200B4607B50749D1F80414C907F1
S214002AD008D5002100920246084600F05BF803B0D5
S214002AE05DF804FB0120FAE70000025C1346064A84
S214002AF0D2F80424D20504D50A46014600201BF06D
S214002B00D1BD0120704700BF0000025C13B5084C21
S214002B10D4F80444E40508D5009313460A46014653
S214002B20002000F061F802B010BD0120FBE700BFF6
S214002B300000025C13B5084CD4F80444E40508D53C
S214002B40009313460A460146002000F071F802B0D2
S214002B5010BD0120FBE700BF0000025C70B5044614
S214002B600D4616468CB00A4A09AB07CA83E807002A
S214002B701A462146CDE90563CDE90333CDE9013395
S214002B8000954FF480301BF0B9FC0CB070BD00BF50
S214002B90CC8F0200F0B51C465B6815468DB01A0750
S214002BA0129E1AD1CBB17268934216D10C4B0D4AC5
S214002BB053F8217009AB07CA83E807001A4629466E
S214002BC0CDE90533CDE90333CDE90163009447F43D
S214002BD080701BF093FC0DB0F0BD0720FBE700BF34
S214002BE0D88F0200CC8F0200F0B516465A688DB01A
S214002BF0102A0D46129F15D17A68102A12D10A4A59
S214002C0009AC07CA84E8070022462946CDE90547ED
S214002C10CDE90344CDE90144044800961BF06EFC60
S214002C200DB0F0BD0720FBE7CC8F0200300001009E
S214002C30F0B516465A688DB0102A0D46129F15D16B
S214002C407A68102A12D10A4A09AC07CA84E8070033
S214002C5022462946CDE90574CDE90344CDE9014471
S214002C60044800961BF04AFC0DB0F0BD0720FBE7B9
S214002C70CC8F02001000010082B070B586B0149DA3
S214002C8003AE202D86E807000B9359D805EB850385
S214002C908B4203D006236B438B4253D10C9BAB4233
S214002CA050D10F9BB3EB450F4CD1129A934249D1AA
S214002CB0012229462220159BFFF7A2FD044630BBC1
S214002CC0034606220E210C20FFF786FD0123CDE9E0
S214002CD000332B4696E807001BF0A3FB0E230BAA37
S214002CE0009307CA2B461BF0E7FA0C23164C0093FA
S214002CF00EAA2B4607CA1BF00FFB636823F07F0360
S214002D0043F026036360FFF797FD30B106242046A4
S214002D1006B0BDE8704002B07047636823F07F03DA
S214002D2043F022036360FFF787FD04460028EDD1D9
S214002D30062311AA009307CA2B461BF020FBE6E7E2
S214002D400124E4E70724E2E70020025C70B598B0AF
S214002D50002843D02C4C08AD0FCC0FC50FCC0FC5A8
S214002D600FCC0FC594E80F0085E80F006D4604AE43
S214002D7004F1100320340FCB85E80F0094E80F0011
S214002D8086E80F00FFF7BCFD0420FFF7CDFDFFF738
S214002D90A7FD3046FFF7DEFD002408AE56F8040B0C
S214002DA00134FFF7E3FD102CF8D1FFF759FD032897
S214002DB0FBD90024FFF77EFD2646FFF74BFD55F8AE
S214002DC0043B01365840042E44EA0004F5D12CB1E9
S214002DD0012206200D4B1A7018B070BDFFF790FD4B
S214002DE00820FFF74FFD0020FFF752FD0720FFF7F2
S214002DF055FD4FF40070FFF757FD0820FFF794FDD0
S214002E00FFF75EFD0020E7E7B4900200BC29002033
S214002E1008B5FFF775FD0122014B1A7008BD00BF0B
S214002E20BB2900201FB51BF0BCFD044630B10122B3
S214002E3006240D4B1A70204604B010BDFFF70AFD9D
S214002E400090FFF707FD0190FFF704FD0290FFF7E3
S214002E5001FD03906846FFF77DFDFFF7D9FFFFF7FA
S214002E6047FDFFF759FDE6E7BC29002006289ABF74
S214002E70014B185C002070471491020030B5154BCA
S214002E8087B00293144B0390049346F611030D4645
S214002E90059300F077F91428044616D168461BF00F
S214002EA02AFE4FF0A843032202A95A6319601D6147
S214002EB09A63DA6B9207FCD1142C02D168461BF099
S214002EC028FE00F093F9044601E00028E9D02046E9
S214002ED007B030BDD01B0020040000202DE9F04FC5
S214002EE0B1B005468C469E46E8466F4EDDF8EC903F
S214002EF0409C06F1100A474630687168083603C7DA
S214002F005645B846F7D13E9B03EB0208C8F1000AC7
S214002F100AF00F0AB9F1000F00F09D80C9F1000712
S214002F2007F00F070121DDF8FCB044F00050C4F1B3
S214002F301006CDF810B005910690300200F4F85057
S214002F4040F021000790B9F1000F40F08680CDF8E0
S214002F5020D047F00050002D00F0848009912121F8
S214002F600A9041EA07210B9142F00050CDF830C09C
S214002F703D9B08A94FEA0A2C0D910E904CF041009B
S214002F800F901093002A75D13E9B119143F0005389
S214002F9012933C9B1390149310AB1593434B444AE7
S214002FA0169340F611031793424B0021002D08BFDD
S214002FB01346189314AB19933F4B10221A93112300
S214002FC01B931CAB184624F004FF01221D9200221E
S214002FD046F0804603461E96239205B9EB46102C13
S214002FE0CDF880B024AE4BD10123224600213046D6
S214002FF02193229424F0EDFE20AB002125938F42EE
S21400300018BF334647F0804226923A9A2CA8289258
S2140030102993B2FA82F35B0949EA837310222B9153
S2140030202A9324F0D6FEB9F1000F00D028AED04483
S21400303048F080432CA918A82D962E93FFF71EFF64
S21400304030B92DB90346A34225D1002818BF2C203D
S21400305031B0BDE8F08F102764E7CDF820E049F0E6
S214003060005078E7002C3FF479AF04A909910121BC
S2140030700A9076E73E9B0CAA11924120129388E7AD
S2140030801022002130462193229424F0A2FE002C28
S214003090B2D10123B1E703F1C0026A4412F8C02C92
S2140030A001331043CFE700BF1B9102001000002041
S2140030B0309102003491020004000020F0B5C029CF
S2140030C09FB0DDE9244557D0B1F5807F04D0802934
S2140030D048D029201FB0F0BD01265CB140F234472D
S2140030E002941024039604942124019705940695CF
S2140030F002AC0AE040F214470294102403960494AB
S214003100212405940124019706950794012510248F
S214003110089409950A9221220B950C940D92174A51
S2140031200AAD0E92164A0F95109242F611021192AF
S214003130129313951494159201AA1692D3B112AB5A
S2140031401793042318931123199316AB1A901B9305
S21400315040F61103C9081C911AA806A91D93FFF78B
S2140031608DFEB7E7012614B94FF48267C4E74FF423
S2140031708667B5E70EABE3E70F20ABE72C910200BE
S2140031801000001038B5164B5A6E42F004025A660C
S214003190D3F8802242F00102C3F88022114B5B680C
S2140031A0C3F3080343B14FF0A842D36B13F0430FA9
S2140031B0FBD11424204638BD4FF0A843DC6B14F036
S2140031C04304FBD1084D2B681BB90421284602F0A6
S2140031D005FB2B68013343F000432B60EAE700BF92
S2140031E00080005000ED00E0D01B0020014B0020C6
S2140031F05B68704700ED00E04FF40052034B002080
S2140032009A660322C3F86022704700BF0090005001
S2140032104FF40052034B00209A660322C3F8602244
S214003220704700BF00A00050012300F01F02A0F569
S21400323006200949A0F550604009934051F8202027
S2140032401A4341F82020054951F8202022EA0302BB
S21400325041F82020704700BFE81B0020D41B002048
S2140032600121A0F506230E4AA3F550635B0900F082
S2140032701F00814052F82300014342F823100949F9
S214003280D1E90030034488680344C86809690344E8
S2140032905B1802BFC2E90033C2E90233136170470C
S2140032A0D41B0020E81B00202DE9F04FA9B00392A4
S2140032B01D4604460822339ECDE90401414021FA0A
S2140032C002F34B40980702F1080218BF9B00202A21
S2140032D01C44F4D18123B4FBF3F303EBC313E41AC9
S2140032E0734B04F506241B7804F55064002B3ED17E
S2140032F0FDF73CFE074620B16FF0910029B0BDE80F
S214003300F08F0146402208A824F063FD402239468B
S21400331018A824F05EFDDFF8B481DFF8B491C34648
S2140033200BF10F0ACDF800A0102208A95B46D9F8C9
S214003330000023F080FD0022014608F1100808AFC7
S214003340914246D1CDF800A05B461022D9F8000085
S21400335018A923F079FD4FF0000A834618AFD3452D
S21400336041D1544B9845DAD10122514B1A704FF097
S214003370810A4FF00008DFF85CB1A4F50627A7F530
S21400338050635B095BF8232004F01F01CA40D20794
S2140033903DD4494A52F82330CB40DB072AD5B8F152
S2140033A0000F08BFA0468123A7F6FF47B7FBF3F33D
S2140033B003EBC313FF1A07F50624BAF1010A04F556
S2140033C05064DAD1039BBBB1B8F1000F14D0444669
S2140033D019E057F8040BCDE90612FFF725FF079A08
S2140033E006990132ACE757F8040BFFF739FF0AF1EC
S2140033F0010AB4E7039B13B96FF08B007EE7B8F1C0
S214003400000F18BF4446349B00201C6076E7329BB2
S21400341013B10023329A13600EB1002333601023D9
S214003420DFF8AC9000932A4600232146D9F8000026
S21400343012F0BAF860BB32992A68204BC9B99A4292
S21400344006D02146D9F8000012F046F90028D3D15C
S214003450D5E90223DDE90410834208BF8A42A2D1DF
S214003460039B002BCFD06B68012BCCD16FF0840070
S21400347044E7102032999A420860E2D1002EE7D045
S21400348033462146D9F8000018AA12F0E1F848B1F0
S2140034900B4B9842D5D00B4B9842D2D00A4B984251
S2140034A0D6D029E7329A336812689B1A3360CFE782
S2140034B0BD29002000710800D41B0020105D175E97
S2140034C0FFDF00F011E000F0FEDF00F0006D080006
S2140034D0300B0020E81B00202DE9F04F87B0824615
S2140034E0894698461646DDF840B02AB1002B4FD0E4
S2140034F040F26C739A424ED8BBF1010F4ED80024AE
S21400350006F110073946012005941BF091FC05468C
S214003510002846D021463A4624F05BFC05ABCDE9B0
S214003520014300942B46012250464946FFF7BCFE55
S214003530044680B110F18C0F08BF6FF08D043A4638
S2140035400021284624F045FC28461BF081FC204636
S21400355007B0BDE8F08F144BC5E902A92B60C5F88B
S21400356004B02EB13246414605F1100024F03CFC72
S214003570059E0E483B462A463146006811F07CFF01
S21400358018B93046FFF750FED9E76FF09104D6E73A
S2140035906FF08604DBE76FF09104D8E76FF08504E0
S2140035A0D5E76FF08C04D2E7105D175E300B002075
S2140035B02DE9F0438DB08146DDE914780E461546B8
S2140035C01C469BB1B8F1000F05D16FF08606304659
S2140035D00DB0BDE8F083002FF7D0B7F1005FF4D34D
S2140035E0C3F1005303F500439F42EED8102200219A
S2140035F008A824F0EEFB002207AB029305AB01936C
S21400360006AB31460093484608ABCDE90522FFF7E6
S2140036104BFE06460028DAD1059BA4B1AB4215D86E
S21400362053EA0504D1D1069B0B48C8F80040009425
S2140036303A46079900682B4411F0B6FF002818BFD9
S2140036406FF09106C3E7AB42EDD2BEE75B1B9C4230
S21400365028BF1C46E7E700BF300B002030B58DB012
S2140036600C4605461022002108A824F0B2FB0022D2
S21400367007AB029305AB019306AB214600932846A1
S21400368008ABCDE90522FFF70FFE0446D8B9099B23
S214003690012B1BD0079D104B2946186812F01CF80A
S2140036A0B8B90122A5F506230C49A3F550635B09BA
S2140036B005F01F00824051F823004240284641F89A
S2140036C02320FFF7CDFD20460DB030BD6FF08404FB
S2140036D0F9E76FF09104F6E7300B0020E81B0020B6
S2140036E02DE9F04F89B007460E46FFF7C5F8C0072C
S2140036F009D4042401201BF061F980B3013CF9D100
S2140037006FF0920028E0102200210DEB020024F05A
S21400371060FB04A8FFF712F9049B002BE9D0059B79
S214003720002BE6D0069B002BE3D0079B002BE0D0B7
S2140037300025DFF8808008F10409B54219D34FF45C
S2140037408A74FFF793F800F00E03062B2DD1C305FD
S21400375001D5FFF7BDF8002009B0BDE8F08FFFF7F0
S21400376085F810F00E03FAD0022BF8D04105DFD50D
S214003770C4E7FFF775F8A6EB050A8400544528BF92
S214003780544699E8030000238DE80300CDE905437D
S21400379007EB050BCDF810B0029404AAD8F8003059
S2140037A007CA1BF004F82544C7E724FA03F3DA0730
S2140037B0A6D5C6E7409102001FB504A800E90E0092
S2140037C011460198FFF78CFF70B1FFF721FBBFF39E
S2140037D04F8F0749074BCA6802F4E0621343CB6079
S2140037E0BFF34F8F00BFFDE705B05DF804FB00BFD9
S2140037F000ED00E00400FA052DE9F0438BB0174613
S214003800DDE91545DDE913269C46DDE917388946CE
S21400381021B96FF086000BB0BDE8F083002FF8D01A
S2140038200EB9002CF5D1129909B9002AF1D10DB9BB
S214003830002BEED1B8F1000FEBD0244A944541D1CD
S2140038400288B2F5105F3DD14288B7EBD20FE0D3C5
S21400385022F04001802902D0B2F5807FD9D16CB326
S214003860AE421CD23219954219D29C42D1D831466A
S2140038702246284624F093FA2E4614F00F03C8D1A9
S214003880CDE90197CDE90336CDE90543CDE90754E7
S2140038900993FFF7B1FC38B16FF09200BBE79C428A
S2140038A0EBD96FF08900B6E707AA04A901A8FFF7CD
S2140038B009F90546FFF7ACFC0543EDD10020C8F832
S2140038C00040A8E76FF08500A5E700BF004440046D
S2140038D02DE9F04FA9B0834617469A460E46DDF806
S2140038E0C890DDF8D88029B96FF08603184629B04D
S2140038F0BDE8F08F002AF7D0B9F1000FF4D0349B62
S214003900002BF1D0B8F1000FEED00024424B0CADE6
S21400391093E8070085E807003C22214619A818947A
S21400392024F057FA3388728803F4E040B0F5804FED
S214003930DAD03A4E3A480BEA060646F01066864259
S21400394063D1B2F5807F60D147F2121293425CD108
S2140039500620344ABAF11F0FD3680E940B931369EE
S214003960126800FB03F3CDE90C23BDD9339B402B33
S214003970BAD9359B1F2B4BD909F10102202612928A
S214003980402299F800300F97042B18AFCDE9132486
S214003990CDE91572109611941794A5D1FFF72CFC5B
S2140039A003460028A2D10B9B15AACDE9086305ABF8
S2140039B007CA83E8070002AB12AA07CA83E8070013
S2140039C0DDE910018DE803000F9B95E80700FFF77F
S2140039D053F90546FFF71CFC55EA000384D13D4623
S2140039E0349A20AE2C4603CCB44210605160254673
S2140039F002F10802F6D100221146B9540132402ADB
S214003A00FBD12022C8F8002070E76FF085036DE731
S214003A106FF089036AE700BFCC8F02000000FFF654
S214003A2000000209E08F0200F0B50E461D468BB07E
S214003A30002853D0002951D0002A4FD0002B4DD05B
S214003A40048804F44F43B3F5824F03D06FF085002B
S214003A500BB0F0BDE3B224F0FF04B4F5E24FB0F8CB
S214003A6002C0F3D1122B01D0172BEFD10CF10701B6
S214003A70B2EBD10F4FEAD10733D31D4A04ACBCF5E5
S214003A80807F07CA84E80700E0D1122B07D1194BC4
S214003A901A691B681344CDE90432002306930023F9
S214003AA0CDE907670993FFF7A7FB0028D0D1124A94
S214003AB002AB92E8030083E803000AAB13E90300B5
S214003AC08DE80300079B94E807001AF0F5FD04460E
S214003AD0FFF79EFB204307D12F60B9E76FF0860003
S214003AE0B6E76FF08900B3E76FF09200B0E700BF6B
S214003AF0CC8F0200E08F0200389102002DE9F043DF
S214003B008FB01D46DDE916C600285CD000295AD0C5
S214003B10002A58D0002B56D0BCF1000F53D0002EF0
S214003B2051D0038803F44F44B4F5824F51D1DCB230
S214003B3023F0FF03B3F5824F40884AD0122C01D001
S214003B40172C46D1C31DB2EBD30F4FEAD3083AD396
S214003B504FEA4802571C674538D8B0F5807F38D101
S214003B60122C18BF4FF000094FF0000308BF1C4C82
S214003B70CDE9081805F1010114BF4C46D4F80C90A5
S214003B80CDE90B120A930D93FFF736FBC0B9CDE9CA
S214003B90058902AB08AA07CA83E807000EAB13E93B
S214003BA003008DE803000B9B94E807001AF0A3FDC2
S214003BB00446FFF72DFB20430ED104232B703760FD
S214003BC00FB0BDE8F0836FF08600F9E76FF089006C
S214003BD0F6E76FF08500F3E76FF09200F0E700BFBE
S214003BE0E08F02002DE9F04389B00E4615461F46C9
S214003BF0DDF8488020B96FF0860009B0BDE8F08394
S214003C000029F8D0002AF6D0B8F1000FF3D00388C8
S214003C1003F44F42B2F5824F02D06FF08500ECE716
S214003C20DAB2122A01D0172AF7D123F0FF03B3F530
S214003C30E24F41D14488C8F8004044B9EB00B3F5E0
S214003C40807FC8F80030E8D1122A0DD108E0E31DC5
S214003C50B5EBD30FCFD1B4F5807FDED1122A29D1B0
S214003C60354B1C681B691C440023194670192C44EC
S214003C7014F801CD10F8012D1143B2EB0C020CBF65
S214003C804FF0FF3C4FF0000C86420CEA030343EA79
S214003C900203EDD10029AED0002BACDA109B9D427A
S214003CA046D82A463146384624F09EF8119B002016
S214003CB01D60A2E70024D7E73378042B9BD16B1E48
S214003CC0DB005B08B3F5807FC8F80030A5D1122A68
S214003CD006F1010318BF4FF000094FF040020593AC
S214003CE04FF000030ABF144C4C46D4F80C90CDE9B4
S214003CF00623FFF781FA00287FF47FAFCDF80C90FB
S214003D00D8F800300733DB08029308AB13E903004A
S214003D108DE80300059B94E807001AF099FD044619
S214003D20FFF776FA00287FF468AF002CB6D062E77B
S214003D306FF0890061E700BFE08F02000388B3F5EB
S214003D40105F0ED14388DB08103B102B0CD8084AB6
S214003D5022FA03F313F0010F14BF00206FF0860061
S214003D6070476FF0850070476FF08600704700BFA1
S214003D70010101002DE9F04F8FB01546DDE918A9C5
S214003D801E46DDF868801C9F09B300B3B8F1000F2B
S214003D901DD0E7B1BAF1000F02D1B9F1000F16D16C
S214003DA0274B26F47E129A42B0F802B044D1FFF7B1
S214003DB0C5FF0446A8BBB5EBDB0F4FEADB0306D313
S214003DC016F47C1FC6F3054504D0102D03D96FF0FA
S214003DD0860426E010251B9A95422AD8CDE90113C1
S214003DE000231022CDE905930DF12809CDE9033A09
S214003DF0CDE90823CDF81C90FFF7FEF9044680B9FC
S214003E0007AA04A901A8FEF771FE0646FFF700FA06
S214003E10044656B958B92A464946404623F0E4FFB8
S214003E203D6020460FB0BDE8F08F6FF0920400258D
S214003E30F6E76FF08904F4E76FF08504F1E700BF5A
S214003E400002C0032DE9F041069F0C4616460546C3
S214003E5010B309B302B9FBB96288B3EBD20F4FEACD
S214003E60D20819D34C220021284623F0B2FF0D4B6E
S214003E7027F47E129A4212D12046FFF75FFF0446CF
S214003E8038B942463146281D23F0AEFFC5F82480D7
S214003E902F602046BDE8F0816FF08604F9E76FF0EA
S214003EA08504F6E70002C0032DE9F0410E461446ED
S214003EB00546002840D000293ED092B1036821482C
S214003EC023F47E1383423AD1AF6BF7B1C7F11008E3
S214003ED007F128004245284406D2274423F084FFF1
S214003EE0AF630020BDE8F081424623F07DFF10223C
S214003EF0103C3C19AA63F4D0284605F128011AF0B4
S214003F0050FE0028EED14644A863102C0CD9671E3C
S214003F1027F00F073A46314628461AF042FE002898
S214003F20E0D1E41BDDD03E442246314605F12800B0
S214003F3023F05AFFAC63D4E76FF08600D2E76FF049
S214003F408800CFE70002C0032DE9F04388461F46ED
S214003F5005468BB070B169B163B10368234923F499
S214003F607E1088423ED113F47C1FC3F3054604D06E
S214003F70102E03D96FF086042AE0102696422BD81E
S214003F80FFF73AF9044618BBAB6B05F12802CDE9FA
S214003F9001236B6A2A1DCDE904231023CDE90830DE
S214003FA007AB1A460390069005F13C0901A904A840
S214003FB0CDF81C90FEF7BEFD0546FFF729F904462E
S214003FC06DB928B932464946404623F00DFF3E609B
S214003FD020460BB0BDE8F0836FF08904F8E76FF079
S214003FE09204F5E76FF08504F2E700BF0002C00315
S214003FF007B56B46054A1068516803C36846FEF766
S21400400047F8002003B05DF804FB00BF4C910200A7
S21400401013B50024064A6846536F43F001035367FE
S21400402000948DF80440FDF76BFF204602B010BDEB
S2140040300040005030B58BB06C46174D0FCD0FC406
S2140040400FCD0FC495E8030084E80300134BD3F8A4
S2140040504C2112031CD5A3F5FE431C884FF6FF73B4
S2140040609C4208BF8C248DF81940FDF715FD2044AE
S21400407080F308008DF818000948FCF741FD6846F3
S214004080FDF72AFC3220FDF783FD00200BB030BD83
S214004090D3F85041E4B2E6E7549102000080E00F06
S2140040A000F0490230B5094D87B001AC0FCD0FC402
S2140040B02B6801A8236019238DF80530FDF724FD31
S2140040C03220FDF75FFD002007B030BD7C91020076
S2140040D06FF00403502110B50A480B4C13F0800F04
S2140040E003F1010207D12344402A83F80013134644
S2140040F0F4D1002010BD03F00F03043B03441976EF
S2140041001346EBE700ED00E000E100E0BFF35F8F51
S214004110074B5A6A22F480325A62D3F8942022F06F
S2140041200102C3F89420BFF34F8FBFF36F8F704721
S21400413000ED00E070B52948294CFFF7E7FF844200
S214004140284D294919D1D5F8C03023F0FF0343F094
S214004150A003C5F8C0304FF080430A68214D234EB7
S214004160C5F8982043F0010301328442C5F89C60EC
S214004170C5F8A0300A601ED00DE0D5F8C02020F0AB
S2140041801F03203B22F0FF0242F0A002B3F1005FC3
S214004190C5F8C020E1D2164B0A68124823F01F0368
S2140041A043F00303C0F89820C0F89C30114B01324E
S2140041B0C0F8A0300A60BFF35F8F0522094BC3F832
S2140041C094205A6A42F480325A62BFF34F8FBFF38C
S2140041D06F8FBFF34F8FBFF36F8F70BD2C0D002016
S2140041E0040F002000ED00E0FC1B00200300002070
S2140041F0230F0020E1FFFF3FF8B51446FFF786FFC8
S2140042001F2C27D90027C2062A4D1CBF20F01F00EE
S21400421020302A68CB06284B18BF21F01F01FCB2BD
S214004220A2422BD8D3F8C04020F01F0024F47F44CD
S21400423044F4807421F01F01C3F8C04040F003002E
S214004240C3F8982041F003010132C3F89C00C3F87C
S214004250A0102A600020BFF35F8F0522164BC3F81C
S21400426094205A6A42F480325A62BFF34F8FBFF3EB
S2140042706F8FBFF34F8FBFF36F8FF8BDC3F89840B3
S214004280D3F89C40D3F8A06024F01F04A04226F088
S2140042901F0601D1B142DDD0B04201D8A14207D2FB
S2140042A0D3F89840013724F0FF04C3F89840B6E7E7
S2140042B02820D0E7FC1B002000ED00E0BFF34F8F66
S2140042C00549064BCA6802F4E0621343CB60BFF3AD
S2140042D04F8F00BFFDE700BF00ED00E00400FA05C9
S2140042E0054B1A782AB95B78002B0CBF03200220F6
S2140042F070470120704700BFC82900200329F8B581
S21400430098BF124B05460E468CBF00245C5C032803
S21400431005D8DFE800F002080B0E44F002040C4B50
S2140043201F684FB9F8BD44F00804F8E744F02004CD
S214004330F5E744F08004F2E77B681A68144203D07D
S214004340314628465B6898473F68EAE79091020046
S2140043502C1C002038B5104D2B78ABB10F4C2378B1
S2140043601BB100F0B7FB0023237000201AF06CFC92
S2140043700B4C50B100F000FC0023012120782B707C
S214004380FFF7BCFF0123237038BD0122054B1A70CE
S2140043902278054B1A70F7E7C3290020C1290020B0
S2140043A0CA290020C4290020C529002010B519F00C
S2140043B02CFF064B04461B781BB1BDE8104019F0D5
S2140043C028BFFFF7C7FF2046F7E700BFC029002039
S2140043D0094A137830B101331370084B1B78012B50
S2140043E003D87047013B13707047054B1B780BB919
S2140043F0FFF7B0BF704700BFC8290020CA290020B9
S214004400C429002070B519F000FF124E0546337817
S2140044109BB900F0EDFC044620B1284619F0F9FEE1
S214004420204670BD0C4819F025FD00F089FF0B4BA7
S2140044301C6000F0A9FD0A4B186000F02BFA1AF079
S21400444005FC084B0024186001232846337019F039
S214004450E0FEE5E7CB2900202C1C0020001C0020F5
S214004460281C0020041C00202DE9F843284A0138A7
S214004470135C39B1274F013339781354012904D816
S214004480BDE8F883013B1354FAE7FFF729FF01283C
S214004490044635D819F0B9FEDFF88480054698F84A
S2140044A0003013B31C4E33781BB9012232701B4AFE
S2140044B01370DFF8709099F8003023B100F00AFB13
S2140044C0002389F80030284619F0A3FE01201AF0D0
S2140044D0BBFB19F09AFE337805461BB100F04CFB87
S2140044E000233370002388F80030284619F091FE28
S2140044F03878A042C4D02146FFF700FF3C70BFE7E3
S2140045000329F5D10228F3D11AF0A4FBF0E700BF87
S214004510C8290020CA290020C0290020C42900205C
S214004520C3290020C129002010B5044619F06DFEED
S214004530002C0CBFFF210121064A13780B44DBB286
S2140045401370B3FA83F3BDE81040034A5B09137097
S21400455019F05FBEC7290020C629002038B519F01B
S21400456054FE094B05461B78012B04D819F051FE62
S2140045700024204638BD054B1C6800F047FB044469
S214004580284619F046FEF4E7CA290020001C002041
S21400459038B54160044619F038FE05462146044801
S2140045A019F06BFC2846BDE8384019F032BE00BF53
S2140045B02C1C0020054B1B685843054B00F5742047
S2140045C000F23F20B0FBF3F0704700BF281C00202D
S2140045D040420F002DE9F04F85B0EFF3108772B61A
S2140045E0AFF3008019F0E7FB00286FD0804EDFF8AD
S2140045F02C82337823B10020FFF7EAFE00233370C5
S214004600FFF76EFE0446002867D0841EE4B2012C35
S2140046106AD9FFF765FE01280546764CDFF800925A
S21400462000F28C802078854240F0C680207800F02A
S214004630D7FA99F8003013B16F4B1B782370AFF39D
S214004640008007B962B6EFF3108772B66B4B1A7824
S21400465052B100221A70684B20781B78984203D11A
S21400466001212170FFF74AFE654800F0FBFB19F0B8
S214004670B1FB05460028BCD1624BDFF89481187068
S21400468098F80030ABB189F80000DFF88C9199F803
S21400469000301BB100F01EFA89F8005000201AF016
S2140046A0D3FA002800F09B8000F066FA002388F812
S2140046B00030337823B10020FFF78AFE00233370E2
S2140046C000212078FFF71AFE00232370AFF3008046
S2140046D007B962B605B0BDE8F08F3378002B98D0E6
S2140046E0FFF776FE347094E7002003A900F008FC7C
S2140046F0044600288DD1D8F80030039A9A4205D88F
S2140047000120FFF765FE0123337082E73E4B1D68EC
S21400471000F07CFA039B05449D42F1D200F08EFA2D
S2140047208200039942F0020292B2CDE9004223468B
S214004730364A491B32481AF08EFA6AE7344BDFF8DD
S214004740C4A093F800B0BBF1000F25D100F046F9E5
S2140047502078854230D19AF800307BB92C4D2B78E2
S214004760002B7FF463AF2B4B1B7823B900F0ACF91A
S2140047700122294B1A7001232B7057E7022DEDD129
S2140047808AF800B015E02378022B25D100238AF89A
S214004790003022F0FEFE1FE0207885420CD19AF809
S2140047A00030002B3FF442AF022DD7D100238AF809
S2140047B0003022F0EEFED1E70023DFF848A08AF8AA
S2140047C0003099F8003013B92946FFF797FD9AF89C
S2140047D000302570002BD6D1012DBFD826E701204A
S2140047E000F0FEF907B962B6EFF3108772B655E728
S2140047F0C2290020CA290020C5290020BE29002081
S214004800081C0020C6290020001C0020AD43000024
S214004810C3290020C7290020C1290020041C00202D
S214004820C429002010B519F0F0FC0022044B1C78B7
S2140048301A7019F0EEFC00F0C9FC2043C0B210BD9F
S214004840BF29002073B5114E0446337883420FD03B
S2140048504FF400730E4DADF8043058B101A8FDF7C3
S214004860FBFA4020FFF7A6FE2B68181A2860347063
S21400487002B070BD8DF8050001A8FDF7EDFA4020E6
S214004880FFF798FE2B681844F0E700BF0F0D0020D6
S214004890641C002073B5002401A88DF80440FDF7C1
S2140048A091FB2046FFF7CEFF404A4149136F41482F
S2140048B003F007030B60D2F800113F4D01F003012F
S2140048C001604FF400203D49032B48664FF400304A
S2140048D0486601F598318969C1F3400129705DD0B9
S2140048E0D2F8203103F00303981E43424341D2F826
S2140048F02421334C02F00702022A08BF43F00103CA
S2140049004FF4C8702370FFF755FE00222D4B2E493A
S21400491018602E4E0B680132D2B20A2A46F8040BF3
S214004920F9D1034400EBC00003440B602B78284DFC
S21400493063B323781D4A3BB9D2F8003103F0030372
S214004940591E4B424B412370D2F8003103F003034B
S214004950022B25D0032B26D0012B17D1FCF7CAF843
S214004960024698B11B4B1C4EDC6800231946C4F364
S2140049700B04013404EB84040138E4FB060117F051
S214004980F5FDFFF717FE2B6803442B601F20FFF78B
S21400499011FE2B6803442B6002B070BD0123A6E70E
S2140049A0FCF7C2F8DCE719F05DFAD9E700800050A2
S2140049B0681C00206C1C0020CF29002000900050AE
S2140049C0D0290020301C0020341C0020381C002079
S2140049D0641C002000C0015040420F00074A0849EE
S2140049E0D2F8203103F003030B60D2F82431054AD5
S2140049F003F00703136019F01ABC00BF00800050D4
S214004A00741C0020701C002008B5104B1A78C2B128
S214004A1000221A700E4B1A6F22F0070242F00102B3
S214004A201A67D3F8202142F00302C3F82021D3F8F6
S214004A30242122F0070242F00302C3F82421FCF7E7
S214004A4043F80122034B5A6708BD00BFCE29002059
S214004A500080005000E000500122154B10B55A6748
S214004A60144B154C1B7813B302201AF099F9F0B1C9
S214004A7000F076FAD8B1A36DD90302D5E36D9A0794
S214004A8015D40D4B9B6DDB0711D401220B4B1A700E
S214004A901AF065F9BDE81040094B0A4A1860136F12
S214004AA023F0070343F003031367FCF70DB810BDAC
S214004AB000D00050D029002000C00050CD29002092
S214004AC0601C0020008000500122014B1A707047C5
S214004AD0CE290020F8B51F4B1B78002B39D01E4C72
S214004AE02378B3B91D4B9A6DD10302D5DA6D9207C0
S214004AF02FD49B6DDB072CD41AF031F9184B194ACA
S214004B001860136F23F0070343F003031367FBF7E4
S214004B10DBFF1AF024F9124B134D1B68134EC01A14
S214004B202B78134F56F8232046F82300111A3A68BC
S214004B301048521A0A213A600932B2FBF1F20133E8
S214004B40DBB20260B3FBF1F201FB12332B700023E1
S214004B502370F8BDD0290020CD29002000C00050C9
S214004B60601C002000800050CC290020381C00204B
S214004B70341C0020301C002008B519F05BFB124BDB
S214004B8012491A6F096822F007020A431A67104989
S214004B90D3F82021096822F003020A43C3F8202133
S214004BA00C49D3F82421096822F007020A43C3F807
S214004BB02421094B1B7813B10122084B9A62BDE8E9
S214004BC00840FBF781BF00BF00800050681C002033
S214004BD0741C0020701C0020D029002000E000502B
S214004BE002280AD003280BD001280CD1064A1369E4
S214004BF023F00403136130BF70470020FDF738B977
S214004C000020FDF75BB9704700ED00E0054B187813
S214004C1018B1054B186800EBD000044B1B6818440D
S214004C20704700BFD0290020301C0020641C0020E4
S214004C300122014B1A707047D0290020014B1878CA
S214004C40704700BFD029002038B51AF096F8002526
S214004C50084B094C1A682368C31A2AB123B1516954
S214004C60994203D3C91A5161206038BD55615B1A59
S214004C709268F2E7801C00207C1C0020C38870B578
S214004C8004460D463BB9FFF769FC8542064602D24C
S214004C9019F0CEFF35460E4965610B688BB90C607E
S214004CA0A3600DE0AD1A9A68184665616AB11346AE
S214004CB05A69AA42F6D930B18460521BA3605A6181
S214004CC070BD0020F4E70C60F7E79C60A260F7E791
S214004CD0801C002038B5134D2B685B6993B1124ACF
S214004CE0022014681C441AF04FF8204600F0BCFA64
S214004CF000230E492A680B70D088800709D5012347
S214004D000B7038BD02201AF03FF8022000F0F6FAC9
S214004D10EEE79268002AF4D050690344012BEBD9E1
S214004D20EFE700BF801C00207C1C0020D22900205A
S214004D3070B516469DF81420C0E903360271049A31
S214004D40BDF818300260002204460D468260C3801B
S214004D50EEB91AF012F82844A0619DB12E4619F05B
S214004D6054FA0546FFF770FF31462046FFF786FFE8
S214004D70104B1B68A34201D1FFF7ACFF284619F081
S214004D8048FA02E0E36865617BB9002070BD19F05F
S214004D90F4FF3044A061002DE0D1E3686561002B8C
S214004DA0DDD0204621689847D9E7204621689847F5
S214004DB0EBE700BF801C002000220C490B687BB18B
S214004DC083420AD183687AB1936083681BB15A69BB
S214004DD041690A445A61002070471A469B68EEE70C
S214004DE00028EFD0022070470B60EEE7801C002002
S214004DF070B519F011FA144E05463478FCB9134B09
S214004E001C60134B1C60134B1C8000F0EBF9012058
S214004E1019F0BAFF19F0D3FF0F4B0246186020B9FD
S214004E20284619F0FFF9232070BD234640F2E731EB
S214004E300A4817F09BFB0A4B18600123337028467C
S214004E4019F0F0F90020EFE7D3290020801C00209D
S214004E507C1C00205C290020841C002018FCFFFF1E
S214004E60781C002070B5044640B319F0CEF9144EF5
S214004E700546FFF7E9FE3068A04209D02046FFF756
S214004E809BFF0446B0B1284619F0C3F9204670BD12
S214004E90FFF792FF04460028F5D133683BB902209D
S214004EA000F014FA284619F0B4F90024EEE7FFF7EC
S214004EB011FFF7E73368002BF4D1F0E72224E5E78B
S214004EC0801C002038B50C460546A8B1A1B10023C9
S214004ED00B7019F0A1F90121084B1B6833B919F0C2
S214004EE0A1F9002038BD9D4204D121702278002A05
S214004EF0F9D0F4E79B68F1E72220F3E7801C002056
S214004F00F8B506460F4619F087F900250446124BF9
S214004F101B6823B9204619F085F91B2011E05A6951
S214004F201544DA88B2420DD119F027FF0B4E3368CC
S214004F30C01AA8420AD3002320463B6019F072F933
S214004F400020F8BDFF2EEFD09B68E2E719F015FFB2
S214004F5033682B441B1AEFE7801C00207C1C0020C3
S214004F6008B5074B187848B119F0F9FE054B1B68D1
S214004F709B69C01A02288CBF0020012008BD00BF14
S214004F80D2290020801C0020014B1868704700BF03
S214004F90841C0020F8B50C4B05461B680E46834261
S214004FA00FD3002440F2E7302146084B4FF47A72C4
S214004FB01F680023E5FB070117F0D8FA306020468B
S214004FC0F8BD2120FCE700BF781C0020841C0020D0
S214004FD0F0B51F46002387B00C46164605468DF8EA
S214004FE0133050B30DF11301FFF76CFF9DF813302B
S214004FF02BBB204605A9FFF7CDFFE0B9114BE88390
S2140050001B6828465C434FF47A73B4FBF3F203FB49
S2140050101244191B89B2994208BF0021BDF83430EA
S214005020A983059A02939DF830301146CDE90073A6
S2140050303346FFF77DFE07B0F0BD2220FBE70220D7
S214005040F9E700BF841C0020014B1868704700BFBA
S214005050781C00200F4B10B51A689AB14FF47A717D
S214005060531E1342A0FB01010ED1B2FA82F2C2F126
S2140050701F04531CD243E04001FA03F3184321FAFD
S21400508002F20243104610BD002317F06FFA0246E4
S214005090F8E700BF841C0020C2072DE9F04704464D
S2140050A00BD5474A138801339BB21380FFF7CCFD1C
S2140050B0444B1B680BB1FFF70DFEA3077ED519F016
S2140050C0ABF84FF0000905464E46FFF7BDFDC84653
S2140050D03C4F3C680CB163698BB100223A4B012E01
S2140050E01A7003D119F0020F18BF1E70002C61D081
S2140050F0FFF7F0FD2846BDE8F04719F093B82346C1
S2140051005A693AB91A792179914288BF1C469B6838
S214005110002BF5D1284619F085F82569DDB119F080
S2140051202CFEA269A0EB02094FEAE9734D4578EB25
S214005130030311DA23691344A361E368B4F8069005
S214005140013613B120462168984719F065F80546E0
S214005150FFF77AFDBDE7A94619F05EF882462046BD
S214005160FFF72AFE504619F05DF82369002BE4D0BD
S214005170A38BB5EB090533B1E28B13449BB2B3F5B1
S2140051807A7F0FD2E38319F047F8814629462046F6
S214005190FFF774FDA369226948461344A36119F01A
S2140051A041F8CAE7A3F57A73E383A369013D013B9F
S2140051B0A361E8E7022000F089F89BE7BDE8F087E6
S2140051C05C290020801C0020D129002010B519F091
S2140051D023F8034B1C7819F025F8204610BD00BFB5
S2140051E0D12900201FB500241C4B012118689A887D
S2140051F00290D3F806009B7A00903E20ADF80C2073
S2140052008DF80430FCF764FA02A88DF808408DF893
S2140052100C40FDF7FBF8694601208DF80040FDF7CD
S214005220B1F84FF0B04240F2FF31936923F47F7338
S21400523023F0030393610A4B5961936A13F0080342
S214005240FBD113620120FDF7B7F84FF48052054BEF
S214005250C3F880211A6004B010BD00BF949102000C
S2140052600020005800E100E010B5044618F0CDFF1D
S2140052704FF0B042936A1907FCD4136A116C526956
S214005280520604D4CA1A032A01D899420ED1E21A49
S214005290022A98BFDC1CB4F1FF3F38BF013C4FF038
S2140052A0B0431C649A6942F040029A6118F0B1FF5C
S2140052B0054A13783BB14FF0B041CB6B43F0020385
S2140052C0CB630023137010BD100D0020820700F082
S2140052D001030AD50121084A43F0400311704FF03C
S2140052E0B041CA6B22F00302CA634FF0B0418A692C
S2140052F022EA03038B617047100D0020830742BF2C
S2140053004022014B5A6170470010005810B518F043
S21400531083FF4FF0B04304465B695A06074A03F022
S214005320010003F0510348BF40F002005361FFF74D
S214005330B3FE2046BDE8104018F074BF00200058A9
S2140053400A4B10B5D3F8403203F00303013B012BA0
S2140053500BD818F05AFF044601210220FFF784F804
S2140053602046BDE8104018F054BF10BD0080005025
S21400537010B50446FBF7A8FB0C4BA0F57A729A42D0
S21400538012D84FF47A73B0FBF3F05C43084BB3FBD0
S214005390F0F3B4FBF3F0022806D9BDE8104003236F
S2140053A0B0FBF3F0FAF7CCBE10BD00BFFFC99A3BC6
S2140053B040420F00024A0349034806F033BD00BFCF
S2140053C0A0910200C49102000C92020010B50A4699
S2140053D0044619B1024B00211B68984710BD00BF58
S2140053E0340B00200E4B0340B3F1607F06D1B1F5BD
S2140053F0885F14BF6FF0860000207047B3F1707F9F
S2140054000BD101F4E043B3F5005F06D111F4E06F71
S2140054100CBF6FF08600002070476FF08600704764
S2140054200000C07F8A42F8B506460C4600F0DB80D6
S2140054306F4922F4FF7323F001038B420ED06D4BAD
S21400544022F0FF01994209D06B4822F47F7323F0C3
S2140054500303834202D0694B994228D1684B24F05B
S214005460FF0199420FD114F0FF000BD0654B40F0BE
S2140054700070984240F0B98082EA0400FF288CBF92
S21400548000200120F8BD5B4B9942ECD0A3F5885371
S2140054909942E8D024F4FF7323F00103B3F1062FFA
S2140054A0E1D056488142DED053498B42DBD004F02F
S2140054B0FE43B3F1A06F14D102F0FE43B3F1A06F28
S2140054C040F0938082EA040333F47E1340F08D802C
S2140054D014F40040D6D0C4F30540C2F3054290420F
S2140054E0CDE7B3F1407F6AD102F0FE43B3F1407FCF
S2140054F07BD182EA040535F47E1576D13146204606
S214005500FFF770FF002870D13F4B12F47C1703EAB8
S21400551002031BD0B3F1607FC2F305473FD13B497E
S214005520D3B243F000738B423DD003F17E43043B7D
S2140055300F2B01D83649CD5C14F47C1FC4F3054309
S21400554033D1BD4214BF002001209BE7B3F1607F3A
S2140055500DD12E49D3B243F000738B421DD003F118
S2140055607E43043B0F2BDAD82A49CF5CD7E7B3F14A
S214005570707FE1D106F4E043B3F5005F03D1012765
S214005580C6F302239F4006F4E043B3F5005FD3D191
S2140055900125C6F302218D40CEE71027BFE7B3F101
S2140055A0707FC9D1EFE71025C6E712F47C1F01D142
S2140055B0AB4218D022047FF565AFBB425FE7B3F17C
S2140055C0106F12D124F01F6020F4702068B902F02A
S2140055D0FE43B3F1106F7FF455AF0F48104040F014
S2140055E01060A042AEE701204CE700204AE700BF6B
S2140055F0000200060013000600040006000900066C
S21400560000030006FF0000020000C07F0300000247
S2140056103A9202003A9202000000FFF62DE9F843A3
S2140056201746002288461C4600F05AFA054688BBF4
S214005630D8F80060B6F8009009F4E043B3F5804F60
S214005640F36808BF27F0010737EA03031AD10CB343
S214005650254B24F0FF029A421FD114F0FF0304D01A
S214005660224A43F00073934232D0224648463169BC
S214005670FFF7D8FE074668B9224648467169FFF725
S214005680D1FE70BB6FF0840500233046C8F80030AA
S2140056901AF055FA2846BDE8F883154B9A42DCD036
S2140056A0A3F588539A42D8D024F4FF7323F001035D
S2140056B0B3F1062FD1D00F498A42CED00E4A93427C
S2140056C0CBD004F0FE43B3F1407F04D12304CCD505
S2140056D06FF08605D8E7B3F1A06FF7D0034B9C4276
S2140056E0C2E73D46D6E700BF00030006FF00000203
S2140056F000130006000900060004000638B500F096
S214005700FE43B3F1407F04460D4602D06FF086009C
S21400571038BDFFF767FE0028FAD114F47C1F12D0BC
S214005720C4F30543032B137022D9284A2240B2F152
S214005730607F3DD1264AE4B244F0007494422BD1F7
S214005740102BE5D9E2E7214B2340B3F1607F15D15A
S2140057501F49E3B243F000738B4202D1102313704B
S214005760D6E703F17E43043B0F2B04D900231370C6
S2140057706FF08500CCE71749CB5CD3E7B3F1707FB9
S214005780F4D101F4E043B3F5005FEFD10123C1F398
S21400579002218B40DBB2C5E704F17E44043C0F2CAB
S2140057A0B4D80D4A125D9342B0D8142BB0D9DFE7B7
S2140057B0B2F1707FAAD105F4E042B2F5005FA5D140
S2140057C00122C5F30225AA40EDE700BF0000C07F16
S2140057D0030000023A9202003A92020037B50B4DDF
S2140057E00C462B787BB100230A460193014601AB99
S2140057F0281D19F007FA20B9019BA34218BF6FF0C5
S214005800930003B030BD6FF08800FAE7881C0020D4
S2140058102DE9F04F9B460023924601F0FE4297B0DA
S214005820B2F1806F0E46DDE92078DDF888900893A7
S21400583005D018461AF083F96FF086043CE00B4654
S2140058404FF4807208A9FFF7E9FE044618B10898DD
S2140058501AF075F930E0DDF820C00DAC6546CDE9EC
S21400586014000FCD0FC495E80700BCF8003084E89C
S214005870070003F4E042B2F5005F20D113F4E06FB6
S214005880C3F302211BD0384826F4807282420AD025
S21400589000F50070864206D03448864203D0A0F554
S2140058A03F4082420BD101258D40102D12D9604613
S2140058B01AF045F96FF083042646002548E042F2C8
S2140058C00402934202D12A4B9E420BD0294B9E42A1
